{"contracts/DappWorks.sol":{"DappWorks":{"abi":[{"inputs":[{"internalType":"address","name":"_usdtAddress","type":"address"}],"stateMutability":"nonpayable","type":"constructor"},{"anonymous":false,"inputs":[{"indexed":true,"internalType":"uint256","name":"jobId","type":"uint256"},{"indexed":true,"internalType":"address","name":"initiator","type":"address"}],"name":"DisputeRaised","type":"event"},{"anonymous":false,"inputs":[{"indexed":true,"internalType":"uint256","name":"jobId","type":"uint256"},{"indexed":false,"internalType":"uint8","name":"completionPct","type":"uint8"}],"name":"DisputeResolved","type":"event"},{"anonymous":false,"inputs":[{"indexed":true,"internalType":"address","name":"previousOwner","type":"address"},{"indexed":true,"internalType":"address","name":"newOwner","type":"address"}],"name":"OwnershipTransferred","type":"event"},{"inputs":[{"internalType":"uint256","name":"id","type":"uint256"},{"internalType":"address","name":"bidder","type":"address"}],"name":"acceptBid","outputs":[],"stateMutability":"nonpayable","type":"function"},{"inputs":[{"internalType":"string","name":"jobTitle","type":"string"},{"internalType":"string","name":"description","type":"string"},{"internalType":"string","name":"tags","type":"string"},{"internalType":"uint256","name":"minBudget","type":"uint256"},{"internalType":"uint256","name":"maxBudget","type":"uint256"}],"name":"addJobListing","outputs":[],"stateMutability":"nonpayable","type":"function"},{"inputs":[{"internalType":"uint256","name":"id","type":"uint256"},{"internalType":"uint256","name":"bidAmount","type":"uint256"}],"name":"bidForJob","outputs":[],"stateMutability":"nonpayable","type":"function"},{"inputs":[{"internalType":"uint256","name":"id","type":"uint256"},{"internalType":"string","name":"githubUrl","type":"string"}],"name":"completeJob","outputs":[],"stateMutability":"nonpayable","type":"function"},{"inputs":[{"internalType":"uint256","name":"id","type":"uint256"}],"name":"deleteJob","outputs":[],"stateMutability":"nonpayable","type":"function"},{"inputs":[],"name":"getAssignedJobs","outputs":[{"components":[{"internalType":"uint256","name":"id","type":"uint256"},{"internalType":"address","name":"owner","type":"address"},{"internalType":"address","name":"freelancer","type":"address"},{"internalType":"string","name":"jobTitle","type":"string"},{"internalType":"string","name":"description","type":"string"},{"internalType":"string","name":"tags","type":"string"},{"internalType":"uint256","name":"minBudget","type":"uint256"},{"internalType":"uint256","name":"maxBudget","type":"uint256"},{"internalType":"uint256","name":"finalBudget","type":"uint256"},{"internalType":"string","name":"githubUrl","type":"string"},{"internalType":"uint256","name":"timestamp","type":"uint256"},{"internalType":"enum DappWorks.JobState","name":"state","type":"uint8"},{"internalType":"uint8","name":"completionPct","type":"uint8"},{"internalType":"address[]","name":"bidders","type":"address[]"}],"internalType":"struct DappWorks.JobStruct[]","name":"","type":"tuple[]"}],"stateMutability":"view","type":"function"},{"inputs":[{"internalType":"uint256","name":"id","type":"uint256"}],"name":"getBidders","outputs":[{"components":[{"internalType":"uint256","name":"id","type":"uint256"},{"internalType":"uint256","name":"jId","type":"uint256"},{"internalType":"address","name":"account","type":"address"},{"internalType":"uint256","name":"bidAmount","type":"uint256"}],"internalType":"struct DappWorks.BidStruct[]","name":"","type":"tuple[]"}],"stateMutability":"view","type":"function"},{"inputs":[],"name":"getDisputedJobs","outputs":[{"components":[{"internalType":"uint256","name":"id","type":"uint256"},{"internalType":"address","name":"owner","type":"address"},{"internalType":"address","name":"freelancer","type":"address"},{"internalType":"string","name":"jobTitle","type":"string"},{"internalType":"string","name":"description","type":"string"},{"internalType":"string","name":"tags","type":"string"},{"internalType":"uint256","name":"minBudget","type":"uint256"},{"internalType":"uint256","name":"maxBudget","type":"uint256"},{"internalType":"uint256","name":"finalBudget","type":"uint256"},{"internalType":"string","name":"githubUrl","type":"string"},{"internalType":"uint256","name":"timestamp","type":"uint256"},{"internalType":"enum DappWorks.JobState","name":"state","type":"uint8"},{"internalType":"uint8","name":"completionPct","type":"uint8"},{"internalType":"address[]","name":"bidders","type":"address[]"}],"internalType":"struct DappWorks.JobStruct[]","name":"","type":"tuple[]"}],"stateMutability":"view","type":"function"},{"inputs":[{"internalType":"uint256","name":"id","type":"uint256"}],"name":"getJob","outputs":[{"components":[{"internalType":"uint256","name":"id","type":"uint256"},{"internalType":"address","name":"owner","type":"address"},{"internalType":"address","name":"freelancer","type":"address"},{"internalType":"string","name":"jobTitle","type":"string"},{"internalType":"string","name":"description","type":"string"},{"internalType":"string","name":"tags","type":"string"},{"internalType":"uint256","name":"minBudget","type":"uint256"},{"internalType":"uint256","name":"maxBudget","type":"uint256"},{"internalType":"uint256","name":"finalBudget","type":"uint256"},{"internalType":"string","name":"githubUrl","type":"string"},{"internalType":"uint256","name":"timestamp","type":"uint256"},{"internalType":"enum DappWorks.JobState","name":"state","type":"uint8"},{"internalType":"uint8","name":"completionPct","type":"uint8"},{"internalType":"address[]","name":"bidders","type":"address[]"}],"internalType":"struct DappWorks.JobStruct","name":"","type":"tuple"}],"stateMutability":"view","type":"function"},{"inputs":[],"name":"getJobs","outputs":[{"components":[{"internalType":"uint256","name":"id","type":"uint256"},{"internalType":"address","name":"owner","type":"address"},{"internalType":"address","name":"freelancer","type":"address"},{"internalType":"string","name":"jobTitle","type":"string"},{"internalType":"string","name":"description","type":"string"},{"internalType":"string","name":"tags","type":"string"},{"internalType":"uint256","name":"minBudget","type":"uint256"},{"internalType":"uint256","name":"maxBudget","type":"uint256"},{"internalType":"uint256","name":"finalBudget","type":"uint256"},{"internalType":"string","name":"githubUrl","type":"string"},{"internalType":"uint256","name":"timestamp","type":"uint256"},{"internalType":"enum DappWorks.JobState","name":"state","type":"uint8"},{"internalType":"uint8","name":"completionPct","type":"uint8"},{"internalType":"address[]","name":"bidders","type":"address[]"}],"internalType":"struct DappWorks.JobStruct[]","name":"","type":"tuple[]"}],"stateMutability":"view","type":"function"},{"inputs":[],"name":"getJobsForBidder","outputs":[{"components":[{"internalType":"uint256","name":"id","type":"uint256"},{"internalType":"address","name":"owner","type":"address"},{"internalType":"address","name":"freelancer","type":"address"},{"internalType":"string","name":"jobTitle","type":"string"},{"internalType":"string","name":"description","type":"string"},{"internalType":"string","name":"tags","type":"string"},{"internalType":"uint256","name":"minBudget","type":"uint256"},{"internalType":"uint256","name":"maxBudget","type":"uint256"},{"internalType":"uint256","name":"finalBudget","type":"uint256"},{"internalType":"string","name":"githubUrl","type":"string"},{"internalType":"uint256","name":"timestamp","type":"uint256"},{"internalType":"enum DappWorks.JobState","name":"state","type":"uint8"},{"internalType":"uint8","name":"completionPct","type":"uint8"},{"internalType":"address[]","name":"bidders","type":"address[]"}],"internalType":"struct DappWorks.JobStruct[]","name":"","type":"tuple[]"}],"stateMutability":"view","type":"function"},{"inputs":[],"name":"getMyJobs","outputs":[{"components":[{"internalType":"uint256","name":"id","type":"uint256"},{"internalType":"address","name":"owner","type":"address"},{"internalType":"address","name":"freelancer","type":"address"},{"internalType":"string","name":"jobTitle","type":"string"},{"internalType":"string","name":"description","type":"string"},{"internalType":"string","name":"tags","type":"string"},{"internalType":"uint256","name":"minBudget","type":"uint256"},{"internalType":"uint256","name":"maxBudget","type":"uint256"},{"internalType":"uint256","name":"finalBudget","type":"uint256"},{"internalType":"string","name":"githubUrl","type":"string"},{"internalType":"uint256","name":"timestamp","type":"uint256"},{"internalType":"enum DappWorks.JobState","name":"state","type":"uint8"},{"internalType":"uint8","name":"completionPct","type":"uint8"},{"internalType":"address[]","name":"bidders","type":"address[]"}],"internalType":"struct DappWorks.JobStruct[]","name":"","type":"tuple[]"}],"stateMutability":"view","type":"function"},{"inputs":[{"internalType":"uint256","name":"","type":"uint256"},{"internalType":"address","name":"","type":"address"}],"name":"hasPlacedBid","outputs":[{"internalType":"bool","name":"","type":"bool"}],"stateMutability":"view","type":"function"},{"inputs":[{"internalType":"uint256","name":"","type":"uint256"}],"name":"jobListingExists","outputs":[{"internalType":"bool","name":"","type":"bool"}],"stateMutability":"view","type":"function"},{"inputs":[{"internalType":"uint256","name":"","type":"uint256"}],"name":"jobListings","outputs":[{"internalType":"uint256","name":"id","type":"uint256"},{"internalType":"address","name":"owner","type":"address"},{"internalType":"address","name":"freelancer","type":"address"},{"internalType":"string","name":"jobTitle","type":"string"},{"internalType":"string","name":"description","type":"string"},{"internalType":"string","name":"tags","type":"string"},{"internalType":"uint256","name":"minBudget","type":"uint256"},{"internalType":"uint256","name":"maxBudget","type":"uint256"},{"internalType":"uint256","name":"finalBudget","type":"uint256"},{"internalType":"string","name":"githubUrl","type":"string"},{"internalType":"uint256","name":"timestamp","type":"uint256"},{"internalType":"enum DappWorks.JobState","name":"state","type":"uint8"},{"internalType":"uint8","name":"completionPct","type":"uint8"}],"stateMutability":"view","type":"function"},{"inputs":[],"name":"owner","outputs":[{"internalType":"address","name":"","type":"address"}],"stateMutability":"view","type":"function"},{"inputs":[{"internalType":"uint256","name":"id","type":"uint256"}],"name":"payout","outputs":[],"stateMutability":"nonpayable","type":"function"},{"inputs":[],"name":"platformCharge","outputs":[{"internalType":"uint256","name":"","type":"uint256"}],"stateMutability":"view","type":"function"},{"inputs":[{"internalType":"uint256","name":"id","type":"uint256"}],"name":"raiseDispute","outputs":[],"stateMutability":"nonpayable","type":"function"},{"inputs":[],"name":"renounceOwnership","outputs":[],"stateMutability":"nonpayable","type":"function"},{"inputs":[{"internalType":"uint256","name":"id","type":"uint256"},{"internalType":"uint8","name":"pct","type":"uint8"}],"name":"resolveDispute","outputs":[],"stateMutability":"nonpayable","type":"function"},{"inputs":[{"internalType":"address","name":"newOwner","type":"address"}],"name":"transferOwnership","outputs":[],"stateMutability":"nonpayable","type":"function"},{"inputs":[{"internalType":"uint256","name":"id","type":"uint256"},{"internalType":"string","name":"jobTitle","type":"string"},{"internalType":"string","name":"description","type":"string"},{"internalType":"string","name":"tags","type":"string"},{"internalType":"uint256","name":"minBudget","type":"uint256"},{"internalType":"uint256","name":"maxBudget","type":"uint256"}],"name":"updateJob","outputs":[],"stateMutability":"nonpayable","type":"function"},{"inputs":[],"name":"usdt","outputs":[{"internalType":"contract IERC20","name":"","type":"address"}],"stateMutability":"view","type":"function"}],"evm":{"bytecode":{"linkReferences":{},"object":"608060405260056004553480156200001657600080fd5b5060405162004149380380620041498339810160408190526200003991620000be565b62000044336200006e565b60018055600280546001600160a01b0319166001600160a01b0392909216919091179055620000f0565b600080546001600160a01b038381166001600160a01b0319831681178455604051919092169283917f8be0079c531659141344cd1fd0a4f28419497f9722a3daafe3b4186f6b6457e09190a35050565b600060208284031215620000d157600080fd5b81516001600160a01b0381168114620000e957600080fd5b9392505050565b61404980620001006000396000f3fe608060405234801561001057600080fd5b50600436106101565760003560e01c80638b142225116100c3578063c4ff0b451161007c578063c4ff0b4514610316578063d190508f1461031e578063e115234314610331578063e55e421114610344578063f2fde38b14610357578063f9f3b63f1461036a57600080fd5b80638b142225146102a05780638da5cb5b146102b75780639b00214c146102c8578063a305dfe5146102d0578063a5c1674e146102e3578063bf22c457146102f657600080fd5b80634fa7b507116101155780634fa7b5071461020e5780636358bb8c1461022e57806368581ebd14610241578063685c6f3e146102495780636ee79cf21461026c578063715018a61461029857600080fd5b80620a106b1461015b578062ebd5fa1461019e57806302068664146101b35780632f3cddad146101c85780632f48ab7d146101d05780634117fa7e146101fb575b600080fd5b610189610169366004613708565b600860209081526000928352604080842090915290825290205460ff1681565b60405190151581526020015b60405180910390f35b6101a661037d565b6040516101959190613910565b6101c66101c1366004613708565b61082f565b005b6101a6610b08565b6002546101e3906001600160a01b031681565b6040516001600160a01b039091168152602001610195565b6101c6610209366004613972565b610fd1565b61022161021c366004613994565b611200565b60405161019591906139ad565b6101c661023c366004613994565b61129d565b6101a661140b565b610189610257366004613994565b60076020526000908152604090205460ff1681565b61027f61027a366004613994565b6118c8565b6040516101959d9c9b9a99989796959493929190613a1a565b6101c6611b5c565b6102a960045481565b604051908152602001610195565b6000546001600160a01b03166101e3565b6101a6611b70565b6101c66102de366004613b77565b612019565b6101c66102f1366004613994565b61213e565b610309610304366004613994565b6122dc565b6040516101959190613c1a565b6101a661264b565b6101c661032c366004613c34565b612ac0565b6101c661033f366004613994565b612c10565b6101c6610352366004613c7a565b612e6f565b6101c6610365366004613cb0565b613209565b6101c6610378366004613ccb565b61327f565b6060600060015b60035481116103e95760008181526007602052604090205460ff1680156103c457506000818152600560205260409020600201546001600160a01b031633145b156103d757816103d381613d7a565b9250505b806103e181613d7a565b915050610384565b506000816001600160401b0381111561040457610404613ad5565b60405190808252806020026020018201604052801561043d57816020015b61042a6135ed565b8152602001906001900390816104225790505b509050600060015b60035481116108265760008181526007602052604090205460ff16801561048557506000818152600560205260409020600201546001600160a01b031633145b156108145760008181526005602090815260409182902082516101c0810184528154815260018201546001600160a01b03908116938201939093526002820154909216928201929092526003820180549192916060840191906104e790613d93565b80601f016020809104026020016040519081016040528092919081815260200182805461051390613d93565b80156105605780601f1061053557610100808354040283529160200191610560565b820191906000526020600020905b81548152906001019060200180831161054357829003601f168201915b5050505050815260200160048201805461057990613d93565b80601f01602080910402602001604051908101604052809291908181526020018280546105a590613d93565b80156105f25780601f106105c7576101008083540402835291602001916105f2565b820191906000526020600020905b8154815290600101906020018083116105d557829003601f168201915b5050505050815260200160058201805461060b90613d93565b80601f016020809104026020016040519081016040528092919081815260200182805461063790613d93565b80156106845780601f1061065957610100808354040283529160200191610684565b820191906000526020600020905b81548152906001019060200180831161066757829003601f168201915b505050505081526020016006820154815260200160078201548152602001600882015481526020016009820180546106bb90613d93565b80601f01602080910402602001604051908101604052809291908181526020018280546106e790613d93565b80156107345780601f1061070957610100808354040283529160200191610734565b820191906000526020600020905b81548152906001019060200180831161071757829003601f168201915b5050509183525050600a8201546020820152600b82015460409091019060ff1660048111156107655761076561377a565b60048111156107765761077661377a565b8152600b820154610100900460ff16602080830191909152600c8301805460408051828502810185018252828152940193928301828280156107e157602002820191906000526020600020905b81546001600160a01b031681526001909101906020018083116107c3575b5050505050815250508383806107f690613d7a565b94508151811061080857610808613dcd565b60200260200101819052505b8061081e81613d7a565b915050610445565b50909392505050565b60008281526005602052604090206001015482906001600160a01b031633146108735760405162461bcd60e51b815260040161086a90613de3565b60405180910390fd5b60008381526007602052604090205460ff166108a15760405162461bcd60e51b815260040161086a90613e10565b6000838152600560205260408120600b015460ff1660048111156108c7576108c761377a565b146108e45760405162461bcd60e51b815260040161086a90613e47565b60008381526008602090815260408083206001600160a01b038616845290915290205460ff1661094c5760405162461bcd60e51b81526020600482015260136024820152722ab734b232b73a34b334b2b2103134b23232b960691b604482015260640161086a565b6000805b6000858152600660205260409020548110156109ff57600085815260066020526040902080546001600160a01b03861691908390811061099257610992613dcd565b60009182526020909120600260049092020101546001600160a01b0316036109ed5760008581526006602052604090208054829081106109d4576109d4613dcd565b90600052602060002090600402016003015491506109ff565b806109f781613d7a565b915050610950565b5060008111610a405760405162461bcd60e51b815260206004820152600d60248201526c109a59081b9bdd08199bdd5b99609a1b604482015260640161086a565b60008481526005602052604090206002810180546001600160a01b0319166001600160a01b03861617905560088101829055600b0180546001919060ff1916828002179055506002546040516323b872dd60e01b8152336004820152306024820152604481018390526001600160a01b03909116906323b872dd906064016020604051808303816000875af1158015610add573d6000803e3d6000fd5b505050506040513d601f19601f82011682018060405250810190610b019190613e78565b5050505050565b6060610b126134ea565b600060015b6003548111610b885760008181526007602052604090205460ff168015610b63575060036000828152600560205260409020600b015460ff166004811115610b6157610b6161377a565b145b15610b765781610b7281613d7a565b9250505b80610b8081613d7a565b915050610b17565b506000816001600160401b03811115610ba357610ba3613ad5565b604051908082528060200260200182016040528015610bdc57816020015b610bc96135ed565b815260200190600190039081610bc15790505b509050600060015b60035481116108265760008181526007602052604090205460ff168015610c30575060036000828152600560205260409020600b015460ff166004811115610c2e57610c2e61377a565b145b15610fbf5760008181526005602090815260409182902082516101c0810184528154815260018201546001600160a01b0390811693820193909352600282015490921692820192909252600382018054919291606084019190610c9290613d93565b80601f0160208091040260200160405190810160405280929190818152602001828054610cbe90613d93565b8015610d0b5780601f10610ce057610100808354040283529160200191610d0b565b820191906000526020600020905b815481529060010190602001808311610cee57829003601f168201915b50505050508152602001600482018054610d2490613d93565b80601f0160208091040260200160405190810160405280929190818152602001828054610d5090613d93565b8015610d9d5780601f10610d7257610100808354040283529160200191610d9d565b820191906000526020600020905b815481529060010190602001808311610d8057829003601f168201915b50505050508152602001600582018054610db690613d93565b80601f0160208091040260200160405190810160405280929190818152602001828054610de290613d93565b8015610e2f5780601f10610e0457610100808354040283529160200191610e2f565b820191906000526020600020905b815481529060010190602001808311610e1257829003601f168201915b50505050508152602001600682015481526020016007820154815260200160088201548152602001600982018054610e6690613d93565b80601f0160208091040260200160405190810160405280929190818152602001828054610e9290613d93565b8015610edf5780601f10610eb457610100808354040283529160200191610edf565b820191906000526020600020905b815481529060010190602001808311610ec257829003601f168201915b5050509183525050600a8201546020820152600b82015460409091019060ff166004811115610f1057610f1061377a565b6004811115610f2157610f2161377a565b8152600b820154610100900460ff16602080830191909152600c830180546040805182850281018501825282815294019392830182828015610f8c57602002820191906000526020600020905b81546001600160a01b03168152600190910190602001808311610f6e575b505050505081525050838380610fa190613d7a565b945081518110610fb357610fb3613dcd565b60200260200101819052505b80610fc981613d7a565b915050610be4565b60008281526007602052604090205460ff16610fff5760405162461bcd60e51b815260040161086a90613e10565b600082815260056020526040902060010154336001600160a01b039091160361105e5760405162461bcd60e51b8152602060048201526011602482015270466f7262696464656e20616374696f6e2160781b604482015260640161086a565b6000828152600560205260408120600b015460ff1660048111156110845761108461377a565b146110a15760405162461bcd60e51b815260040161086a90613e47565b600082815260086020908152604080832033845290915290205460ff161561110b5760405162461bcd60e51b815260206004820152601d60248201527f596f75206861766520706c6163656420612062696420616c7265616479000000604482015260640161086a565b61113f6040518060800160405280600081526020016000815260200160006001600160a01b03168152602001600081525090565b6000838152600660208181526040808420805486528583018881523387840181815260608901998a528a88526008865284882082895286528488208054600160ff1990911681179091559a885260058652938720600c018054808c0182559088528588200180546001600160a01b031990811690921790559484528154808a0183559186529290942094516004909402909401928355519482019490945590516002820180549094166001600160a01b039091161790925551600390910155565b606060066000838152602001908152602001600020805480602002602001604051908101604052809291908181526020016000905b828210156112925760008481526020908190206040805160808101825260048602909201805483526001808201548486015260028201546001600160a01b0316928401929092526003015460608301529083529092019101611235565b505050509050919050565b60008181526005602052604090206001015481906001600160a01b031633146112d85760405162461bcd60e51b815260040161086a90613de3565b60008281526007602052604090205460ff166113065760405162461bcd60e51b815260040161086a90613e10565b6000828152600560205260408120600b015460ff16600481111561132c5761132c61377a565b146113495760405162461bcd60e51b815260040161086a90613e47565b60008281526005602052604081208181556001810180546001600160a01b0319908116909155600282018054909116905590611388600383018261367f565b61139660048301600061367f565b6113a460058301600061367f565b6006820160009055600782016000905560088201600090556009820160006113cc919061367f565b6000600a8301819055600b8301805461ffff191690556113f090600c8401906136b9565b5050506000908152600760205260409020805460ff19169055565b6060600060015b60035481116114815760008181526007602052604090205460ff16801561145c57506000818152600560205260408120600b015460ff16600481111561145a5761145a61377a565b145b1561146f578161146b81613d7a565b9250505b8061147981613d7a565b915050611412565b506000816001600160401b0381111561149c5761149c613ad5565b6040519080825280602002602001820160405280156114d557816020015b6114c26135ed565b8152602001906001900390816114ba5790505b509050600060015b60035481116108265760008181526007602052604090205460ff16801561152757506000818152600560205260408120600b015460ff1660048111156115255761152561377a565b145b156118b65760008181526005602090815260409182902082516101c0810184528154815260018201546001600160a01b039081169382019390935260028201549092169282019290925260038201805491929160608401919061158990613d93565b80601f01602080910402602001604051908101604052809291908181526020018280546115b590613d93565b80156116025780601f106115d757610100808354040283529160200191611602565b820191906000526020600020905b8154815290600101906020018083116115e557829003601f168201915b5050505050815260200160048201805461161b90613d93565b80601f016020809104026020016040519081016040528092919081815260200182805461164790613d93565b80156116945780601f1061166957610100808354040283529160200191611694565b820191906000526020600020905b81548152906001019060200180831161167757829003601f168201915b505050505081526020016005820180546116ad90613d93565b80601f01602080910402602001604051908101604052809291908181526020018280546116d990613d93565b80156117265780601f106116fb57610100808354040283529160200191611726565b820191906000526020600020905b81548152906001019060200180831161170957829003601f168201915b5050505050815260200160068201548152602001600782015481526020016008820154815260200160098201805461175d90613d93565b80601f016020809104026020016040519081016040528092919081815260200182805461178990613d93565b80156117d65780601f106117ab576101008083540402835291602001916117d6565b820191906000526020600020905b8154815290600101906020018083116117b957829003601f168201915b5050509183525050600a8201546020820152600b82015460409091019060ff1660048111156118075761180761377a565b60048111156118185761181861377a565b8152600b820154610100900460ff16602080830191909152600c83018054604080518285028101850182528281529401939283018282801561188357602002820191906000526020600020905b81546001600160a01b03168152600190910190602001808311611865575b50505050508152505083838061189890613d7a565b9450815181106118aa576118aa613dcd565b60200260200101819052505b806118c081613d7a565b9150506114dd565b600560205260009081526040902080546001820154600283015460038401805493946001600160a01b0393841694939092169261190490613d93565b80601f016020809104026020016040519081016040528092919081815260200182805461193090613d93565b801561197d5780601f106119525761010080835404028352916020019161197d565b820191906000526020600020905b81548152906001019060200180831161196057829003601f168201915b50505050509080600401805461199290613d93565b80601f01602080910402602001604051908101604052809291908181526020018280546119be90613d93565b8015611a0b5780601f106119e057610100808354040283529160200191611a0b565b820191906000526020600020905b8154815290600101906020018083116119ee57829003601f168201915b505050505090806005018054611a2090613d93565b80601f0160208091040260200160405190810160405280929190818152602001828054611a4c90613d93565b8015611a995780601f10611a6e57610100808354040283529160200191611a99565b820191906000526020600020905b815481529060010190602001808311611a7c57829003601f168201915b505050505090806006015490806007015490806008015490806009018054611ac090613d93565b80601f0160208091040260200160405190810160405280929190818152602001828054611aec90613d93565b8015611b395780601f10611b0e57610100808354040283529160200191611b39565b820191906000526020600020905b815481529060010190602001808311611b1c57829003601f168201915b50505050600a830154600b9093015491929160ff8082169250610100909104168d565b611b646134ea565b611b6e6000613544565b565b6060600060015b6003548111611bdc5760008181526007602052604090205460ff168015611bb757506000818152600560205260409020600101546001600160a01b031633145b15611bca5781611bc681613d7a565b9250505b80611bd481613d7a565b915050611b77565b506000816001600160401b03811115611bf757611bf7613ad5565b604051908082528060200260200182016040528015611c3057816020015b611c1d6135ed565b815260200190600190039081611c155790505b509050600060015b60035481116108265760008181526007602052604090205460ff168015611c7857506000818152600560205260409020600101546001600160a01b031633145b156120075760008181526005602090815260409182902082516101c0810184528154815260018201546001600160a01b0390811693820193909352600282015490921692820192909252600382018054919291606084019190611cda90613d93565b80601f0160208091040260200160405190810160405280929190818152602001828054611d0690613d93565b8015611d535780601f10611d2857610100808354040283529160200191611d53565b820191906000526020600020905b815481529060010190602001808311611d3657829003601f168201915b50505050508152602001600482018054611d6c90613d93565b80601f0160208091040260200160405190810160405280929190818152602001828054611d9890613d93565b8015611de55780601f10611dba57610100808354040283529160200191611de5565b820191906000526020600020905b815481529060010190602001808311611dc857829003601f168201915b50505050508152602001600582018054611dfe90613d93565b80601f0160208091040260200160405190810160405280929190818152602001828054611e2a90613d93565b8015611e775780601f10611e4c57610100808354040283529160200191611e77565b820191906000526020600020905b815481529060010190602001808311611e5a57829003601f168201915b50505050508152602001600682015481526020016007820154815260200160088201548152602001600982018054611eae90613d93565b80601f0160208091040260200160405190810160405280929190818152602001828054611eda90613d93565b8015611f275780601f10611efc57610100808354040283529160200191611f27565b820191906000526020600020905b815481529060010190602001808311611f0a57829003601f168201915b5050509183525050600a8201546020820152600b82015460409091019060ff166004811115611f5857611f5861377a565b6004811115611f6957611f6961377a565b8152600b820154610100900460ff16602080830191909152600c830180546040805182850281018501825282815294019392830182828015611fd457602002820191906000526020600020905b81546001600160a01b03168152600190910190602001808311611fb6575b505050505081525050838380611fe990613d7a565b945081518110611ffb57611ffb613dcd565b60200260200101819052505b8061201181613d7a565b915050611c38565b60008681526005602052604090206001015486906001600160a01b031633146120545760405162461bcd60e51b815260040161086a90613de3565b60008781526007602052604090205460ff166120825760405162461bcd60e51b815260040161086a90613e10565b6000878152600560205260408120600b015460ff1660048111156120a8576120a861377a565b146120c55760405162461bcd60e51b815260040161086a90613e47565b60008781526005602052604090206003016120e08782613ee9565b5060008781526005602052604090206004016120fc8682613ee9565b506000878152600560208190526040909120016121198582613ee9565b5050600095865260056020526040909520600681019190915560070193909355505050565b60008181526005602052604090206001015481906001600160a01b031633148061218157506000818152600560205260409020600201546001600160a01b031633145b6121de5760405162461bcd60e51b815260206004820152602860248201527f4f6e6c79206a6f6220706172746965732063616e20706572666f726d20746869604482015267399030b1ba34b7b760c11b606482015260840161086a565b60008281526007602052604090205460ff1661220c5760405162461bcd60e51b815260040161086a90613e10565b60026000838152600560205260409020600b015460ff1660048111156122345761223461377a565b146122925760405162461bcd60e51b815260206004820152602860248201527f4a6f62206d75737420626520636f6d706c6574656420746f2072616973652061604482015267206469737075746560c01b606482015260840161086a565b600082815260056020526040808220600b01805460ff1916600317905551339184917f84a477df8a28a4276ca6dee4458a06c3015f30c477d9c949ede4e13ff8a552b49190a35050565b6122e46135ed565b60008281526005602090815260409182902082516101c0810184528154815260018201546001600160a01b039081169382019390935260028201549092169282019290925260038201805491929160608401919061234190613d93565b80601f016020809104026020016040519081016040528092919081815260200182805461236d90613d93565b80156123ba5780601f1061238f576101008083540402835291602001916123ba565b820191906000526020600020905b81548152906001019060200180831161239d57829003601f168201915b505050505081526020016004820180546123d390613d93565b80601f01602080910402602001604051908101604052809291908181526020018280546123ff90613d93565b801561244c5780601f106124215761010080835404028352916020019161244c565b820191906000526020600020905b81548152906001019060200180831161242f57829003601f168201915b5050505050815260200160058201805461246590613d93565b80601f016020809104026020016040519081016040528092919081815260200182805461249190613d93565b80156124de5780601f106124b3576101008083540402835291602001916124de565b820191906000526020600020905b8154815290600101906020018083116124c157829003601f168201915b5050505050815260200160068201548152602001600782015481526020016008820154815260200160098201805461251590613d93565b80601f016020809104026020016040519081016040528092919081815260200182805461254190613d93565b801561258e5780601f106125635761010080835404028352916020019161258e565b820191906000526020600020905b81548152906001019060200180831161257157829003601f168201915b5050509183525050600a8201546020820152600b82015460409091019060ff1660048111156125bf576125bf61377a565b60048111156125d0576125d061377a565b8152600b820154610100900460ff16602080830191909152600c83018054604080518285028101850182528281529401939283018282801561263b57602002820191906000526020600020905b81546001600160a01b0316815260019091019060200180831161261d575b5050505050815250509050919050565b6060600060015b600354811161269d57600081815260086020908152604080832033845290915290205460ff161561268b578161268781613d7a565b9250505b8061269581613d7a565b915050612652565b506000816001600160401b038111156126b8576126b8613ad5565b6040519080825280602002602001820160405280156126f157816020015b6126de6135ed565b8152602001906001900390816126d65790505b509050600060015b600354811161082657600081815260086020908152604080832033845290915290205460ff1615612aae5760008181526005602090815260409182902082516101c0810184528154815260018201546001600160a01b039081169382019390935260028201549092169282019290925260038201805491929160608401919061278190613d93565b80601f01602080910402602001604051908101604052809291908181526020018280546127ad90613d93565b80156127fa5780601f106127cf576101008083540402835291602001916127fa565b820191906000526020600020905b8154815290600101906020018083116127dd57829003601f168201915b5050505050815260200160048201805461281390613d93565b80601f016020809104026020016040519081016040528092919081815260200182805461283f90613d93565b801561288c5780601f106128615761010080835404028352916020019161288c565b820191906000526020600020905b81548152906001019060200180831161286f57829003601f168201915b505050505081526020016005820180546128a590613d93565b80601f01602080910402602001604051908101604052809291908181526020018280546128d190613d93565b801561291e5780601f106128f35761010080835404028352916020019161291e565b820191906000526020600020905b81548152906001019060200180831161290157829003601f168201915b5050505050815260200160068201548152602001600782015481526020016008820154815260200160098201805461295590613d93565b80601f016020809104026020016040519081016040528092919081815260200182805461298190613d93565b80156129ce5780601f106129a3576101008083540402835291602001916129ce565b820191906000526020600020905b8154815290600101906020018083116129b157829003601f168201915b5050509183525050600a8201546020820152600b82015460409091019060ff1660048111156129ff576129ff61377a565b6004811115612a1057612a1061377a565b8152600b820154610100900460ff16602080830191909152600c830180546040805182850281018501825282815294019392830182828015612a7b57602002820191906000526020600020905b81546001600160a01b03168152600190910190602001808311612a5d575b505050505081525050838380612a9090613d7a565b945081518110612aa257612aa2613dcd565b60200260200101819052505b80612ab881613d7a565b9150506126f9565b60008281526005602052604090206002015482906001600160a01b03163314612b3b5760405162461bcd60e51b815260206004820152602760248201527f4f6e6c7920667265656c616e6365722063616e20706572666f726d20746869736044820152661030b1ba34b7b760c91b606482015260840161086a565b60008381526007602052604090205460ff16612b695760405162461bcd60e51b815260040161086a90613e10565b60016000848152600560205260409020600b015460ff166004811115612b9157612b9161377a565b14612bd45760405162461bcd60e51b81526020600482015260136024820152724a6f62206e6f7420696e2070726f677265737360681b604482015260640161086a565b6000838152600560205260409020600901612bef8382613ee9565b5050506000908152600560205260409020600b01805460ff19166002179055565b612c18613594565b60008181526005602052604090206001015481906001600160a01b03163314612c535760405162461bcd60e51b815260040161086a90613de3565b60008281526007602052604090205460ff16612c815760405162461bcd60e51b815260040161086a90613e10565b60026000838152600560205260409020600b015460ff166004811115612ca957612ca961377a565b14612cf65760405162461bcd60e51b815260206004820181905260248201527f4a6f62206e6f7420636f6d706c65746564206f72206973206469737075746564604482015260640161086a565b600082815260056020526040812060080154600454909190606490612d1b9084613fa8565b612d259190613fc5565b90506000612d338284613fe7565b600280546000888152600560205260409081902090920154915163a9059cbb60e01b81529293506001600160a01b039081169263a9059cbb92612d7c9216908590600401613ffa565b6020604051808303816000875af1158015612d9b573d6000803e3d6000fd5b505050506040513d601f19601f82011682018060405250810190612dbf9190613e78565b506002546001600160a01b031663a9059cbb612de36000546001600160a01b031690565b846040518363ffffffff1660e01b8152600401612e01929190613ffa565b6020604051808303816000875af1158015612e20573d6000803e3d6000fd5b505050506040513d601f19601f82011682018060405250810190612e449190613e78565b5050506000838152600560205260409020600b01805460ff1916600417905550506001805550565b50565b612e77613594565b612e7f6134ea565b60008281526007602052604090205460ff16612ead5760405162461bcd60e51b815260040161086a90613e10565b60036000838152600560205260409020600b015460ff166004811115612ed557612ed561377a565b14612f1a5760405162461bcd60e51b81526020600482015260156024820152744a6f62206973206e6f7420696e206469737075746560581b604482015260640161086a565b60648160ff161115612f7a5760405162461bcd60e51b8152602060048201526024808201527f50657263656e74616765206d757374206265206265747765656e203020616e646044820152630203130360e41b606482015260840161086a565b6000828152600560205260408120600b8101805461ff00191661010060ff86160217905560080154600454909190606490612fb59084613fa8565b612fbf9190613fc5565b90506000612fcd8284613fe7565b905060006064612fe060ff871684613fa8565b612fea9190613fc5565b90506000612ff88284613fe7565b9050811561308c57600280546000898152600560205260409081902090920154915163a9059cbb60e01b81526001600160a01b039182169263a9059cbb92613047929116908690600401613ffa565b6020604051808303816000875af1158015613066573d6000803e3d6000fd5b505050506040513d601f19601f8201168201806040525081019061308a9190613e78565b505b801561311d576002546000888152600560205260409081902060010154905163a9059cbb60e01b81526001600160a01b039283169263a9059cbb926130d8929116908590600401613ffa565b6020604051808303816000875af11580156130f7573d6000803e3d6000fd5b505050506040513d601f19601f8201168201806040525081019061311b9190613e78565b505b6002546001600160a01b031663a9059cbb6131406000546001600160a01b031690565b866040518363ffffffff1660e01b815260040161315e929190613ffa565b6020604051808303816000875af115801561317d573d6000803e3d6000fd5b505050506040513d601f19601f820116820180604052508101906131a19190613e78565b50600087815260056020908152604091829020600b01805460ff19166004179055905160ff8816815288917f2ffcfee146bc0d5ff304c6b65111a0d485af9456dc64eee7d66ebdcc90b223ea910160405180910390a2505050505061320560018055565b5050565b6132116134ea565b6001600160a01b0381166132765760405162461bcd60e51b815260206004820152602660248201527f4f776e61626c653a206e6577206f776e657220697320746865207a65726f206160448201526564647265737360d01b606482015260840161086a565b612e6c81613544565b60008551116132d05760405162461bcd60e51b815260206004820152601a60248201527f506c656173652070726f766964652061206a6f62207469746c65000000000000604482015260640161086a565b60008451116133215760405162461bcd60e51b815260206004820152601c60248201527f506c656173652070726f766964652061206465736372697074696f6e00000000604482015260640161086a565b60008351116133685760405162461bcd60e51b8152602060048201526013602482015272506c656173652070726f76696465207461677360681b604482015260640161086a565b600082116133c25760405162461bcd60e51b815260206004820152602160248201527f4d696e20627564676574206d7573742062652067726561746572207468616e206044820152600360fc1b606482015260840161086a565b818110156134315760405162461bcd60e51b815260206004820152603660248201527f4d617820627564676574206d7573742062652067726561746572207468616e206044820152751bdc88195c5d585b081d1bc81b5a5b88189d5919d95d60521b606482015260840161086a565b61343f600380546001019055565b600061344a60035490565b60008181526005602052604090208181556001810180546001600160a01b03191633179055909150600381016134808882613ee9565b506004810161348f8782613ee9565b506005810161349e8682613ee9565b506006810184905560078101839055600b810180546000919060ff1916600183021790555042600a909101556000908152600760205260409020805460ff191660011790555050505050565b6000546001600160a01b03163314611b6e5760405162461bcd60e51b815260206004820181905260248201527f4f776e61626c653a2063616c6c6572206973206e6f7420746865206f776e6572604482015260640161086a565b600080546001600160a01b038381166001600160a01b0319831681178455604051919092169283917f8be0079c531659141344cd1fd0a4f28419497f9722a3daafe3b4186f6b6457e09190a35050565b6002600154036135e65760405162461bcd60e51b815260206004820152601f60248201527f5265656e7472616e637947756172643a207265656e7472616e742063616c6c00604482015260640161086a565b6002600155565b604051806101c001604052806000815260200160006001600160a01b0316815260200160006001600160a01b0316815260200160608152602001606081526020016060815260200160008152602001600081526020016000815260200160608152602001600081526020016000600481111561366b5761366b61377a565b815260006020820152606060409091015290565b50805461368b90613d93565b6000825580601f1061369b575050565b601f016020900490600052602060002090810190612e6c91906136d3565b5080546000825590600052602060002090810190612e6c91905b5b808211156136e857600081556001016136d4565b5090565b80356001600160a01b038116811461370357600080fd5b919050565b6000806040838503121561371b57600080fd5b8235915061372b602084016136ec565b90509250929050565b6000815180845260005b8181101561375a5760208185018101518683018201520161373e565b506000602082860101526020601f19601f83011685010191505092915050565b634e487b7160e01b600052602160045260246000fd5b600581106137ae57634e487b7160e01b600052602160045260246000fd5b9052565b600081518084526020808501945080840160005b838110156137eb5781516001600160a01b0316875295820195908201906001016137c6565b509495945050505050565b60006101c082518452602083015161381960208601826001600160a01b03169052565b50604083015161383460408601826001600160a01b03169052565b50606083015181606086015261384c82860182613734565b915050608083015184820360808601526138668282613734565b91505060a083015184820360a08601526138808282613734565b91505060c083015160c085015260e083015160e085015261010080840151818601525061012080840151858303828701526138bb8382613734565b92505050610140808401518186015250610160808401516138de82870182613790565b50506101808381015160ff16908501526101a0808401518583038287015261390683826137b2565b9695505050505050565b6000602080830181845280855180835260408601915060408160051b870101925083870160005b8281101561396557603f198886030184526139538583516137f6565b94509285019290850190600101613937565b5092979650505050505050565b6000806040838503121561398557600080fd5b50508035926020909101359150565b6000602082840312156139a657600080fd5b5035919050565b602080825282518282018190526000919060409081850190868401855b82811015613a0d578151805185528681015187860152858101516001600160a01b03168686015260609081015190850152608090930192908501906001016139ca565b5091979650505050505050565b8d81526001600160a01b038d1660208201526001600160a01b038c1660408201526101a060608201526000613a536101a083018d613734565b8281036080840152613a65818d613734565b905082810360a0840152613a79818c613734565b90508960c08401528860e084015287610100840152828103610120840152613aa18188613734565b91505084610140830152613ab9610160830185613790565b60ff83166101808301529e9d5050505050505050505050505050565b634e487b7160e01b600052604160045260246000fd5b600082601f830112613afc57600080fd5b81356001600160401b0380821115613b1657613b16613ad5565b604051601f8301601f19908116603f01168101908282118183101715613b3e57613b3e613ad5565b81604052838152866020858801011115613b5757600080fd5b836020870160208301376000602085830101528094505050505092915050565b60008060008060008060c08789031215613b9057600080fd5b8635955060208701356001600160401b0380821115613bae57600080fd5b613bba8a838b01613aeb565b96506040890135915080821115613bd057600080fd5b613bdc8a838b01613aeb565b95506060890135915080821115613bf257600080fd5b50613bff89828a01613aeb565b9350506080870135915060a087013590509295509295509295565b602081526000613c2d60208301846137f6565b9392505050565b60008060408385031215613c4757600080fd5b8235915060208301356001600160401b03811115613c6457600080fd5b613c7085828601613aeb565b9150509250929050565b60008060408385031215613c8d57600080fd5b82359150602083013560ff81168114613ca557600080fd5b809150509250929050565b600060208284031215613cc257600080fd5b613c2d826136ec565b600080600080600060a08688031215613ce357600080fd5b85356001600160401b0380821115613cfa57600080fd5b613d0689838a01613aeb565b96506020880135915080821115613d1c57600080fd5b613d2889838a01613aeb565b95506040880135915080821115613d3e57600080fd5b50613d4b88828901613aeb565b9598949750949560608101359550608001359392505050565b634e487b7160e01b600052601160045260246000fd5b600060018201613d8c57613d8c613d64565b5060010190565b600181811c90821680613da757607f821691505b602082108103613dc757634e487b7160e01b600052602260045260246000fd5b50919050565b634e487b7160e01b600052603260045260246000fd5b602080825260139082015272556e617574686f72697a656420656e7469747960681b604082015260600190565b6020808252601e908201527f54686973206a6f62206c697374696e6720646f65736e27742065786973740000604082015260600190565b6020808252601790820152762a3434b9903537b1103430b9903132b2b7103a30b5b2b760491b604082015260600190565b600060208284031215613e8a57600080fd5b81518015158114613c2d57600080fd5b601f821115613ee457600081815260208120601f850160051c81016020861015613ec15750805b601f850160051c820191505b81811015613ee057828155600101613ecd565b5050505b505050565b81516001600160401b03811115613f0257613f02613ad5565b613f1681613f108454613d93565b84613e9a565b602080601f831160018114613f4b5760008415613f335750858301515b600019600386901b1c1916600185901b178555613ee0565b600085815260208120601f198616915b82811015613f7a57888601518255948401946001909101908401613f5b565b5085821015613f985787850151600019600388901b60f8161c191681555b5050505050600190811b01905550565b8082028115828204841417613fbf57613fbf613d64565b92915050565b600082613fe257634e487b7160e01b600052601260045260246000fd5b500490565b81810381811115613fbf57613fbf613d64565b6001600160a01b0392909216825260208201526040019056fea2646970667358221220d27b6904d9e0166488ee939790a9af37a89f1b31153d424bc4c8f86e4cad991f64736f6c63430008120033","opcodes":"PUSH1 0x80 PUSH1 0x40 MSTORE PUSH1 0x5 PUSH1 0x4 SSTORE CALLVALUE DUP1 ISZERO PUSH3 0x16 JUMPI PUSH1 0x0 DUP1 REVERT JUMPDEST POP PUSH1 0x40 MLOAD PUSH3 0x4149 CODESIZE SUB DUP1 PUSH3 0x4149 DUP4 CODECOPY DUP2 ADD PUSH1 0x40 DUP2 SWAP1 MSTORE PUSH3 0x39 SWAP2 PUSH3 0xBE JUMP JUMPDEST PUSH3 0x44 CALLER PUSH3 0x6E JUMP JUMPDEST PUSH1 0x1 DUP1 SSTORE PUSH1 0x2 DUP1 SLOAD PUSH1 0x1 PUSH1 0x1 PUSH1 0xA0 SHL SUB NOT AND PUSH1 0x1 PUSH1 0x1 PUSH1 0xA0 SHL SUB SWAP3 SWAP1 SWAP3 AND SWAP2 SWAP1 SWAP2 OR SWAP1 SSTORE PUSH3 0xF0 JUMP JUMPDEST PUSH1 0x0 DUP1 SLOAD PUSH1 0x1 PUSH1 0x1 PUSH1 0xA0 SHL SUB DUP4 DUP2 AND PUSH1 0x1 PUSH1 0x1 PUSH1 0xA0 SHL SUB NOT DUP4 AND DUP2 OR DUP5 SSTORE PUSH1 0x40 MLOAD SWAP2 SWAP1 SWAP3 AND SWAP3 DUP4 SWAP2 PUSH32 0x8BE0079C531659141344CD1FD0A4F28419497F9722A3DAAFE3B4186F6B6457E0 SWAP2 SWAP1 LOG3 POP POP JUMP JUMPDEST PUSH1 0x0 PUSH1 0x20 DUP3 DUP5 SUB SLT ISZERO PUSH3 0xD1 JUMPI PUSH1 0x0 DUP1 REVERT JUMPDEST DUP2 MLOAD PUSH1 0x1 PUSH1 0x1 PUSH1 0xA0 SHL SUB DUP2 AND DUP2 EQ PUSH3 0xE9 JUMPI PUSH1 0x0 DUP1 REVERT JUMPDEST SWAP4 SWAP3 POP POP POP JUMP JUMPDEST PUSH2 0x4049 DUP1 PUSH3 0x100 PUSH1 0x0 CODECOPY PUSH1 0x0 RETURN INVALID PUSH1 0x80 PUSH1 0x40 MSTORE CALLVALUE DUP1 ISZERO PUSH2 0x10 JUMPI PUSH1 0x0 DUP1 REVERT JUMPDEST POP PUSH1 0x4 CALLDATASIZE LT PUSH2 0x156 JUMPI PUSH1 0x0 CALLDATALOAD PUSH1 0xE0 SHR DUP1 PUSH4 0x8B142225 GT PUSH2 0xC3 JUMPI DUP1 PUSH4 0xC4FF0B45 GT PUSH2 0x7C JUMPI DUP1 PUSH4 0xC4FF0B45 EQ PUSH2 0x316 JUMPI DUP1 PUSH4 0xD190508F EQ PUSH2 0x31E JUMPI DUP1 PUSH4 0xE1152343 EQ PUSH2 0x331 JUMPI DUP1 PUSH4 0xE55E4211 EQ PUSH2 0x344 JUMPI DUP1 PUSH4 0xF2FDE38B EQ PUSH2 0x357 JUMPI DUP1 PUSH4 0xF9F3B63F EQ PUSH2 0x36A JUMPI PUSH1 0x0 DUP1 REVERT JUMPDEST DUP1 PUSH4 0x8B142225 EQ PUSH2 0x2A0 JUMPI DUP1 PUSH4 0x8DA5CB5B EQ PUSH2 0x2B7 JUMPI DUP1 PUSH4 0x9B00214C EQ PUSH2 0x2C8 JUMPI DUP1 PUSH4 0xA305DFE5 EQ PUSH2 0x2D0 JUMPI DUP1 PUSH4 0xA5C1674E EQ PUSH2 0x2E3 JUMPI DUP1 PUSH4 0xBF22C457 EQ PUSH2 0x2F6 JUMPI PUSH1 0x0 DUP1 REVERT JUMPDEST DUP1 PUSH4 0x4FA7B507 GT PUSH2 0x115 JUMPI DUP1 PUSH4 0x4FA7B507 EQ PUSH2 0x20E JUMPI DUP1 PUSH4 0x6358BB8C EQ PUSH2 0x22E JUMPI DUP1 PUSH4 0x68581EBD EQ PUSH2 0x241 JUMPI DUP1 PUSH4 0x685C6F3E EQ PUSH2 0x249 JUMPI DUP1 PUSH4 0x6EE79CF2 EQ PUSH2 0x26C JUMPI DUP1 PUSH4 0x715018A6 EQ PUSH2 0x298 JUMPI PUSH1 0x0 DUP1 REVERT JUMPDEST DUP1 PUSH3 0xA106B EQ PUSH2 0x15B JUMPI DUP1 PUSH3 0xEBD5FA EQ PUSH2 0x19E JUMPI DUP1 PUSH4 0x2068664 EQ PUSH2 0x1B3 JUMPI DUP1 PUSH4 0x2F3CDDAD EQ PUSH2 0x1C8 JUMPI DUP1 PUSH4 0x2F48AB7D EQ PUSH2 0x1D0 JUMPI DUP1 PUSH4 0x4117FA7E EQ PUSH2 0x1FB JUMPI JUMPDEST PUSH1 0x0 DUP1 REVERT JUMPDEST PUSH2 0x189 PUSH2 0x169 CALLDATASIZE PUSH1 0x4 PUSH2 0x3708 JUMP JUMPDEST PUSH1 0x8 PUSH1 0x20 SWAP1 DUP2 MSTORE PUSH1 0x0 SWAP3 DUP4 MSTORE PUSH1 0x40 DUP1 DUP5 KECCAK256 SWAP1 SWAP2 MSTORE SWAP1 DUP3 MSTORE SWAP1 KECCAK256 SLOAD PUSH1 0xFF AND DUP2 JUMP JUMPDEST PUSH1 0x40 MLOAD SWAP1 ISZERO ISZERO DUP2 MSTORE PUSH1 0x20 ADD JUMPDEST PUSH1 0x40 MLOAD DUP1 SWAP2 SUB SWAP1 RETURN JUMPDEST PUSH2 0x1A6 PUSH2 0x37D JUMP JUMPDEST PUSH1 0x40 MLOAD PUSH2 0x195 SWAP2 SWAP1 PUSH2 0x3910 JUMP JUMPDEST PUSH2 0x1C6 PUSH2 0x1C1 CALLDATASIZE PUSH1 0x4 PUSH2 0x3708 JUMP JUMPDEST PUSH2 0x82F JUMP JUMPDEST STOP JUMPDEST PUSH2 0x1A6 PUSH2 0xB08 JUMP JUMPDEST PUSH1 0x2 SLOAD PUSH2 0x1E3 SWAP1 PUSH1 0x1 PUSH1 0x1 PUSH1 0xA0 SHL SUB AND DUP2 JUMP JUMPDEST PUSH1 0x40 MLOAD PUSH1 0x1 PUSH1 0x1 PUSH1 0xA0 SHL SUB SWAP1 SWAP2 AND DUP2 MSTORE PUSH1 0x20 ADD PUSH2 0x195 JUMP JUMPDEST PUSH2 0x1C6 PUSH2 0x209 CALLDATASIZE PUSH1 0x4 PUSH2 0x3972 JUMP JUMPDEST PUSH2 0xFD1 JUMP JUMPDEST PUSH2 0x221 PUSH2 0x21C CALLDATASIZE PUSH1 0x4 PUSH2 0x3994 JUMP JUMPDEST PUSH2 0x1200 JUMP JUMPDEST PUSH1 0x40 MLOAD PUSH2 0x195 SWAP2 SWAP1 PUSH2 0x39AD JUMP JUMPDEST PUSH2 0x1C6 PUSH2 0x23C CALLDATASIZE PUSH1 0x4 PUSH2 0x3994 JUMP JUMPDEST PUSH2 0x129D JUMP JUMPDEST PUSH2 0x1A6 PUSH2 0x140B JUMP JUMPDEST PUSH2 0x189 PUSH2 0x257 CALLDATASIZE PUSH1 0x4 PUSH2 0x3994 JUMP JUMPDEST PUSH1 0x7 PUSH1 0x20 MSTORE PUSH1 0x0 SWAP1 DUP2 MSTORE PUSH1 0x40 SWAP1 KECCAK256 SLOAD PUSH1 0xFF AND DUP2 JUMP JUMPDEST PUSH2 0x27F PUSH2 0x27A CALLDATASIZE PUSH1 0x4 PUSH2 0x3994 JUMP JUMPDEST PUSH2 0x18C8 JUMP JUMPDEST PUSH1 0x40 MLOAD PUSH2 0x195 SWAP14 SWAP13 SWAP12 SWAP11 SWAP10 SWAP9 SWAP8 SWAP7 SWAP6 SWAP5 SWAP4 SWAP3 SWAP2 SWAP1 PUSH2 0x3A1A JUMP JUMPDEST PUSH2 0x1C6 PUSH2 0x1B5C JUMP JUMPDEST PUSH2 0x2A9 PUSH1 0x4 SLOAD DUP2 JUMP JUMPDEST PUSH1 0x40 MLOAD SWAP1 DUP2 MSTORE PUSH1 0x20 ADD PUSH2 0x195 JUMP JUMPDEST PUSH1 0x0 SLOAD PUSH1 0x1 PUSH1 0x1 PUSH1 0xA0 SHL SUB AND PUSH2 0x1E3 JUMP JUMPDEST PUSH2 0x1A6 PUSH2 0x1B70 JUMP JUMPDEST PUSH2 0x1C6 PUSH2 0x2DE CALLDATASIZE PUSH1 0x4 PUSH2 0x3B77 JUMP JUMPDEST PUSH2 0x2019 JUMP JUMPDEST PUSH2 0x1C6 PUSH2 0x2F1 CALLDATASIZE PUSH1 0x4 PUSH2 0x3994 JUMP JUMPDEST PUSH2 0x213E JUMP JUMPDEST PUSH2 0x309 PUSH2 0x304 CALLDATASIZE PUSH1 0x4 PUSH2 0x3994 JUMP JUMPDEST PUSH2 0x22DC JUMP JUMPDEST PUSH1 0x40 MLOAD PUSH2 0x195 SWAP2 SWAP1 PUSH2 0x3C1A JUMP JUMPDEST PUSH2 0x1A6 PUSH2 0x264B JUMP JUMPDEST PUSH2 0x1C6 PUSH2 0x32C CALLDATASIZE PUSH1 0x4 PUSH2 0x3C34 JUMP JUMPDEST PUSH2 0x2AC0 JUMP JUMPDEST PUSH2 0x1C6 PUSH2 0x33F CALLDATASIZE PUSH1 0x4 PUSH2 0x3994 JUMP JUMPDEST PUSH2 0x2C10 JUMP JUMPDEST PUSH2 0x1C6 PUSH2 0x352 CALLDATASIZE PUSH1 0x4 PUSH2 0x3C7A JUMP JUMPDEST PUSH2 0x2E6F JUMP JUMPDEST PUSH2 0x1C6 PUSH2 0x365 CALLDATASIZE PUSH1 0x4 PUSH2 0x3CB0 JUMP JUMPDEST PUSH2 0x3209 JUMP JUMPDEST PUSH2 0x1C6 PUSH2 0x378 CALLDATASIZE PUSH1 0x4 PUSH2 0x3CCB JUMP JUMPDEST PUSH2 0x327F JUMP JUMPDEST PUSH1 0x60 PUSH1 0x0 PUSH1 0x1 JUMPDEST PUSH1 0x3 SLOAD DUP2 GT PUSH2 0x3E9 JUMPI PUSH1 0x0 DUP2 DUP2 MSTORE PUSH1 0x7 PUSH1 0x20 MSTORE PUSH1 0x40 SWAP1 KECCAK256 SLOAD PUSH1 0xFF AND DUP1 ISZERO PUSH2 0x3C4 JUMPI POP PUSH1 0x0 DUP2 DUP2 MSTORE PUSH1 0x5 PUSH1 0x20 MSTORE PUSH1 0x40 SWAP1 KECCAK256 PUSH1 0x2 ADD SLOAD PUSH1 0x1 PUSH1 0x1 PUSH1 0xA0 SHL SUB AND CALLER EQ JUMPDEST ISZERO PUSH2 0x3D7 JUMPI DUP2 PUSH2 0x3D3 DUP2 PUSH2 0x3D7A JUMP JUMPDEST SWAP3 POP POP JUMPDEST DUP1 PUSH2 0x3E1 DUP2 PUSH2 0x3D7A JUMP JUMPDEST SWAP2 POP POP PUSH2 0x384 JUMP JUMPDEST POP PUSH1 0x0 DUP2 PUSH1 0x1 PUSH1 0x1 PUSH1 0x40 SHL SUB DUP2 GT ISZERO PUSH2 0x404 JUMPI PUSH2 0x404 PUSH2 0x3AD5 JUMP JUMPDEST PUSH1 0x40 MLOAD SWAP1 DUP1 DUP3 MSTORE DUP1 PUSH1 0x20 MUL PUSH1 0x20 ADD DUP3 ADD PUSH1 0x40 MSTORE DUP1 ISZERO PUSH2 0x43D JUMPI DUP2 PUSH1 0x20 ADD JUMPDEST PUSH2 0x42A PUSH2 0x35ED JUMP JUMPDEST DUP2 MSTORE PUSH1 0x20 ADD SWAP1 PUSH1 0x1 SWAP1 SUB SWAP1 DUP2 PUSH2 0x422 JUMPI SWAP1 POP JUMPDEST POP SWAP1 POP PUSH1 0x0 PUSH1 0x1 JUMPDEST PUSH1 0x3 SLOAD DUP2 GT PUSH2 0x826 JUMPI PUSH1 0x0 DUP2 DUP2 MSTORE PUSH1 0x7 PUSH1 0x20 MSTORE PUSH1 0x40 SWAP1 KECCAK256 SLOAD PUSH1 0xFF AND DUP1 ISZERO PUSH2 0x485 JUMPI POP PUSH1 0x0 DUP2 DUP2 MSTORE PUSH1 0x5 PUSH1 0x20 MSTORE PUSH1 0x40 SWAP1 KECCAK256 PUSH1 0x2 ADD SLOAD PUSH1 0x1 PUSH1 0x1 PUSH1 0xA0 SHL SUB AND CALLER EQ JUMPDEST ISZERO PUSH2 0x814 JUMPI PUSH1 0x0 DUP2 DUP2 MSTORE PUSH1 0x5 PUSH1 0x20 SWAP1 DUP2 MSTORE PUSH1 0x40 SWAP2 DUP3 SWAP1 KECCAK256 DUP3 MLOAD PUSH2 0x1C0 DUP2 ADD DUP5 MSTORE DUP2 SLOAD DUP2 MSTORE PUSH1 0x1 DUP3 ADD SLOAD PUSH1 0x1 PUSH1 0x1 PUSH1 0xA0 SHL SUB SWAP1 DUP2 AND SWAP4 DUP3 ADD SWAP4 SWAP1 SWAP4 MSTORE PUSH1 0x2 DUP3 ADD SLOAD SWAP1 SWAP3 AND SWAP3 DUP3 ADD SWAP3 SWAP1 SWAP3 MSTORE PUSH1 0x3 DUP3 ADD DUP1 SLOAD SWAP2 SWAP3 SWAP2 PUSH1 0x60 DUP5 ADD SWAP2 SWAP1 PUSH2 0x4E7 SWAP1 PUSH2 0x3D93 JUMP JUMPDEST DUP1 PUSH1 0x1F ADD PUSH1 0x20 DUP1 SWAP2 DIV MUL PUSH1 0x20 ADD PUSH1 0x40 MLOAD SWAP1 DUP2 ADD PUSH1 0x40 MSTORE DUP1 SWAP3 SWAP2 SWAP1 DUP2 DUP2 MSTORE PUSH1 0x20 ADD DUP3 DUP1 SLOAD PUSH2 0x513 SWAP1 PUSH2 0x3D93 JUMP JUMPDEST DUP1 ISZERO PUSH2 0x560 JUMPI DUP1 PUSH1 0x1F LT PUSH2 0x535 JUMPI PUSH2 0x100 DUP1 DUP4 SLOAD DIV MUL DUP4 MSTORE SWAP2 PUSH1 0x20 ADD SWAP2 PUSH2 0x560 JUMP JUMPDEST DUP3 ADD SWAP2 SWAP1 PUSH1 0x0 MSTORE PUSH1 0x20 PUSH1 0x0 KECCAK256 SWAP1 JUMPDEST DUP2 SLOAD DUP2 MSTORE SWAP1 PUSH1 0x1 ADD SWAP1 PUSH1 0x20 ADD DUP1 DUP4 GT PUSH2 0x543 JUMPI DUP3 SWAP1 SUB PUSH1 0x1F AND DUP3 ADD SWAP2 JUMPDEST POP POP POP POP POP DUP2 MSTORE PUSH1 0x20 ADD PUSH1 0x4 DUP3 ADD DUP1 SLOAD PUSH2 0x579 SWAP1 PUSH2 0x3D93 JUMP JUMPDEST DUP1 PUSH1 0x1F ADD PUSH1 0x20 DUP1 SWAP2 DIV MUL PUSH1 0x20 ADD PUSH1 0x40 MLOAD SWAP1 DUP2 ADD PUSH1 0x40 MSTORE DUP1 SWAP3 SWAP2 SWAP1 DUP2 DUP2 MSTORE PUSH1 0x20 ADD DUP3 DUP1 SLOAD PUSH2 0x5A5 SWAP1 PUSH2 0x3D93 JUMP JUMPDEST DUP1 ISZERO PUSH2 0x5F2 JUMPI DUP1 PUSH1 0x1F LT PUSH2 0x5C7 JUMPI PUSH2 0x100 DUP1 DUP4 SLOAD DIV MUL DUP4 MSTORE SWAP2 PUSH1 0x20 ADD SWAP2 PUSH2 0x5F2 JUMP JUMPDEST DUP3 ADD SWAP2 SWAP1 PUSH1 0x0 MSTORE PUSH1 0x20 PUSH1 0x0 KECCAK256 SWAP1 JUMPDEST DUP2 SLOAD DUP2 MSTORE SWAP1 PUSH1 0x1 ADD SWAP1 PUSH1 0x20 ADD DUP1 DUP4 GT PUSH2 0x5D5 JUMPI DUP3 SWAP1 SUB PUSH1 0x1F AND DUP3 ADD SWAP2 JUMPDEST POP POP POP POP POP DUP2 MSTORE PUSH1 0x20 ADD PUSH1 0x5 DUP3 ADD DUP1 SLOAD PUSH2 0x60B SWAP1 PUSH2 0x3D93 JUMP JUMPDEST DUP1 PUSH1 0x1F ADD PUSH1 0x20 DUP1 SWAP2 DIV MUL PUSH1 0x20 ADD PUSH1 0x40 MLOAD SWAP1 DUP2 ADD PUSH1 0x40 MSTORE DUP1 SWAP3 SWAP2 SWAP1 DUP2 DUP2 MSTORE PUSH1 0x20 ADD DUP3 DUP1 SLOAD PUSH2 0x637 SWAP1 PUSH2 0x3D93 JUMP JUMPDEST DUP1 ISZERO PUSH2 0x684 JUMPI DUP1 PUSH1 0x1F LT PUSH2 0x659 JUMPI PUSH2 0x100 DUP1 DUP4 SLOAD DIV MUL DUP4 MSTORE SWAP2 PUSH1 0x20 ADD SWAP2 PUSH2 0x684 JUMP JUMPDEST DUP3 ADD SWAP2 SWAP1 PUSH1 0x0 MSTORE PUSH1 0x20 PUSH1 0x0 KECCAK256 SWAP1 JUMPDEST DUP2 SLOAD DUP2 MSTORE SWAP1 PUSH1 0x1 ADD SWAP1 PUSH1 0x20 ADD DUP1 DUP4 GT PUSH2 0x667 JUMPI DUP3 SWAP1 SUB PUSH1 0x1F AND DUP3 ADD SWAP2 JUMPDEST POP POP POP POP POP DUP2 MSTORE PUSH1 0x20 ADD PUSH1 0x6 DUP3 ADD SLOAD DUP2 MSTORE PUSH1 0x20 ADD PUSH1 0x7 DUP3 ADD SLOAD DUP2 MSTORE PUSH1 0x20 ADD PUSH1 0x8 DUP3 ADD SLOAD DUP2 MSTORE PUSH1 0x20 ADD PUSH1 0x9 DUP3 ADD DUP1 SLOAD PUSH2 0x6BB SWAP1 PUSH2 0x3D93 JUMP JUMPDEST DUP1 PUSH1 0x1F ADD PUSH1 0x20 DUP1 SWAP2 DIV MUL PUSH1 0x20 ADD PUSH1 0x40 MLOAD SWAP1 DUP2 ADD PUSH1 0x40 MSTORE DUP1 SWAP3 SWAP2 SWAP1 DUP2 DUP2 MSTORE PUSH1 0x20 ADD DUP3 DUP1 SLOAD PUSH2 0x6E7 SWAP1 PUSH2 0x3D93 JUMP JUMPDEST DUP1 ISZERO PUSH2 0x734 JUMPI DUP1 PUSH1 0x1F LT PUSH2 0x709 JUMPI PUSH2 0x100 DUP1 DUP4 SLOAD DIV MUL DUP4 MSTORE SWAP2 PUSH1 0x20 ADD SWAP2 PUSH2 0x734 JUMP JUMPDEST DUP3 ADD SWAP2 SWAP1 PUSH1 0x0 MSTORE PUSH1 0x20 PUSH1 0x0 KECCAK256 SWAP1 JUMPDEST DUP2 SLOAD DUP2 MSTORE SWAP1 PUSH1 0x1 ADD SWAP1 PUSH1 0x20 ADD DUP1 DUP4 GT PUSH2 0x717 JUMPI DUP3 SWAP1 SUB PUSH1 0x1F AND DUP3 ADD SWAP2 JUMPDEST POP POP POP SWAP2 DUP4 MSTORE POP POP PUSH1 0xA DUP3 ADD SLOAD PUSH1 0x20 DUP3 ADD MSTORE PUSH1 0xB DUP3 ADD SLOAD PUSH1 0x40 SWAP1 SWAP2 ADD SWAP1 PUSH1 0xFF AND PUSH1 0x4 DUP2 GT ISZERO PUSH2 0x765 JUMPI PUSH2 0x765 PUSH2 0x377A JUMP JUMPDEST PUSH1 0x4 DUP2 GT ISZERO PUSH2 0x776 JUMPI PUSH2 0x776 PUSH2 0x377A JUMP JUMPDEST DUP2 MSTORE PUSH1 0xB DUP3 ADD SLOAD PUSH2 0x100 SWAP1 DIV PUSH1 0xFF AND PUSH1 0x20 DUP1 DUP4 ADD SWAP2 SWAP1 SWAP2 MSTORE PUSH1 0xC DUP4 ADD DUP1 SLOAD PUSH1 0x40 DUP1 MLOAD DUP3 DUP6 MUL DUP2 ADD DUP6 ADD DUP3 MSTORE DUP3 DUP2 MSTORE SWAP5 ADD SWAP4 SWAP3 DUP4 ADD DUP3 DUP3 DUP1 ISZERO PUSH2 0x7E1 JUMPI PUSH1 0x20 MUL DUP3 ADD SWAP2 SWAP1 PUSH1 0x0 MSTORE PUSH1 0x20 PUSH1 0x0 KECCAK256 SWAP1 JUMPDEST DUP2 SLOAD PUSH1 0x1 PUSH1 0x1 PUSH1 0xA0 SHL SUB AND DUP2 MSTORE PUSH1 0x1 SWAP1 SWAP2 ADD SWAP1 PUSH1 0x20 ADD DUP1 DUP4 GT PUSH2 0x7C3 JUMPI JUMPDEST POP POP POP POP POP DUP2 MSTORE POP POP DUP4 DUP4 DUP1 PUSH2 0x7F6 SWAP1 PUSH2 0x3D7A JUMP JUMPDEST SWAP5 POP DUP2 MLOAD DUP2 LT PUSH2 0x808 JUMPI PUSH2 0x808 PUSH2 0x3DCD JUMP JUMPDEST PUSH1 0x20 MUL PUSH1 0x20 ADD ADD DUP2 SWAP1 MSTORE POP JUMPDEST DUP1 PUSH2 0x81E DUP2 PUSH2 0x3D7A JUMP JUMPDEST SWAP2 POP POP PUSH2 0x445 JUMP JUMPDEST POP SWAP1 SWAP4 SWAP3 POP POP POP JUMP JUMPDEST PUSH1 0x0 DUP3 DUP2 MSTORE PUSH1 0x5 PUSH1 0x20 MSTORE PUSH1 0x40 SWAP1 KECCAK256 PUSH1 0x1 ADD SLOAD DUP3 SWAP1 PUSH1 0x1 PUSH1 0x1 PUSH1 0xA0 SHL SUB AND CALLER EQ PUSH2 0x873 JUMPI PUSH1 0x40 MLOAD PUSH3 0x461BCD PUSH1 0xE5 SHL DUP2 MSTORE PUSH1 0x4 ADD PUSH2 0x86A SWAP1 PUSH2 0x3DE3 JUMP JUMPDEST PUSH1 0x40 MLOAD DUP1 SWAP2 SUB SWAP1 REVERT JUMPDEST PUSH1 0x0 DUP4 DUP2 MSTORE PUSH1 0x7 PUSH1 0x20 MSTORE PUSH1 0x40 SWAP1 KECCAK256 SLOAD PUSH1 0xFF AND PUSH2 0x8A1 JUMPI PUSH1 0x40 MLOAD PUSH3 0x461BCD PUSH1 0xE5 SHL DUP2 MSTORE PUSH1 0x4 ADD PUSH2 0x86A SWAP1 PUSH2 0x3E10 JUMP JUMPDEST PUSH1 0x0 DUP4 DUP2 MSTORE PUSH1 0x5 PUSH1 0x20 MSTORE PUSH1 0x40 DUP2 KECCAK256 PUSH1 0xB ADD SLOAD PUSH1 0xFF AND PUSH1 0x4 DUP2 GT ISZERO PUSH2 0x8C7 JUMPI PUSH2 0x8C7 PUSH2 0x377A JUMP JUMPDEST EQ PUSH2 0x8E4 JUMPI PUSH1 0x40 MLOAD PUSH3 0x461BCD PUSH1 0xE5 SHL DUP2 MSTORE PUSH1 0x4 ADD PUSH2 0x86A SWAP1 PUSH2 0x3E47 JUMP JUMPDEST PUSH1 0x0 DUP4 DUP2 MSTORE PUSH1 0x8 PUSH1 0x20 SWAP1 DUP2 MSTORE PUSH1 0x40 DUP1 DUP4 KECCAK256 PUSH1 0x1 PUSH1 0x1 PUSH1 0xA0 SHL SUB DUP7 AND DUP5 MSTORE SWAP1 SWAP2 MSTORE SWAP1 KECCAK256 SLOAD PUSH1 0xFF AND PUSH2 0x94C JUMPI PUSH1 0x40 MLOAD PUSH3 0x461BCD PUSH1 0xE5 SHL DUP2 MSTORE PUSH1 0x20 PUSH1 0x4 DUP3 ADD MSTORE PUSH1 0x13 PUSH1 0x24 DUP3 ADD MSTORE PUSH19 0x2AB734B232B73A34B334B2B2103134B23232B9 PUSH1 0x69 SHL PUSH1 0x44 DUP3 ADD MSTORE PUSH1 0x64 ADD PUSH2 0x86A JUMP JUMPDEST PUSH1 0x0 DUP1 JUMPDEST PUSH1 0x0 DUP6 DUP2 MSTORE PUSH1 0x6 PUSH1 0x20 MSTORE PUSH1 0x40 SWAP1 KECCAK256 SLOAD DUP2 LT ISZERO PUSH2 0x9FF JUMPI PUSH1 0x0 DUP6 DUP2 MSTORE PUSH1 0x6 PUSH1 0x20 MSTORE PUSH1 0x40 SWAP1 KECCAK256 DUP1 SLOAD PUSH1 0x1 PUSH1 0x1 PUSH1 0xA0 SHL SUB DUP7 AND SWAP2 SWAP1 DUP4 SWAP1 DUP2 LT PUSH2 0x992 JUMPI PUSH2 0x992 PUSH2 0x3DCD JUMP JUMPDEST PUSH1 0x0 SWAP2 DUP3 MSTORE PUSH1 0x20 SWAP1 SWAP2 KECCAK256 PUSH1 0x2 PUSH1 0x4 SWAP1 SWAP3 MUL ADD ADD SLOAD PUSH1 0x1 PUSH1 0x1 PUSH1 0xA0 SHL SUB AND SUB PUSH2 0x9ED JUMPI PUSH1 0x0 DUP6 DUP2 MSTORE PUSH1 0x6 PUSH1 0x20 MSTORE PUSH1 0x40 SWAP1 KECCAK256 DUP1 SLOAD DUP3 SWAP1 DUP2 LT PUSH2 0x9D4 JUMPI PUSH2 0x9D4 PUSH2 0x3DCD JUMP JUMPDEST SWAP1 PUSH1 0x0 MSTORE PUSH1 0x20 PUSH1 0x0 KECCAK256 SWAP1 PUSH1 0x4 MUL ADD PUSH1 0x3 ADD SLOAD SWAP2 POP PUSH2 0x9FF JUMP JUMPDEST DUP1 PUSH2 0x9F7 DUP2 PUSH2 0x3D7A JUMP JUMPDEST SWAP2 POP POP PUSH2 0x950 JUMP JUMPDEST POP PUSH1 0x0 DUP2 GT PUSH2 0xA40 JUMPI PUSH1 0x40 MLOAD PUSH3 0x461BCD PUSH1 0xE5 SHL DUP2 MSTORE PUSH1 0x20 PUSH1 0x4 DUP3 ADD MSTORE PUSH1 0xD PUSH1 0x24 DUP3 ADD MSTORE PUSH13 0x109A59081B9BDD08199BDD5B99 PUSH1 0x9A SHL PUSH1 0x44 DUP3 ADD MSTORE PUSH1 0x64 ADD PUSH2 0x86A JUMP JUMPDEST PUSH1 0x0 DUP5 DUP2 MSTORE PUSH1 0x5 PUSH1 0x20 MSTORE PUSH1 0x40 SWAP1 KECCAK256 PUSH1 0x2 DUP2 ADD DUP1 SLOAD PUSH1 0x1 PUSH1 0x1 PUSH1 0xA0 SHL SUB NOT AND PUSH1 0x1 PUSH1 0x1 PUSH1 0xA0 SHL SUB DUP7 AND OR SWAP1 SSTORE PUSH1 0x8 DUP2 ADD DUP3 SWAP1 SSTORE PUSH1 0xB ADD DUP1 SLOAD PUSH1 0x1 SWAP2 SWAP1 PUSH1 0xFF NOT AND DUP3 DUP1 MUL OR SWAP1 SSTORE POP PUSH1 0x2 SLOAD PUSH1 0x40 MLOAD PUSH4 0x23B872DD PUSH1 0xE0 SHL DUP2 MSTORE CALLER PUSH1 0x4 DUP3 ADD MSTORE ADDRESS PUSH1 0x24 DUP3 ADD MSTORE PUSH1 0x44 DUP2 ADD DUP4 SWAP1 MSTORE PUSH1 0x1 PUSH1 0x1 PUSH1 0xA0 SHL SUB SWAP1 SWAP2 AND SWAP1 PUSH4 0x23B872DD SWAP1 PUSH1 0x64 ADD PUSH1 0x20 PUSH1 0x40 MLOAD DUP1 DUP4 SUB DUP2 PUSH1 0x0 DUP8 GAS CALL ISZERO DUP1 ISZERO PUSH2 0xADD JUMPI RETURNDATASIZE PUSH1 0x0 DUP1 RETURNDATACOPY RETURNDATASIZE PUSH1 0x0 REVERT JUMPDEST POP POP POP POP PUSH1 0x40 MLOAD RETURNDATASIZE PUSH1 0x1F NOT PUSH1 0x1F DUP3 ADD AND DUP3 ADD DUP1 PUSH1 0x40 MSTORE POP DUP2 ADD SWAP1 PUSH2 0xB01 SWAP2 SWAP1 PUSH2 0x3E78 JUMP JUMPDEST POP POP POP POP POP JUMP JUMPDEST PUSH1 0x60 PUSH2 0xB12 PUSH2 0x34EA JUMP JUMPDEST PUSH1 0x0 PUSH1 0x1 JUMPDEST PUSH1 0x3 SLOAD DUP2 GT PUSH2 0xB88 JUMPI PUSH1 0x0 DUP2 DUP2 MSTORE PUSH1 0x7 PUSH1 0x20 MSTORE PUSH1 0x40 SWAP1 KECCAK256 SLOAD PUSH1 0xFF AND DUP1 ISZERO PUSH2 0xB63 JUMPI POP PUSH1 0x3 PUSH1 0x0 DUP3 DUP2 MSTORE PUSH1 0x5 PUSH1 0x20 MSTORE PUSH1 0x40 SWAP1 KECCAK256 PUSH1 0xB ADD SLOAD PUSH1 0xFF AND PUSH1 0x4 DUP2 GT ISZERO PUSH2 0xB61 JUMPI PUSH2 0xB61 PUSH2 0x377A JUMP JUMPDEST EQ JUMPDEST ISZERO PUSH2 0xB76 JUMPI DUP2 PUSH2 0xB72 DUP2 PUSH2 0x3D7A JUMP JUMPDEST SWAP3 POP POP JUMPDEST DUP1 PUSH2 0xB80 DUP2 PUSH2 0x3D7A JUMP JUMPDEST SWAP2 POP POP PUSH2 0xB17 JUMP JUMPDEST POP PUSH1 0x0 DUP2 PUSH1 0x1 PUSH1 0x1 PUSH1 0x40 SHL SUB DUP2 GT ISZERO PUSH2 0xBA3 JUMPI PUSH2 0xBA3 PUSH2 0x3AD5 JUMP JUMPDEST PUSH1 0x40 MLOAD SWAP1 DUP1 DUP3 MSTORE DUP1 PUSH1 0x20 MUL PUSH1 0x20 ADD DUP3 ADD PUSH1 0x40 MSTORE DUP1 ISZERO PUSH2 0xBDC JUMPI DUP2 PUSH1 0x20 ADD JUMPDEST PUSH2 0xBC9 PUSH2 0x35ED JUMP JUMPDEST DUP2 MSTORE PUSH1 0x20 ADD SWAP1 PUSH1 0x1 SWAP1 SUB SWAP1 DUP2 PUSH2 0xBC1 JUMPI SWAP1 POP JUMPDEST POP SWAP1 POP PUSH1 0x0 PUSH1 0x1 JUMPDEST PUSH1 0x3 SLOAD DUP2 GT PUSH2 0x826 JUMPI PUSH1 0x0 DUP2 DUP2 MSTORE PUSH1 0x7 PUSH1 0x20 MSTORE PUSH1 0x40 SWAP1 KECCAK256 SLOAD PUSH1 0xFF AND DUP1 ISZERO PUSH2 0xC30 JUMPI POP PUSH1 0x3 PUSH1 0x0 DUP3 DUP2 MSTORE PUSH1 0x5 PUSH1 0x20 MSTORE PUSH1 0x40 SWAP1 KECCAK256 PUSH1 0xB ADD SLOAD PUSH1 0xFF AND PUSH1 0x4 DUP2 GT ISZERO PUSH2 0xC2E JUMPI PUSH2 0xC2E PUSH2 0x377A JUMP JUMPDEST EQ JUMPDEST ISZERO PUSH2 0xFBF JUMPI PUSH1 0x0 DUP2 DUP2 MSTORE PUSH1 0x5 PUSH1 0x20 SWAP1 DUP2 MSTORE PUSH1 0x40 SWAP2 DUP3 SWAP1 KECCAK256 DUP3 MLOAD PUSH2 0x1C0 DUP2 ADD DUP5 MSTORE DUP2 SLOAD DUP2 MSTORE PUSH1 0x1 DUP3 ADD SLOAD PUSH1 0x1 PUSH1 0x1 PUSH1 0xA0 SHL SUB SWAP1 DUP2 AND SWAP4 DUP3 ADD SWAP4 SWAP1 SWAP4 MSTORE PUSH1 0x2 DUP3 ADD SLOAD SWAP1 SWAP3 AND SWAP3 DUP3 ADD SWAP3 SWAP1 SWAP3 MSTORE PUSH1 0x3 DUP3 ADD DUP1 SLOAD SWAP2 SWAP3 SWAP2 PUSH1 0x60 DUP5 ADD SWAP2 SWAP1 PUSH2 0xC92 SWAP1 PUSH2 0x3D93 JUMP JUMPDEST DUP1 PUSH1 0x1F ADD PUSH1 0x20 DUP1 SWAP2 DIV MUL PUSH1 0x20 ADD PUSH1 0x40 MLOAD SWAP1 DUP2 ADD PUSH1 0x40 MSTORE DUP1 SWAP3 SWAP2 SWAP1 DUP2 DUP2 MSTORE PUSH1 0x20 ADD DUP3 DUP1 SLOAD PUSH2 0xCBE SWAP1 PUSH2 0x3D93 JUMP JUMPDEST DUP1 ISZERO PUSH2 0xD0B JUMPI DUP1 PUSH1 0x1F LT PUSH2 0xCE0 JUMPI PUSH2 0x100 DUP1 DUP4 SLOAD DIV MUL DUP4 MSTORE SWAP2 PUSH1 0x20 ADD SWAP2 PUSH2 0xD0B JUMP JUMPDEST DUP3 ADD SWAP2 SWAP1 PUSH1 0x0 MSTORE PUSH1 0x20 PUSH1 0x0 KECCAK256 SWAP1 JUMPDEST DUP2 SLOAD DUP2 MSTORE SWAP1 PUSH1 0x1 ADD SWAP1 PUSH1 0x20 ADD DUP1 DUP4 GT PUSH2 0xCEE JUMPI DUP3 SWAP1 SUB PUSH1 0x1F AND DUP3 ADD SWAP2 JUMPDEST POP POP POP POP POP DUP2 MSTORE PUSH1 0x20 ADD PUSH1 0x4 DUP3 ADD DUP1 SLOAD PUSH2 0xD24 SWAP1 PUSH2 0x3D93 JUMP JUMPDEST DUP1 PUSH1 0x1F ADD PUSH1 0x20 DUP1 SWAP2 DIV MUL PUSH1 0x20 ADD PUSH1 0x40 MLOAD SWAP1 DUP2 ADD PUSH1 0x40 MSTORE DUP1 SWAP3 SWAP2 SWAP1 DUP2 DUP2 MSTORE PUSH1 0x20 ADD DUP3 DUP1 SLOAD PUSH2 0xD50 SWAP1 PUSH2 0x3D93 JUMP JUMPDEST DUP1 ISZERO PUSH2 0xD9D JUMPI DUP1 PUSH1 0x1F LT PUSH2 0xD72 JUMPI PUSH2 0x100 DUP1 DUP4 SLOAD DIV MUL DUP4 MSTORE SWAP2 PUSH1 0x20 ADD SWAP2 PUSH2 0xD9D JUMP JUMPDEST DUP3 ADD SWAP2 SWAP1 PUSH1 0x0 MSTORE PUSH1 0x20 PUSH1 0x0 KECCAK256 SWAP1 JUMPDEST DUP2 SLOAD DUP2 MSTORE SWAP1 PUSH1 0x1 ADD SWAP1 PUSH1 0x20 ADD DUP1 DUP4 GT PUSH2 0xD80 JUMPI DUP3 SWAP1 SUB PUSH1 0x1F AND DUP3 ADD SWAP2 JUMPDEST POP POP POP POP POP DUP2 MSTORE PUSH1 0x20 ADD PUSH1 0x5 DUP3 ADD DUP1 SLOAD PUSH2 0xDB6 SWAP1 PUSH2 0x3D93 JUMP JUMPDEST DUP1 PUSH1 0x1F ADD PUSH1 0x20 DUP1 SWAP2 DIV MUL PUSH1 0x20 ADD PUSH1 0x40 MLOAD SWAP1 DUP2 ADD PUSH1 0x40 MSTORE DUP1 SWAP3 SWAP2 SWAP1 DUP2 DUP2 MSTORE PUSH1 0x20 ADD DUP3 DUP1 SLOAD PUSH2 0xDE2 SWAP1 PUSH2 0x3D93 JUMP JUMPDEST DUP1 ISZERO PUSH2 0xE2F JUMPI DUP1 PUSH1 0x1F LT PUSH2 0xE04 JUMPI PUSH2 0x100 DUP1 DUP4 SLOAD DIV MUL DUP4 MSTORE SWAP2 PUSH1 0x20 ADD SWAP2 PUSH2 0xE2F JUMP JUMPDEST DUP3 ADD SWAP2 SWAP1 PUSH1 0x0 MSTORE PUSH1 0x20 PUSH1 0x0 KECCAK256 SWAP1 JUMPDEST DUP2 SLOAD DUP2 MSTORE SWAP1 PUSH1 0x1 ADD SWAP1 PUSH1 0x20 ADD DUP1 DUP4 GT PUSH2 0xE12 JUMPI DUP3 SWAP1 SUB PUSH1 0x1F AND DUP3 ADD SWAP2 JUMPDEST POP POP POP POP POP DUP2 MSTORE PUSH1 0x20 ADD PUSH1 0x6 DUP3 ADD SLOAD DUP2 MSTORE PUSH1 0x20 ADD PUSH1 0x7 DUP3 ADD SLOAD DUP2 MSTORE PUSH1 0x20 ADD PUSH1 0x8 DUP3 ADD SLOAD DUP2 MSTORE PUSH1 0x20 ADD PUSH1 0x9 DUP3 ADD DUP1 SLOAD PUSH2 0xE66 SWAP1 PUSH2 0x3D93 JUMP JUMPDEST DUP1 PUSH1 0x1F ADD PUSH1 0x20 DUP1 SWAP2 DIV MUL PUSH1 0x20 ADD PUSH1 0x40 MLOAD SWAP1 DUP2 ADD PUSH1 0x40 MSTORE DUP1 SWAP3 SWAP2 SWAP1 DUP2 DUP2 MSTORE PUSH1 0x20 ADD DUP3 DUP1 SLOAD PUSH2 0xE92 SWAP1 PUSH2 0x3D93 JUMP JUMPDEST DUP1 ISZERO PUSH2 0xEDF JUMPI DUP1 PUSH1 0x1F LT PUSH2 0xEB4 JUMPI PUSH2 0x100 DUP1 DUP4 SLOAD DIV MUL DUP4 MSTORE SWAP2 PUSH1 0x20 ADD SWAP2 PUSH2 0xEDF JUMP JUMPDEST DUP3 ADD SWAP2 SWAP1 PUSH1 0x0 MSTORE PUSH1 0x20 PUSH1 0x0 KECCAK256 SWAP1 JUMPDEST DUP2 SLOAD DUP2 MSTORE SWAP1 PUSH1 0x1 ADD SWAP1 PUSH1 0x20 ADD DUP1 DUP4 GT PUSH2 0xEC2 JUMPI DUP3 SWAP1 SUB PUSH1 0x1F AND DUP3 ADD SWAP2 JUMPDEST POP POP POP SWAP2 DUP4 MSTORE POP POP PUSH1 0xA DUP3 ADD SLOAD PUSH1 0x20 DUP3 ADD MSTORE PUSH1 0xB DUP3 ADD SLOAD PUSH1 0x40 SWAP1 SWAP2 ADD SWAP1 PUSH1 0xFF AND PUSH1 0x4 DUP2 GT ISZERO PUSH2 0xF10 JUMPI PUSH2 0xF10 PUSH2 0x377A JUMP JUMPDEST PUSH1 0x4 DUP2 GT ISZERO PUSH2 0xF21 JUMPI PUSH2 0xF21 PUSH2 0x377A JUMP JUMPDEST DUP2 MSTORE PUSH1 0xB DUP3 ADD SLOAD PUSH2 0x100 SWAP1 DIV PUSH1 0xFF AND PUSH1 0x20 DUP1 DUP4 ADD SWAP2 SWAP1 SWAP2 MSTORE PUSH1 0xC DUP4 ADD DUP1 SLOAD PUSH1 0x40 DUP1 MLOAD DUP3 DUP6 MUL DUP2 ADD DUP6 ADD DUP3 MSTORE DUP3 DUP2 MSTORE SWAP5 ADD SWAP4 SWAP3 DUP4 ADD DUP3 DUP3 DUP1 ISZERO PUSH2 0xF8C JUMPI PUSH1 0x20 MUL DUP3 ADD SWAP2 SWAP1 PUSH1 0x0 MSTORE PUSH1 0x20 PUSH1 0x0 KECCAK256 SWAP1 JUMPDEST DUP2 SLOAD PUSH1 0x1 PUSH1 0x1 PUSH1 0xA0 SHL SUB AND DUP2 MSTORE PUSH1 0x1 SWAP1 SWAP2 ADD SWAP1 PUSH1 0x20 ADD DUP1 DUP4 GT PUSH2 0xF6E JUMPI JUMPDEST POP POP POP POP POP DUP2 MSTORE POP POP DUP4 DUP4 DUP1 PUSH2 0xFA1 SWAP1 PUSH2 0x3D7A JUMP JUMPDEST SWAP5 POP DUP2 MLOAD DUP2 LT PUSH2 0xFB3 JUMPI PUSH2 0xFB3 PUSH2 0x3DCD JUMP JUMPDEST PUSH1 0x20 MUL PUSH1 0x20 ADD ADD DUP2 SWAP1 MSTORE POP JUMPDEST DUP1 PUSH2 0xFC9 DUP2 PUSH2 0x3D7A JUMP JUMPDEST SWAP2 POP POP PUSH2 0xBE4 JUMP JUMPDEST PUSH1 0x0 DUP3 DUP2 MSTORE PUSH1 0x7 PUSH1 0x20 MSTORE PUSH1 0x40 SWAP1 KECCAK256 SLOAD PUSH1 0xFF AND PUSH2 0xFFF JUMPI PUSH1 0x40 MLOAD PUSH3 0x461BCD PUSH1 0xE5 SHL DUP2 MSTORE PUSH1 0x4 ADD PUSH2 0x86A SWAP1 PUSH2 0x3E10 JUMP JUMPDEST PUSH1 0x0 DUP3 DUP2 MSTORE PUSH1 0x5 PUSH1 0x20 MSTORE PUSH1 0x40 SWAP1 KECCAK256 PUSH1 0x1 ADD SLOAD CALLER PUSH1 0x1 PUSH1 0x1 PUSH1 0xA0 SHL SUB SWAP1 SWAP2 AND SUB PUSH2 0x105E JUMPI PUSH1 0x40 MLOAD PUSH3 0x461BCD PUSH1 0xE5 SHL DUP2 MSTORE PUSH1 0x20 PUSH1 0x4 DUP3 ADD MSTORE PUSH1 0x11 PUSH1 0x24 DUP3 ADD MSTORE PUSH17 0x466F7262696464656E20616374696F6E21 PUSH1 0x78 SHL PUSH1 0x44 DUP3 ADD MSTORE PUSH1 0x64 ADD PUSH2 0x86A JUMP JUMPDEST PUSH1 0x0 DUP3 DUP2 MSTORE PUSH1 0x5 PUSH1 0x20 MSTORE PUSH1 0x40 DUP2 KECCAK256 PUSH1 0xB ADD SLOAD PUSH1 0xFF AND PUSH1 0x4 DUP2 GT ISZERO PUSH2 0x1084 JUMPI PUSH2 0x1084 PUSH2 0x377A JUMP JUMPDEST EQ PUSH2 0x10A1 JUMPI PUSH1 0x40 MLOAD PUSH3 0x461BCD PUSH1 0xE5 SHL DUP2 MSTORE PUSH1 0x4 ADD PUSH2 0x86A SWAP1 PUSH2 0x3E47 JUMP JUMPDEST PUSH1 0x0 DUP3 DUP2 MSTORE PUSH1 0x8 PUSH1 0x20 SWAP1 DUP2 MSTORE PUSH1 0x40 DUP1 DUP4 KECCAK256 CALLER DUP5 MSTORE SWAP1 SWAP2 MSTORE SWAP1 KECCAK256 SLOAD PUSH1 0xFF AND ISZERO PUSH2 0x110B JUMPI PUSH1 0x40 MLOAD PUSH3 0x461BCD PUSH1 0xE5 SHL DUP2 MSTORE PUSH1 0x20 PUSH1 0x4 DUP3 ADD MSTORE PUSH1 0x1D PUSH1 0x24 DUP3 ADD MSTORE PUSH32 0x596F75206861766520706C6163656420612062696420616C7265616479000000 PUSH1 0x44 DUP3 ADD MSTORE PUSH1 0x64 ADD PUSH2 0x86A JUMP JUMPDEST PUSH2 0x113F PUSH1 0x40 MLOAD DUP1 PUSH1 0x80 ADD PUSH1 0x40 MSTORE DUP1 PUSH1 0x0 DUP2 MSTORE PUSH1 0x20 ADD PUSH1 0x0 DUP2 MSTORE PUSH1 0x20 ADD PUSH1 0x0 PUSH1 0x1 PUSH1 0x1 PUSH1 0xA0 SHL SUB AND DUP2 MSTORE PUSH1 0x20 ADD PUSH1 0x0 DUP2 MSTORE POP SWAP1 JUMP JUMPDEST PUSH1 0x0 DUP4 DUP2 MSTORE PUSH1 0x6 PUSH1 0x20 DUP2 DUP2 MSTORE PUSH1 0x40 DUP1 DUP5 KECCAK256 DUP1 SLOAD DUP7 MSTORE DUP6 DUP4 ADD DUP9 DUP2 MSTORE CALLER DUP8 DUP5 ADD DUP2 DUP2 MSTORE PUSH1 0x60 DUP10 ADD SWAP10 DUP11 MSTORE DUP11 DUP9 MSTORE PUSH1 0x8 DUP7 MSTORE DUP5 DUP9 KECCAK256 DUP3 DUP10 MSTORE DUP7 MSTORE DUP5 DUP9 KECCAK256 DUP1 SLOAD PUSH1 0x1 PUSH1 0xFF NOT SWAP1 SWAP2 AND DUP2 OR SWAP1 SWAP2 SSTORE SWAP11 DUP9 MSTORE PUSH1 0x5 DUP7 MSTORE SWAP4 DUP8 KECCAK256 PUSH1 0xC ADD DUP1 SLOAD DUP1 DUP13 ADD DUP3 SSTORE SWAP1 DUP9 MSTORE DUP6 DUP9 KECCAK256 ADD DUP1 SLOAD PUSH1 0x1 PUSH1 0x1 PUSH1 0xA0 SHL SUB NOT SWAP1 DUP2 AND SWAP1 SWAP3 OR SWAP1 SSTORE SWAP5 DUP5 MSTORE DUP2 SLOAD DUP1 DUP11 ADD DUP4 SSTORE SWAP2 DUP7 MSTORE SWAP3 SWAP1 SWAP5 KECCAK256 SWAP5 MLOAD PUSH1 0x4 SWAP1 SWAP5 MUL SWAP1 SWAP5 ADD SWAP3 DUP4 SSTORE MLOAD SWAP5 DUP3 ADD SWAP5 SWAP1 SWAP5 SSTORE SWAP1 MLOAD PUSH1 0x2 DUP3 ADD DUP1 SLOAD SWAP1 SWAP5 AND PUSH1 0x1 PUSH1 0x1 PUSH1 0xA0 SHL SUB SWAP1 SWAP2 AND OR SWAP1 SWAP3 SSTORE MLOAD PUSH1 0x3 SWAP1 SWAP2 ADD SSTORE JUMP JUMPDEST PUSH1 0x60 PUSH1 0x6 PUSH1 0x0 DUP4 DUP2 MSTORE PUSH1 0x20 ADD SWAP1 DUP2 MSTORE PUSH1 0x20 ADD PUSH1 0x0 KECCAK256 DUP1 SLOAD DUP1 PUSH1 0x20 MUL PUSH1 0x20 ADD PUSH1 0x40 MLOAD SWAP1 DUP2 ADD PUSH1 0x40 MSTORE DUP1 SWAP3 SWAP2 SWAP1 DUP2 DUP2 MSTORE PUSH1 0x20 ADD PUSH1 0x0 SWAP1 JUMPDEST DUP3 DUP3 LT ISZERO PUSH2 0x1292 JUMPI PUSH1 0x0 DUP5 DUP2 MSTORE PUSH1 0x20 SWAP1 DUP2 SWAP1 KECCAK256 PUSH1 0x40 DUP1 MLOAD PUSH1 0x80 DUP2 ADD DUP3 MSTORE PUSH1 0x4 DUP7 MUL SWAP1 SWAP3 ADD DUP1 SLOAD DUP4 MSTORE PUSH1 0x1 DUP1 DUP3 ADD SLOAD DUP5 DUP7 ADD MSTORE PUSH1 0x2 DUP3 ADD SLOAD PUSH1 0x1 PUSH1 0x1 PUSH1 0xA0 SHL SUB AND SWAP3 DUP5 ADD SWAP3 SWAP1 SWAP3 MSTORE PUSH1 0x3 ADD SLOAD PUSH1 0x60 DUP4 ADD MSTORE SWAP1 DUP4 MSTORE SWAP1 SWAP3 ADD SWAP2 ADD PUSH2 0x1235 JUMP JUMPDEST POP POP POP POP SWAP1 POP SWAP2 SWAP1 POP JUMP JUMPDEST PUSH1 0x0 DUP2 DUP2 MSTORE PUSH1 0x5 PUSH1 0x20 MSTORE PUSH1 0x40 SWAP1 KECCAK256 PUSH1 0x1 ADD SLOAD DUP2 SWAP1 PUSH1 0x1 PUSH1 0x1 PUSH1 0xA0 SHL SUB AND CALLER EQ PUSH2 0x12D8 JUMPI PUSH1 0x40 MLOAD PUSH3 0x461BCD PUSH1 0xE5 SHL DUP2 MSTORE PUSH1 0x4 ADD PUSH2 0x86A SWAP1 PUSH2 0x3DE3 JUMP JUMPDEST PUSH1 0x0 DUP3 DUP2 MSTORE PUSH1 0x7 PUSH1 0x20 MSTORE PUSH1 0x40 SWAP1 KECCAK256 SLOAD PUSH1 0xFF AND PUSH2 0x1306 JUMPI PUSH1 0x40 MLOAD PUSH3 0x461BCD PUSH1 0xE5 SHL DUP2 MSTORE PUSH1 0x4 ADD PUSH2 0x86A SWAP1 PUSH2 0x3E10 JUMP JUMPDEST PUSH1 0x0 DUP3 DUP2 MSTORE PUSH1 0x5 PUSH1 0x20 MSTORE PUSH1 0x40 DUP2 KECCAK256 PUSH1 0xB ADD SLOAD PUSH1 0xFF AND PUSH1 0x4 DUP2 GT ISZERO PUSH2 0x132C JUMPI PUSH2 0x132C PUSH2 0x377A JUMP JUMPDEST EQ PUSH2 0x1349 JUMPI PUSH1 0x40 MLOAD PUSH3 0x461BCD PUSH1 0xE5 SHL DUP2 MSTORE PUSH1 0x4 ADD PUSH2 0x86A SWAP1 PUSH2 0x3E47 JUMP JUMPDEST PUSH1 0x0 DUP3 DUP2 MSTORE PUSH1 0x5 PUSH1 0x20 MSTORE PUSH1 0x40 DUP2 KECCAK256 DUP2 DUP2 SSTORE PUSH1 0x1 DUP2 ADD DUP1 SLOAD PUSH1 0x1 PUSH1 0x1 PUSH1 0xA0 SHL SUB NOT SWAP1 DUP2 AND SWAP1 SWAP2 SSTORE PUSH1 0x2 DUP3 ADD DUP1 SLOAD SWAP1 SWAP2 AND SWAP1 SSTORE SWAP1 PUSH2 0x1388 PUSH1 0x3 DUP4 ADD DUP3 PUSH2 0x367F JUMP JUMPDEST PUSH2 0x1396 PUSH1 0x4 DUP4 ADD PUSH1 0x0 PUSH2 0x367F JUMP JUMPDEST PUSH2 0x13A4 PUSH1 0x5 DUP4 ADD PUSH1 0x0 PUSH2 0x367F JUMP JUMPDEST PUSH1 0x6 DUP3 ADD PUSH1 0x0 SWAP1 SSTORE PUSH1 0x7 DUP3 ADD PUSH1 0x0 SWAP1 SSTORE PUSH1 0x8 DUP3 ADD PUSH1 0x0 SWAP1 SSTORE PUSH1 0x9 DUP3 ADD PUSH1 0x0 PUSH2 0x13CC SWAP2 SWAP1 PUSH2 0x367F JUMP JUMPDEST PUSH1 0x0 PUSH1 0xA DUP4 ADD DUP2 SWAP1 SSTORE PUSH1 0xB DUP4 ADD DUP1 SLOAD PUSH2 0xFFFF NOT AND SWAP1 SSTORE PUSH2 0x13F0 SWAP1 PUSH1 0xC DUP5 ADD SWAP1 PUSH2 0x36B9 JUMP JUMPDEST POP POP POP PUSH1 0x0 SWAP1 DUP2 MSTORE PUSH1 0x7 PUSH1 0x20 MSTORE PUSH1 0x40 SWAP1 KECCAK256 DUP1 SLOAD PUSH1 0xFF NOT AND SWAP1 SSTORE JUMP JUMPDEST PUSH1 0x60 PUSH1 0x0 PUSH1 0x1 JUMPDEST PUSH1 0x3 SLOAD DUP2 GT PUSH2 0x1481 JUMPI PUSH1 0x0 DUP2 DUP2 MSTORE PUSH1 0x7 PUSH1 0x20 MSTORE PUSH1 0x40 SWAP1 KECCAK256 SLOAD PUSH1 0xFF AND DUP1 ISZERO PUSH2 0x145C JUMPI POP PUSH1 0x0 DUP2 DUP2 MSTORE PUSH1 0x5 PUSH1 0x20 MSTORE PUSH1 0x40 DUP2 KECCAK256 PUSH1 0xB ADD SLOAD PUSH1 0xFF AND PUSH1 0x4 DUP2 GT ISZERO PUSH2 0x145A JUMPI PUSH2 0x145A PUSH2 0x377A JUMP JUMPDEST EQ JUMPDEST ISZERO PUSH2 0x146F JUMPI DUP2 PUSH2 0x146B DUP2 PUSH2 0x3D7A JUMP JUMPDEST SWAP3 POP POP JUMPDEST DUP1 PUSH2 0x1479 DUP2 PUSH2 0x3D7A JUMP JUMPDEST SWAP2 POP POP PUSH2 0x1412 JUMP JUMPDEST POP PUSH1 0x0 DUP2 PUSH1 0x1 PUSH1 0x1 PUSH1 0x40 SHL SUB DUP2 GT ISZERO PUSH2 0x149C JUMPI PUSH2 0x149C PUSH2 0x3AD5 JUMP JUMPDEST PUSH1 0x40 MLOAD SWAP1 DUP1 DUP3 MSTORE DUP1 PUSH1 0x20 MUL PUSH1 0x20 ADD DUP3 ADD PUSH1 0x40 MSTORE DUP1 ISZERO PUSH2 0x14D5 JUMPI DUP2 PUSH1 0x20 ADD JUMPDEST PUSH2 0x14C2 PUSH2 0x35ED JUMP JUMPDEST DUP2 MSTORE PUSH1 0x20 ADD SWAP1 PUSH1 0x1 SWAP1 SUB SWAP1 DUP2 PUSH2 0x14BA JUMPI SWAP1 POP JUMPDEST POP SWAP1 POP PUSH1 0x0 PUSH1 0x1 JUMPDEST PUSH1 0x3 SLOAD DUP2 GT PUSH2 0x826 JUMPI PUSH1 0x0 DUP2 DUP2 MSTORE PUSH1 0x7 PUSH1 0x20 MSTORE PUSH1 0x40 SWAP1 KECCAK256 SLOAD PUSH1 0xFF AND DUP1 ISZERO PUSH2 0x1527 JUMPI POP PUSH1 0x0 DUP2 DUP2 MSTORE PUSH1 0x5 PUSH1 0x20 MSTORE PUSH1 0x40 DUP2 KECCAK256 PUSH1 0xB ADD SLOAD PUSH1 0xFF AND PUSH1 0x4 DUP2 GT ISZERO PUSH2 0x1525 JUMPI PUSH2 0x1525 PUSH2 0x377A JUMP JUMPDEST EQ JUMPDEST ISZERO PUSH2 0x18B6 JUMPI PUSH1 0x0 DUP2 DUP2 MSTORE PUSH1 0x5 PUSH1 0x20 SWAP1 DUP2 MSTORE PUSH1 0x40 SWAP2 DUP3 SWAP1 KECCAK256 DUP3 MLOAD PUSH2 0x1C0 DUP2 ADD DUP5 MSTORE DUP2 SLOAD DUP2 MSTORE PUSH1 0x1 DUP3 ADD SLOAD PUSH1 0x1 PUSH1 0x1 PUSH1 0xA0 SHL SUB SWAP1 DUP2 AND SWAP4 DUP3 ADD SWAP4 SWAP1 SWAP4 MSTORE PUSH1 0x2 DUP3 ADD SLOAD SWAP1 SWAP3 AND SWAP3 DUP3 ADD SWAP3 SWAP1 SWAP3 MSTORE PUSH1 0x3 DUP3 ADD DUP1 SLOAD SWAP2 SWAP3 SWAP2 PUSH1 0x60 DUP5 ADD SWAP2 SWAP1 PUSH2 0x1589 SWAP1 PUSH2 0x3D93 JUMP JUMPDEST DUP1 PUSH1 0x1F ADD PUSH1 0x20 DUP1 SWAP2 DIV MUL PUSH1 0x20 ADD PUSH1 0x40 MLOAD SWAP1 DUP2 ADD PUSH1 0x40 MSTORE DUP1 SWAP3 SWAP2 SWAP1 DUP2 DUP2 MSTORE PUSH1 0x20 ADD DUP3 DUP1 SLOAD PUSH2 0x15B5 SWAP1 PUSH2 0x3D93 JUMP JUMPDEST DUP1 ISZERO PUSH2 0x1602 JUMPI DUP1 PUSH1 0x1F LT PUSH2 0x15D7 JUMPI PUSH2 0x100 DUP1 DUP4 SLOAD DIV MUL DUP4 MSTORE SWAP2 PUSH1 0x20 ADD SWAP2 PUSH2 0x1602 JUMP JUMPDEST DUP3 ADD SWAP2 SWAP1 PUSH1 0x0 MSTORE PUSH1 0x20 PUSH1 0x0 KECCAK256 SWAP1 JUMPDEST DUP2 SLOAD DUP2 MSTORE SWAP1 PUSH1 0x1 ADD SWAP1 PUSH1 0x20 ADD DUP1 DUP4 GT PUSH2 0x15E5 JUMPI DUP3 SWAP1 SUB PUSH1 0x1F AND DUP3 ADD SWAP2 JUMPDEST POP POP POP POP POP DUP2 MSTORE PUSH1 0x20 ADD PUSH1 0x4 DUP3 ADD DUP1 SLOAD PUSH2 0x161B SWAP1 PUSH2 0x3D93 JUMP JUMPDEST DUP1 PUSH1 0x1F ADD PUSH1 0x20 DUP1 SWAP2 DIV MUL PUSH1 0x20 ADD PUSH1 0x40 MLOAD SWAP1 DUP2 ADD PUSH1 0x40 MSTORE DUP1 SWAP3 SWAP2 SWAP1 DUP2 DUP2 MSTORE PUSH1 0x20 ADD DUP3 DUP1 SLOAD PUSH2 0x1647 SWAP1 PUSH2 0x3D93 JUMP JUMPDEST DUP1 ISZERO PUSH2 0x1694 JUMPI DUP1 PUSH1 0x1F LT PUSH2 0x1669 JUMPI PUSH2 0x100 DUP1 DUP4 SLOAD DIV MUL DUP4 MSTORE SWAP2 PUSH1 0x20 ADD SWAP2 PUSH2 0x1694 JUMP JUMPDEST DUP3 ADD SWAP2 SWAP1 PUSH1 0x0 MSTORE PUSH1 0x20 PUSH1 0x0 KECCAK256 SWAP1 JUMPDEST DUP2 SLOAD DUP2 MSTORE SWAP1 PUSH1 0x1 ADD SWAP1 PUSH1 0x20 ADD DUP1 DUP4 GT PUSH2 0x1677 JUMPI DUP3 SWAP1 SUB PUSH1 0x1F AND DUP3 ADD SWAP2 JUMPDEST POP POP POP POP POP DUP2 MSTORE PUSH1 0x20 ADD PUSH1 0x5 DUP3 ADD DUP1 SLOAD PUSH2 0x16AD SWAP1 PUSH2 0x3D93 JUMP JUMPDEST DUP1 PUSH1 0x1F ADD PUSH1 0x20 DUP1 SWAP2 DIV MUL PUSH1 0x20 ADD PUSH1 0x40 MLOAD SWAP1 DUP2 ADD PUSH1 0x40 MSTORE DUP1 SWAP3 SWAP2 SWAP1 DUP2 DUP2 MSTORE PUSH1 0x20 ADD DUP3 DUP1 SLOAD PUSH2 0x16D9 SWAP1 PUSH2 0x3D93 JUMP JUMPDEST DUP1 ISZERO PUSH2 0x1726 JUMPI DUP1 PUSH1 0x1F LT PUSH2 0x16FB JUMPI PUSH2 0x100 DUP1 DUP4 SLOAD DIV MUL DUP4 MSTORE SWAP2 PUSH1 0x20 ADD SWAP2 PUSH2 0x1726 JUMP JUMPDEST DUP3 ADD SWAP2 SWAP1 PUSH1 0x0 MSTORE PUSH1 0x20 PUSH1 0x0 KECCAK256 SWAP1 JUMPDEST DUP2 SLOAD DUP2 MSTORE SWAP1 PUSH1 0x1 ADD SWAP1 PUSH1 0x20 ADD DUP1 DUP4 GT PUSH2 0x1709 JUMPI DUP3 SWAP1 SUB PUSH1 0x1F AND DUP3 ADD SWAP2 JUMPDEST POP POP POP POP POP DUP2 MSTORE PUSH1 0x20 ADD PUSH1 0x6 DUP3 ADD SLOAD DUP2 MSTORE PUSH1 0x20 ADD PUSH1 0x7 DUP3 ADD SLOAD DUP2 MSTORE PUSH1 0x20 ADD PUSH1 0x8 DUP3 ADD SLOAD DUP2 MSTORE PUSH1 0x20 ADD PUSH1 0x9 DUP3 ADD DUP1 SLOAD PUSH2 0x175D SWAP1 PUSH2 0x3D93 JUMP JUMPDEST DUP1 PUSH1 0x1F ADD PUSH1 0x20 DUP1 SWAP2 DIV MUL PUSH1 0x20 ADD PUSH1 0x40 MLOAD SWAP1 DUP2 ADD PUSH1 0x40 MSTORE DUP1 SWAP3 SWAP2 SWAP1 DUP2 DUP2 MSTORE PUSH1 0x20 ADD DUP3 DUP1 SLOAD PUSH2 0x1789 SWAP1 PUSH2 0x3D93 JUMP JUMPDEST DUP1 ISZERO PUSH2 0x17D6 JUMPI DUP1 PUSH1 0x1F LT PUSH2 0x17AB JUMPI PUSH2 0x100 DUP1 DUP4 SLOAD DIV MUL DUP4 MSTORE SWAP2 PUSH1 0x20 ADD SWAP2 PUSH2 0x17D6 JUMP JUMPDEST DUP3 ADD SWAP2 SWAP1 PUSH1 0x0 MSTORE PUSH1 0x20 PUSH1 0x0 KECCAK256 SWAP1 JUMPDEST DUP2 SLOAD DUP2 MSTORE SWAP1 PUSH1 0x1 ADD SWAP1 PUSH1 0x20 ADD DUP1 DUP4 GT PUSH2 0x17B9 JUMPI DUP3 SWAP1 SUB PUSH1 0x1F AND DUP3 ADD SWAP2 JUMPDEST POP POP POP SWAP2 DUP4 MSTORE POP POP PUSH1 0xA DUP3 ADD SLOAD PUSH1 0x20 DUP3 ADD MSTORE PUSH1 0xB DUP3 ADD SLOAD PUSH1 0x40 SWAP1 SWAP2 ADD SWAP1 PUSH1 0xFF AND PUSH1 0x4 DUP2 GT ISZERO PUSH2 0x1807 JUMPI PUSH2 0x1807 PUSH2 0x377A JUMP JUMPDEST PUSH1 0x4 DUP2 GT ISZERO PUSH2 0x1818 JUMPI PUSH2 0x1818 PUSH2 0x377A JUMP JUMPDEST DUP2 MSTORE PUSH1 0xB DUP3 ADD SLOAD PUSH2 0x100 SWAP1 DIV PUSH1 0xFF AND PUSH1 0x20 DUP1 DUP4 ADD SWAP2 SWAP1 SWAP2 MSTORE PUSH1 0xC DUP4 ADD DUP1 SLOAD PUSH1 0x40 DUP1 MLOAD DUP3 DUP6 MUL DUP2 ADD DUP6 ADD DUP3 MSTORE DUP3 DUP2 MSTORE SWAP5 ADD SWAP4 SWAP3 DUP4 ADD DUP3 DUP3 DUP1 ISZERO PUSH2 0x1883 JUMPI PUSH1 0x20 MUL DUP3 ADD SWAP2 SWAP1 PUSH1 0x0 MSTORE PUSH1 0x20 PUSH1 0x0 KECCAK256 SWAP1 JUMPDEST DUP2 SLOAD PUSH1 0x1 PUSH1 0x1 PUSH1 0xA0 SHL SUB AND DUP2 MSTORE PUSH1 0x1 SWAP1 SWAP2 ADD SWAP1 PUSH1 0x20 ADD DUP1 DUP4 GT PUSH2 0x1865 JUMPI JUMPDEST POP POP POP POP POP DUP2 MSTORE POP POP DUP4 DUP4 DUP1 PUSH2 0x1898 SWAP1 PUSH2 0x3D7A JUMP JUMPDEST SWAP5 POP DUP2 MLOAD DUP2 LT PUSH2 0x18AA JUMPI PUSH2 0x18AA PUSH2 0x3DCD JUMP JUMPDEST PUSH1 0x20 MUL PUSH1 0x20 ADD ADD DUP2 SWAP1 MSTORE POP JUMPDEST DUP1 PUSH2 0x18C0 DUP2 PUSH2 0x3D7A JUMP JUMPDEST SWAP2 POP POP PUSH2 0x14DD JUMP JUMPDEST PUSH1 0x5 PUSH1 0x20 MSTORE PUSH1 0x0 SWAP1 DUP2 MSTORE PUSH1 0x40 SWAP1 KECCAK256 DUP1 SLOAD PUSH1 0x1 DUP3 ADD SLOAD PUSH1 0x2 DUP4 ADD SLOAD PUSH1 0x3 DUP5 ADD DUP1 SLOAD SWAP4 SWAP5 PUSH1 0x1 PUSH1 0x1 PUSH1 0xA0 SHL SUB SWAP4 DUP5 AND SWAP5 SWAP4 SWAP1 SWAP3 AND SWAP3 PUSH2 0x1904 SWAP1 PUSH2 0x3D93 JUMP JUMPDEST DUP1 PUSH1 0x1F ADD PUSH1 0x20 DUP1 SWAP2 DIV MUL PUSH1 0x20 ADD PUSH1 0x40 MLOAD SWAP1 DUP2 ADD PUSH1 0x40 MSTORE DUP1 SWAP3 SWAP2 SWAP1 DUP2 DUP2 MSTORE PUSH1 0x20 ADD DUP3 DUP1 SLOAD PUSH2 0x1930 SWAP1 PUSH2 0x3D93 JUMP JUMPDEST DUP1 ISZERO PUSH2 0x197D JUMPI DUP1 PUSH1 0x1F LT PUSH2 0x1952 JUMPI PUSH2 0x100 DUP1 DUP4 SLOAD DIV MUL DUP4 MSTORE SWAP2 PUSH1 0x20 ADD SWAP2 PUSH2 0x197D JUMP JUMPDEST DUP3 ADD SWAP2 SWAP1 PUSH1 0x0 MSTORE PUSH1 0x20 PUSH1 0x0 KECCAK256 SWAP1 JUMPDEST DUP2 SLOAD DUP2 MSTORE SWAP1 PUSH1 0x1 ADD SWAP1 PUSH1 0x20 ADD DUP1 DUP4 GT PUSH2 0x1960 JUMPI DUP3 SWAP1 SUB PUSH1 0x1F AND DUP3 ADD SWAP2 JUMPDEST POP POP POP POP POP SWAP1 DUP1 PUSH1 0x4 ADD DUP1 SLOAD PUSH2 0x1992 SWAP1 PUSH2 0x3D93 JUMP JUMPDEST DUP1 PUSH1 0x1F ADD PUSH1 0x20 DUP1 SWAP2 DIV MUL PUSH1 0x20 ADD PUSH1 0x40 MLOAD SWAP1 DUP2 ADD PUSH1 0x40 MSTORE DUP1 SWAP3 SWAP2 SWAP1 DUP2 DUP2 MSTORE PUSH1 0x20 ADD DUP3 DUP1 SLOAD PUSH2 0x19BE SWAP1 PUSH2 0x3D93 JUMP JUMPDEST DUP1 ISZERO PUSH2 0x1A0B JUMPI DUP1 PUSH1 0x1F LT PUSH2 0x19E0 JUMPI PUSH2 0x100 DUP1 DUP4 SLOAD DIV MUL DUP4 MSTORE SWAP2 PUSH1 0x20 ADD SWAP2 PUSH2 0x1A0B JUMP JUMPDEST DUP3 ADD SWAP2 SWAP1 PUSH1 0x0 MSTORE PUSH1 0x20 PUSH1 0x0 KECCAK256 SWAP1 JUMPDEST DUP2 SLOAD DUP2 MSTORE SWAP1 PUSH1 0x1 ADD SWAP1 PUSH1 0x20 ADD DUP1 DUP4 GT PUSH2 0x19EE JUMPI DUP3 SWAP1 SUB PUSH1 0x1F AND DUP3 ADD SWAP2 JUMPDEST POP POP POP POP POP SWAP1 DUP1 PUSH1 0x5 ADD DUP1 SLOAD PUSH2 0x1A20 SWAP1 PUSH2 0x3D93 JUMP JUMPDEST DUP1 PUSH1 0x1F ADD PUSH1 0x20 DUP1 SWAP2 DIV MUL PUSH1 0x20 ADD PUSH1 0x40 MLOAD SWAP1 DUP2 ADD PUSH1 0x40 MSTORE DUP1 SWAP3 SWAP2 SWAP1 DUP2 DUP2 MSTORE PUSH1 0x20 ADD DUP3 DUP1 SLOAD PUSH2 0x1A4C SWAP1 PUSH2 0x3D93 JUMP JUMPDEST DUP1 ISZERO PUSH2 0x1A99 JUMPI DUP1 PUSH1 0x1F LT PUSH2 0x1A6E JUMPI PUSH2 0x100 DUP1 DUP4 SLOAD DIV MUL DUP4 MSTORE SWAP2 PUSH1 0x20 ADD SWAP2 PUSH2 0x1A99 JUMP JUMPDEST DUP3 ADD SWAP2 SWAP1 PUSH1 0x0 MSTORE PUSH1 0x20 PUSH1 0x0 KECCAK256 SWAP1 JUMPDEST DUP2 SLOAD DUP2 MSTORE SWAP1 PUSH1 0x1 ADD SWAP1 PUSH1 0x20 ADD DUP1 DUP4 GT PUSH2 0x1A7C JUMPI DUP3 SWAP1 SUB PUSH1 0x1F AND DUP3 ADD SWAP2 JUMPDEST POP POP POP POP POP SWAP1 DUP1 PUSH1 0x6 ADD SLOAD SWAP1 DUP1 PUSH1 0x7 ADD SLOAD SWAP1 DUP1 PUSH1 0x8 ADD SLOAD SWAP1 DUP1 PUSH1 0x9 ADD DUP1 SLOAD PUSH2 0x1AC0 SWAP1 PUSH2 0x3D93 JUMP JUMPDEST DUP1 PUSH1 0x1F ADD PUSH1 0x20 DUP1 SWAP2 DIV MUL PUSH1 0x20 ADD PUSH1 0x40 MLOAD SWAP1 DUP2 ADD PUSH1 0x40 MSTORE DUP1 SWAP3 SWAP2 SWAP1 DUP2 DUP2 MSTORE PUSH1 0x20 ADD DUP3 DUP1 SLOAD PUSH2 0x1AEC SWAP1 PUSH2 0x3D93 JUMP JUMPDEST DUP1 ISZERO PUSH2 0x1B39 JUMPI DUP1 PUSH1 0x1F LT PUSH2 0x1B0E JUMPI PUSH2 0x100 DUP1 DUP4 SLOAD DIV MUL DUP4 MSTORE SWAP2 PUSH1 0x20 ADD SWAP2 PUSH2 0x1B39 JUMP JUMPDEST DUP3 ADD SWAP2 SWAP1 PUSH1 0x0 MSTORE PUSH1 0x20 PUSH1 0x0 KECCAK256 SWAP1 JUMPDEST DUP2 SLOAD DUP2 MSTORE SWAP1 PUSH1 0x1 ADD SWAP1 PUSH1 0x20 ADD DUP1 DUP4 GT PUSH2 0x1B1C JUMPI DUP3 SWAP1 SUB PUSH1 0x1F AND DUP3 ADD SWAP2 JUMPDEST POP POP POP POP PUSH1 0xA DUP4 ADD SLOAD PUSH1 0xB SWAP1 SWAP4 ADD SLOAD SWAP2 SWAP3 SWAP2 PUSH1 0xFF DUP1 DUP3 AND SWAP3 POP PUSH2 0x100 SWAP1 SWAP2 DIV AND DUP14 JUMP JUMPDEST PUSH2 0x1B64 PUSH2 0x34EA JUMP JUMPDEST PUSH2 0x1B6E PUSH1 0x0 PUSH2 0x3544 JUMP JUMPDEST JUMP JUMPDEST PUSH1 0x60 PUSH1 0x0 PUSH1 0x1 JUMPDEST PUSH1 0x3 SLOAD DUP2 GT PUSH2 0x1BDC JUMPI PUSH1 0x0 DUP2 DUP2 MSTORE PUSH1 0x7 PUSH1 0x20 MSTORE PUSH1 0x40 SWAP1 KECCAK256 SLOAD PUSH1 0xFF AND DUP1 ISZERO PUSH2 0x1BB7 JUMPI POP PUSH1 0x0 DUP2 DUP2 MSTORE PUSH1 0x5 PUSH1 0x20 MSTORE PUSH1 0x40 SWAP1 KECCAK256 PUSH1 0x1 ADD SLOAD PUSH1 0x1 PUSH1 0x1 PUSH1 0xA0 SHL SUB AND CALLER EQ JUMPDEST ISZERO PUSH2 0x1BCA JUMPI DUP2 PUSH2 0x1BC6 DUP2 PUSH2 0x3D7A JUMP JUMPDEST SWAP3 POP POP JUMPDEST DUP1 PUSH2 0x1BD4 DUP2 PUSH2 0x3D7A JUMP JUMPDEST SWAP2 POP POP PUSH2 0x1B77 JUMP JUMPDEST POP PUSH1 0x0 DUP2 PUSH1 0x1 PUSH1 0x1 PUSH1 0x40 SHL SUB DUP2 GT ISZERO PUSH2 0x1BF7 JUMPI PUSH2 0x1BF7 PUSH2 0x3AD5 JUMP JUMPDEST PUSH1 0x40 MLOAD SWAP1 DUP1 DUP3 MSTORE DUP1 PUSH1 0x20 MUL PUSH1 0x20 ADD DUP3 ADD PUSH1 0x40 MSTORE DUP1 ISZERO PUSH2 0x1C30 JUMPI DUP2 PUSH1 0x20 ADD JUMPDEST PUSH2 0x1C1D PUSH2 0x35ED JUMP JUMPDEST DUP2 MSTORE PUSH1 0x20 ADD SWAP1 PUSH1 0x1 SWAP1 SUB SWAP1 DUP2 PUSH2 0x1C15 JUMPI SWAP1 POP JUMPDEST POP SWAP1 POP PUSH1 0x0 PUSH1 0x1 JUMPDEST PUSH1 0x3 SLOAD DUP2 GT PUSH2 0x826 JUMPI PUSH1 0x0 DUP2 DUP2 MSTORE PUSH1 0x7 PUSH1 0x20 MSTORE PUSH1 0x40 SWAP1 KECCAK256 SLOAD PUSH1 0xFF AND DUP1 ISZERO PUSH2 0x1C78 JUMPI POP PUSH1 0x0 DUP2 DUP2 MSTORE PUSH1 0x5 PUSH1 0x20 MSTORE PUSH1 0x40 SWAP1 KECCAK256 PUSH1 0x1 ADD SLOAD PUSH1 0x1 PUSH1 0x1 PUSH1 0xA0 SHL SUB AND CALLER EQ JUMPDEST ISZERO PUSH2 0x2007 JUMPI PUSH1 0x0 DUP2 DUP2 MSTORE PUSH1 0x5 PUSH1 0x20 SWAP1 DUP2 MSTORE PUSH1 0x40 SWAP2 DUP3 SWAP1 KECCAK256 DUP3 MLOAD PUSH2 0x1C0 DUP2 ADD DUP5 MSTORE DUP2 SLOAD DUP2 MSTORE PUSH1 0x1 DUP3 ADD SLOAD PUSH1 0x1 PUSH1 0x1 PUSH1 0xA0 SHL SUB SWAP1 DUP2 AND SWAP4 DUP3 ADD SWAP4 SWAP1 SWAP4 MSTORE PUSH1 0x2 DUP3 ADD SLOAD SWAP1 SWAP3 AND SWAP3 DUP3 ADD SWAP3 SWAP1 SWAP3 MSTORE PUSH1 0x3 DUP3 ADD DUP1 SLOAD SWAP2 SWAP3 SWAP2 PUSH1 0x60 DUP5 ADD SWAP2 SWAP1 PUSH2 0x1CDA SWAP1 PUSH2 0x3D93 JUMP JUMPDEST DUP1 PUSH1 0x1F ADD PUSH1 0x20 DUP1 SWAP2 DIV MUL PUSH1 0x20 ADD PUSH1 0x40 MLOAD SWAP1 DUP2 ADD PUSH1 0x40 MSTORE DUP1 SWAP3 SWAP2 SWAP1 DUP2 DUP2 MSTORE PUSH1 0x20 ADD DUP3 DUP1 SLOAD PUSH2 0x1D06 SWAP1 PUSH2 0x3D93 JUMP JUMPDEST DUP1 ISZERO PUSH2 0x1D53 JUMPI DUP1 PUSH1 0x1F LT PUSH2 0x1D28 JUMPI PUSH2 0x100 DUP1 DUP4 SLOAD DIV MUL DUP4 MSTORE SWAP2 PUSH1 0x20 ADD SWAP2 PUSH2 0x1D53 JUMP JUMPDEST DUP3 ADD SWAP2 SWAP1 PUSH1 0x0 MSTORE PUSH1 0x20 PUSH1 0x0 KECCAK256 SWAP1 JUMPDEST DUP2 SLOAD DUP2 MSTORE SWAP1 PUSH1 0x1 ADD SWAP1 PUSH1 0x20 ADD DUP1 DUP4 GT PUSH2 0x1D36 JUMPI DUP3 SWAP1 SUB PUSH1 0x1F AND DUP3 ADD SWAP2 JUMPDEST POP POP POP POP POP DUP2 MSTORE PUSH1 0x20 ADD PUSH1 0x4 DUP3 ADD DUP1 SLOAD PUSH2 0x1D6C SWAP1 PUSH2 0x3D93 JUMP JUMPDEST DUP1 PUSH1 0x1F ADD PUSH1 0x20 DUP1 SWAP2 DIV MUL PUSH1 0x20 ADD PUSH1 0x40 MLOAD SWAP1 DUP2 ADD PUSH1 0x40 MSTORE DUP1 SWAP3 SWAP2 SWAP1 DUP2 DUP2 MSTORE PUSH1 0x20 ADD DUP3 DUP1 SLOAD PUSH2 0x1D98 SWAP1 PUSH2 0x3D93 JUMP JUMPDEST DUP1 ISZERO PUSH2 0x1DE5 JUMPI DUP1 PUSH1 0x1F LT PUSH2 0x1DBA JUMPI PUSH2 0x100 DUP1 DUP4 SLOAD DIV MUL DUP4 MSTORE SWAP2 PUSH1 0x20 ADD SWAP2 PUSH2 0x1DE5 JUMP JUMPDEST DUP3 ADD SWAP2 SWAP1 PUSH1 0x0 MSTORE PUSH1 0x20 PUSH1 0x0 KECCAK256 SWAP1 JUMPDEST DUP2 SLOAD DUP2 MSTORE SWAP1 PUSH1 0x1 ADD SWAP1 PUSH1 0x20 ADD DUP1 DUP4 GT PUSH2 0x1DC8 JUMPI DUP3 SWAP1 SUB PUSH1 0x1F AND DUP3 ADD SWAP2 JUMPDEST POP POP POP POP POP DUP2 MSTORE PUSH1 0x20 ADD PUSH1 0x5 DUP3 ADD DUP1 SLOAD PUSH2 0x1DFE SWAP1 PUSH2 0x3D93 JUMP JUMPDEST DUP1 PUSH1 0x1F ADD PUSH1 0x20 DUP1 SWAP2 DIV MUL PUSH1 0x20 ADD PUSH1 0x40 MLOAD SWAP1 DUP2 ADD PUSH1 0x40 MSTORE DUP1 SWAP3 SWAP2 SWAP1 DUP2 DUP2 MSTORE PUSH1 0x20 ADD DUP3 DUP1 SLOAD PUSH2 0x1E2A SWAP1 PUSH2 0x3D93 JUMP JUMPDEST DUP1 ISZERO PUSH2 0x1E77 JUMPI DUP1 PUSH1 0x1F LT PUSH2 0x1E4C JUMPI PUSH2 0x100 DUP1 DUP4 SLOAD DIV MUL DUP4 MSTORE SWAP2 PUSH1 0x20 ADD SWAP2 PUSH2 0x1E77 JUMP JUMPDEST DUP3 ADD SWAP2 SWAP1 PUSH1 0x0 MSTORE PUSH1 0x20 PUSH1 0x0 KECCAK256 SWAP1 JUMPDEST DUP2 SLOAD DUP2 MSTORE SWAP1 PUSH1 0x1 ADD SWAP1 PUSH1 0x20 ADD DUP1 DUP4 GT PUSH2 0x1E5A JUMPI DUP3 SWAP1 SUB PUSH1 0x1F AND DUP3 ADD SWAP2 JUMPDEST POP POP POP POP POP DUP2 MSTORE PUSH1 0x20 ADD PUSH1 0x6 DUP3 ADD SLOAD DUP2 MSTORE PUSH1 0x20 ADD PUSH1 0x7 DUP3 ADD SLOAD DUP2 MSTORE PUSH1 0x20 ADD PUSH1 0x8 DUP3 ADD SLOAD DUP2 MSTORE PUSH1 0x20 ADD PUSH1 0x9 DUP3 ADD DUP1 SLOAD PUSH2 0x1EAE SWAP1 PUSH2 0x3D93 JUMP JUMPDEST DUP1 PUSH1 0x1F ADD PUSH1 0x20 DUP1 SWAP2 DIV MUL PUSH1 0x20 ADD PUSH1 0x40 MLOAD SWAP1 DUP2 ADD PUSH1 0x40 MSTORE DUP1 SWAP3 SWAP2 SWAP1 DUP2 DUP2 MSTORE PUSH1 0x20 ADD DUP3 DUP1 SLOAD PUSH2 0x1EDA SWAP1 PUSH2 0x3D93 JUMP JUMPDEST DUP1 ISZERO PUSH2 0x1F27 JUMPI DUP1 PUSH1 0x1F LT PUSH2 0x1EFC JUMPI PUSH2 0x100 DUP1 DUP4 SLOAD DIV MUL DUP4 MSTORE SWAP2 PUSH1 0x20 ADD SWAP2 PUSH2 0x1F27 JUMP JUMPDEST DUP3 ADD SWAP2 SWAP1 PUSH1 0x0 MSTORE PUSH1 0x20 PUSH1 0x0 KECCAK256 SWAP1 JUMPDEST DUP2 SLOAD DUP2 MSTORE SWAP1 PUSH1 0x1 ADD SWAP1 PUSH1 0x20 ADD DUP1 DUP4 GT PUSH2 0x1F0A JUMPI DUP3 SWAP1 SUB PUSH1 0x1F AND DUP3 ADD SWAP2 JUMPDEST POP POP POP SWAP2 DUP4 MSTORE POP POP PUSH1 0xA DUP3 ADD SLOAD PUSH1 0x20 DUP3 ADD MSTORE PUSH1 0xB DUP3 ADD SLOAD PUSH1 0x40 SWAP1 SWAP2 ADD SWAP1 PUSH1 0xFF AND PUSH1 0x4 DUP2 GT ISZERO PUSH2 0x1F58 JUMPI PUSH2 0x1F58 PUSH2 0x377A JUMP JUMPDEST PUSH1 0x4 DUP2 GT ISZERO PUSH2 0x1F69 JUMPI PUSH2 0x1F69 PUSH2 0x377A JUMP JUMPDEST DUP2 MSTORE PUSH1 0xB DUP3 ADD SLOAD PUSH2 0x100 SWAP1 DIV PUSH1 0xFF AND PUSH1 0x20 DUP1 DUP4 ADD SWAP2 SWAP1 SWAP2 MSTORE PUSH1 0xC DUP4 ADD DUP1 SLOAD PUSH1 0x40 DUP1 MLOAD DUP3 DUP6 MUL DUP2 ADD DUP6 ADD DUP3 MSTORE DUP3 DUP2 MSTORE SWAP5 ADD SWAP4 SWAP3 DUP4 ADD DUP3 DUP3 DUP1 ISZERO PUSH2 0x1FD4 JUMPI PUSH1 0x20 MUL DUP3 ADD SWAP2 SWAP1 PUSH1 0x0 MSTORE PUSH1 0x20 PUSH1 0x0 KECCAK256 SWAP1 JUMPDEST DUP2 SLOAD PUSH1 0x1 PUSH1 0x1 PUSH1 0xA0 SHL SUB AND DUP2 MSTORE PUSH1 0x1 SWAP1 SWAP2 ADD SWAP1 PUSH1 0x20 ADD DUP1 DUP4 GT PUSH2 0x1FB6 JUMPI JUMPDEST POP POP POP POP POP DUP2 MSTORE POP POP DUP4 DUP4 DUP1 PUSH2 0x1FE9 SWAP1 PUSH2 0x3D7A JUMP JUMPDEST SWAP5 POP DUP2 MLOAD DUP2 LT PUSH2 0x1FFB JUMPI PUSH2 0x1FFB PUSH2 0x3DCD JUMP JUMPDEST PUSH1 0x20 MUL PUSH1 0x20 ADD ADD DUP2 SWAP1 MSTORE POP JUMPDEST DUP1 PUSH2 0x2011 DUP2 PUSH2 0x3D7A JUMP JUMPDEST SWAP2 POP POP PUSH2 0x1C38 JUMP JUMPDEST PUSH1 0x0 DUP7 DUP2 MSTORE PUSH1 0x5 PUSH1 0x20 MSTORE PUSH1 0x40 SWAP1 KECCAK256 PUSH1 0x1 ADD SLOAD DUP7 SWAP1 PUSH1 0x1 PUSH1 0x1 PUSH1 0xA0 SHL SUB AND CALLER EQ PUSH2 0x2054 JUMPI PUSH1 0x40 MLOAD PUSH3 0x461BCD PUSH1 0xE5 SHL DUP2 MSTORE PUSH1 0x4 ADD PUSH2 0x86A SWAP1 PUSH2 0x3DE3 JUMP JUMPDEST PUSH1 0x0 DUP8 DUP2 MSTORE PUSH1 0x7 PUSH1 0x20 MSTORE PUSH1 0x40 SWAP1 KECCAK256 SLOAD PUSH1 0xFF AND PUSH2 0x2082 JUMPI PUSH1 0x40 MLOAD PUSH3 0x461BCD PUSH1 0xE5 SHL DUP2 MSTORE PUSH1 0x4 ADD PUSH2 0x86A SWAP1 PUSH2 0x3E10 JUMP JUMPDEST PUSH1 0x0 DUP8 DUP2 MSTORE PUSH1 0x5 PUSH1 0x20 MSTORE PUSH1 0x40 DUP2 KECCAK256 PUSH1 0xB ADD SLOAD PUSH1 0xFF AND PUSH1 0x4 DUP2 GT ISZERO PUSH2 0x20A8 JUMPI PUSH2 0x20A8 PUSH2 0x377A JUMP JUMPDEST EQ PUSH2 0x20C5 JUMPI PUSH1 0x40 MLOAD PUSH3 0x461BCD PUSH1 0xE5 SHL DUP2 MSTORE PUSH1 0x4 ADD PUSH2 0x86A SWAP1 PUSH2 0x3E47 JUMP JUMPDEST PUSH1 0x0 DUP8 DUP2 MSTORE PUSH1 0x5 PUSH1 0x20 MSTORE PUSH1 0x40 SWAP1 KECCAK256 PUSH1 0x3 ADD PUSH2 0x20E0 DUP8 DUP3 PUSH2 0x3EE9 JUMP JUMPDEST POP PUSH1 0x0 DUP8 DUP2 MSTORE PUSH1 0x5 PUSH1 0x20 MSTORE PUSH1 0x40 SWAP1 KECCAK256 PUSH1 0x4 ADD PUSH2 0x20FC DUP7 DUP3 PUSH2 0x3EE9 JUMP JUMPDEST POP PUSH1 0x0 DUP8 DUP2 MSTORE PUSH1 0x5 PUSH1 0x20 DUP2 SWAP1 MSTORE PUSH1 0x40 SWAP1 SWAP2 KECCAK256 ADD PUSH2 0x2119 DUP6 DUP3 PUSH2 0x3EE9 JUMP JUMPDEST POP POP PUSH1 0x0 SWAP6 DUP7 MSTORE PUSH1 0x5 PUSH1 0x20 MSTORE PUSH1 0x40 SWAP1 SWAP6 KECCAK256 PUSH1 0x6 DUP2 ADD SWAP2 SWAP1 SWAP2 SSTORE PUSH1 0x7 ADD SWAP4 SWAP1 SWAP4 SSTORE POP POP POP JUMP JUMPDEST PUSH1 0x0 DUP2 DUP2 MSTORE PUSH1 0x5 PUSH1 0x20 MSTORE PUSH1 0x40 SWAP1 KECCAK256 PUSH1 0x1 ADD SLOAD DUP2 SWAP1 PUSH1 0x1 PUSH1 0x1 PUSH1 0xA0 SHL SUB AND CALLER EQ DUP1 PUSH2 0x2181 JUMPI POP PUSH1 0x0 DUP2 DUP2 MSTORE PUSH1 0x5 PUSH1 0x20 MSTORE PUSH1 0x40 SWAP1 KECCAK256 PUSH1 0x2 ADD SLOAD PUSH1 0x1 PUSH1 0x1 PUSH1 0xA0 SHL SUB AND CALLER EQ JUMPDEST PUSH2 0x21DE JUMPI PUSH1 0x40 MLOAD PUSH3 0x461BCD PUSH1 0xE5 SHL DUP2 MSTORE PUSH1 0x20 PUSH1 0x4 DUP3 ADD MSTORE PUSH1 0x28 PUSH1 0x24 DUP3 ADD MSTORE PUSH32 0x4F6E6C79206A6F6220706172746965732063616E20706572666F726D20746869 PUSH1 0x44 DUP3 ADD MSTORE PUSH8 0x399030B1BA34B7B7 PUSH1 0xC1 SHL PUSH1 0x64 DUP3 ADD MSTORE PUSH1 0x84 ADD PUSH2 0x86A JUMP JUMPDEST PUSH1 0x0 DUP3 DUP2 MSTORE PUSH1 0x7 PUSH1 0x20 MSTORE PUSH1 0x40 SWAP1 KECCAK256 SLOAD PUSH1 0xFF AND PUSH2 0x220C JUMPI PUSH1 0x40 MLOAD PUSH3 0x461BCD PUSH1 0xE5 SHL DUP2 MSTORE PUSH1 0x4 ADD PUSH2 0x86A SWAP1 PUSH2 0x3E10 JUMP JUMPDEST PUSH1 0x2 PUSH1 0x0 DUP4 DUP2 MSTORE PUSH1 0x5 PUSH1 0x20 MSTORE PUSH1 0x40 SWAP1 KECCAK256 PUSH1 0xB ADD SLOAD PUSH1 0xFF AND PUSH1 0x4 DUP2 GT ISZERO PUSH2 0x2234 JUMPI PUSH2 0x2234 PUSH2 0x377A JUMP JUMPDEST EQ PUSH2 0x2292 JUMPI PUSH1 0x40 MLOAD PUSH3 0x461BCD PUSH1 0xE5 SHL DUP2 MSTORE PUSH1 0x20 PUSH1 0x4 DUP3 ADD MSTORE PUSH1 0x28 PUSH1 0x24 DUP3 ADD MSTORE PUSH32 0x4A6F62206D75737420626520636F6D706C6574656420746F2072616973652061 PUSH1 0x44 DUP3 ADD MSTORE PUSH8 0x2064697370757465 PUSH1 0xC0 SHL PUSH1 0x64 DUP3 ADD MSTORE PUSH1 0x84 ADD PUSH2 0x86A JUMP JUMPDEST PUSH1 0x0 DUP3 DUP2 MSTORE PUSH1 0x5 PUSH1 0x20 MSTORE PUSH1 0x40 DUP1 DUP3 KECCAK256 PUSH1 0xB ADD DUP1 SLOAD PUSH1 0xFF NOT AND PUSH1 0x3 OR SWAP1 SSTORE MLOAD CALLER SWAP2 DUP5 SWAP2 PUSH32 0x84A477DF8A28A4276CA6DEE4458A06C3015F30C477D9C949EDE4E13FF8A552B4 SWAP2 SWAP1 LOG3 POP POP JUMP JUMPDEST PUSH2 0x22E4 PUSH2 0x35ED JUMP JUMPDEST PUSH1 0x0 DUP3 DUP2 MSTORE PUSH1 0x5 PUSH1 0x20 SWAP1 DUP2 MSTORE PUSH1 0x40 SWAP2 DUP3 SWAP1 KECCAK256 DUP3 MLOAD PUSH2 0x1C0 DUP2 ADD DUP5 MSTORE DUP2 SLOAD DUP2 MSTORE PUSH1 0x1 DUP3 ADD SLOAD PUSH1 0x1 PUSH1 0x1 PUSH1 0xA0 SHL SUB SWAP1 DUP2 AND SWAP4 DUP3 ADD SWAP4 SWAP1 SWAP4 MSTORE PUSH1 0x2 DUP3 ADD SLOAD SWAP1 SWAP3 AND SWAP3 DUP3 ADD SWAP3 SWAP1 SWAP3 MSTORE PUSH1 0x3 DUP3 ADD DUP1 SLOAD SWAP2 SWAP3 SWAP2 PUSH1 0x60 DUP5 ADD SWAP2 SWAP1 PUSH2 0x2341 SWAP1 PUSH2 0x3D93 JUMP JUMPDEST DUP1 PUSH1 0x1F ADD PUSH1 0x20 DUP1 SWAP2 DIV MUL PUSH1 0x20 ADD PUSH1 0x40 MLOAD SWAP1 DUP2 ADD PUSH1 0x40 MSTORE DUP1 SWAP3 SWAP2 SWAP1 DUP2 DUP2 MSTORE PUSH1 0x20 ADD DUP3 DUP1 SLOAD PUSH2 0x236D SWAP1 PUSH2 0x3D93 JUMP JUMPDEST DUP1 ISZERO PUSH2 0x23BA JUMPI DUP1 PUSH1 0x1F LT PUSH2 0x238F JUMPI PUSH2 0x100 DUP1 DUP4 SLOAD DIV MUL DUP4 MSTORE SWAP2 PUSH1 0x20 ADD SWAP2 PUSH2 0x23BA JUMP JUMPDEST DUP3 ADD SWAP2 SWAP1 PUSH1 0x0 MSTORE PUSH1 0x20 PUSH1 0x0 KECCAK256 SWAP1 JUMPDEST DUP2 SLOAD DUP2 MSTORE SWAP1 PUSH1 0x1 ADD SWAP1 PUSH1 0x20 ADD DUP1 DUP4 GT PUSH2 0x239D JUMPI DUP3 SWAP1 SUB PUSH1 0x1F AND DUP3 ADD SWAP2 JUMPDEST POP POP POP POP POP DUP2 MSTORE PUSH1 0x20 ADD PUSH1 0x4 DUP3 ADD DUP1 SLOAD PUSH2 0x23D3 SWAP1 PUSH2 0x3D93 JUMP JUMPDEST DUP1 PUSH1 0x1F ADD PUSH1 0x20 DUP1 SWAP2 DIV MUL PUSH1 0x20 ADD PUSH1 0x40 MLOAD SWAP1 DUP2 ADD PUSH1 0x40 MSTORE DUP1 SWAP3 SWAP2 SWAP1 DUP2 DUP2 MSTORE PUSH1 0x20 ADD DUP3 DUP1 SLOAD PUSH2 0x23FF SWAP1 PUSH2 0x3D93 JUMP JUMPDEST DUP1 ISZERO PUSH2 0x244C JUMPI DUP1 PUSH1 0x1F LT PUSH2 0x2421 JUMPI PUSH2 0x100 DUP1 DUP4 SLOAD DIV MUL DUP4 MSTORE SWAP2 PUSH1 0x20 ADD SWAP2 PUSH2 0x244C JUMP JUMPDEST DUP3 ADD SWAP2 SWAP1 PUSH1 0x0 MSTORE PUSH1 0x20 PUSH1 0x0 KECCAK256 SWAP1 JUMPDEST DUP2 SLOAD DUP2 MSTORE SWAP1 PUSH1 0x1 ADD SWAP1 PUSH1 0x20 ADD DUP1 DUP4 GT PUSH2 0x242F JUMPI DUP3 SWAP1 SUB PUSH1 0x1F AND DUP3 ADD SWAP2 JUMPDEST POP POP POP POP POP DUP2 MSTORE PUSH1 0x20 ADD PUSH1 0x5 DUP3 ADD DUP1 SLOAD PUSH2 0x2465 SWAP1 PUSH2 0x3D93 JUMP JUMPDEST DUP1 PUSH1 0x1F ADD PUSH1 0x20 DUP1 SWAP2 DIV MUL PUSH1 0x20 ADD PUSH1 0x40 MLOAD SWAP1 DUP2 ADD PUSH1 0x40 MSTORE DUP1 SWAP3 SWAP2 SWAP1 DUP2 DUP2 MSTORE PUSH1 0x20 ADD DUP3 DUP1 SLOAD PUSH2 0x2491 SWAP1 PUSH2 0x3D93 JUMP JUMPDEST DUP1 ISZERO PUSH2 0x24DE JUMPI DUP1 PUSH1 0x1F LT PUSH2 0x24B3 JUMPI PUSH2 0x100 DUP1 DUP4 SLOAD DIV MUL DUP4 MSTORE SWAP2 PUSH1 0x20 ADD SWAP2 PUSH2 0x24DE JUMP JUMPDEST DUP3 ADD SWAP2 SWAP1 PUSH1 0x0 MSTORE PUSH1 0x20 PUSH1 0x0 KECCAK256 SWAP1 JUMPDEST DUP2 SLOAD DUP2 MSTORE SWAP1 PUSH1 0x1 ADD SWAP1 PUSH1 0x20 ADD DUP1 DUP4 GT PUSH2 0x24C1 JUMPI DUP3 SWAP1 SUB PUSH1 0x1F AND DUP3 ADD SWAP2 JUMPDEST POP POP POP POP POP DUP2 MSTORE PUSH1 0x20 ADD PUSH1 0x6 DUP3 ADD SLOAD DUP2 MSTORE PUSH1 0x20 ADD PUSH1 0x7 DUP3 ADD SLOAD DUP2 MSTORE PUSH1 0x20 ADD PUSH1 0x8 DUP3 ADD SLOAD DUP2 MSTORE PUSH1 0x20 ADD PUSH1 0x9 DUP3 ADD DUP1 SLOAD PUSH2 0x2515 SWAP1 PUSH2 0x3D93 JUMP JUMPDEST DUP1 PUSH1 0x1F ADD PUSH1 0x20 DUP1 SWAP2 DIV MUL PUSH1 0x20 ADD PUSH1 0x40 MLOAD SWAP1 DUP2 ADD PUSH1 0x40 MSTORE DUP1 SWAP3 SWAP2 SWAP1 DUP2 DUP2 MSTORE PUSH1 0x20 ADD DUP3 DUP1 SLOAD PUSH2 0x2541 SWAP1 PUSH2 0x3D93 JUMP JUMPDEST DUP1 ISZERO PUSH2 0x258E JUMPI DUP1 PUSH1 0x1F LT PUSH2 0x2563 JUMPI PUSH2 0x100 DUP1 DUP4 SLOAD DIV MUL DUP4 MSTORE SWAP2 PUSH1 0x20 ADD SWAP2 PUSH2 0x258E JUMP JUMPDEST DUP3 ADD SWAP2 SWAP1 PUSH1 0x0 MSTORE PUSH1 0x20 PUSH1 0x0 KECCAK256 SWAP1 JUMPDEST DUP2 SLOAD DUP2 MSTORE SWAP1 PUSH1 0x1 ADD SWAP1 PUSH1 0x20 ADD DUP1 DUP4 GT PUSH2 0x2571 JUMPI DUP3 SWAP1 SUB PUSH1 0x1F AND DUP3 ADD SWAP2 JUMPDEST POP POP POP SWAP2 DUP4 MSTORE POP POP PUSH1 0xA DUP3 ADD SLOAD PUSH1 0x20 DUP3 ADD MSTORE PUSH1 0xB DUP3 ADD SLOAD PUSH1 0x40 SWAP1 SWAP2 ADD SWAP1 PUSH1 0xFF AND PUSH1 0x4 DUP2 GT ISZERO PUSH2 0x25BF JUMPI PUSH2 0x25BF PUSH2 0x377A JUMP JUMPDEST PUSH1 0x4 DUP2 GT ISZERO PUSH2 0x25D0 JUMPI PUSH2 0x25D0 PUSH2 0x377A JUMP JUMPDEST DUP2 MSTORE PUSH1 0xB DUP3 ADD SLOAD PUSH2 0x100 SWAP1 DIV PUSH1 0xFF AND PUSH1 0x20 DUP1 DUP4 ADD SWAP2 SWAP1 SWAP2 MSTORE PUSH1 0xC DUP4 ADD DUP1 SLOAD PUSH1 0x40 DUP1 MLOAD DUP3 DUP6 MUL DUP2 ADD DUP6 ADD DUP3 MSTORE DUP3 DUP2 MSTORE SWAP5 ADD SWAP4 SWAP3 DUP4 ADD DUP3 DUP3 DUP1 ISZERO PUSH2 0x263B JUMPI PUSH1 0x20 MUL DUP3 ADD SWAP2 SWAP1 PUSH1 0x0 MSTORE PUSH1 0x20 PUSH1 0x0 KECCAK256 SWAP1 JUMPDEST DUP2 SLOAD PUSH1 0x1 PUSH1 0x1 PUSH1 0xA0 SHL SUB AND DUP2 MSTORE PUSH1 0x1 SWAP1 SWAP2 ADD SWAP1 PUSH1 0x20 ADD DUP1 DUP4 GT PUSH2 0x261D JUMPI JUMPDEST POP POP POP POP POP DUP2 MSTORE POP POP SWAP1 POP SWAP2 SWAP1 POP JUMP JUMPDEST PUSH1 0x60 PUSH1 0x0 PUSH1 0x1 JUMPDEST PUSH1 0x3 SLOAD DUP2 GT PUSH2 0x269D JUMPI PUSH1 0x0 DUP2 DUP2 MSTORE PUSH1 0x8 PUSH1 0x20 SWAP1 DUP2 MSTORE PUSH1 0x40 DUP1 DUP4 KECCAK256 CALLER DUP5 MSTORE SWAP1 SWAP2 MSTORE SWAP1 KECCAK256 SLOAD PUSH1 0xFF AND ISZERO PUSH2 0x268B JUMPI DUP2 PUSH2 0x2687 DUP2 PUSH2 0x3D7A JUMP JUMPDEST SWAP3 POP POP JUMPDEST DUP1 PUSH2 0x2695 DUP2 PUSH2 0x3D7A JUMP JUMPDEST SWAP2 POP POP PUSH2 0x2652 JUMP JUMPDEST POP PUSH1 0x0 DUP2 PUSH1 0x1 PUSH1 0x1 PUSH1 0x40 SHL SUB DUP2 GT ISZERO PUSH2 0x26B8 JUMPI PUSH2 0x26B8 PUSH2 0x3AD5 JUMP JUMPDEST PUSH1 0x40 MLOAD SWAP1 DUP1 DUP3 MSTORE DUP1 PUSH1 0x20 MUL PUSH1 0x20 ADD DUP3 ADD PUSH1 0x40 MSTORE DUP1 ISZERO PUSH2 0x26F1 JUMPI DUP2 PUSH1 0x20 ADD JUMPDEST PUSH2 0x26DE PUSH2 0x35ED JUMP JUMPDEST DUP2 MSTORE PUSH1 0x20 ADD SWAP1 PUSH1 0x1 SWAP1 SUB SWAP1 DUP2 PUSH2 0x26D6 JUMPI SWAP1 POP JUMPDEST POP SWAP1 POP PUSH1 0x0 PUSH1 0x1 JUMPDEST PUSH1 0x3 SLOAD DUP2 GT PUSH2 0x826 JUMPI PUSH1 0x0 DUP2 DUP2 MSTORE PUSH1 0x8 PUSH1 0x20 SWAP1 DUP2 MSTORE PUSH1 0x40 DUP1 DUP4 KECCAK256 CALLER DUP5 MSTORE SWAP1 SWAP2 MSTORE SWAP1 KECCAK256 SLOAD PUSH1 0xFF AND ISZERO PUSH2 0x2AAE JUMPI PUSH1 0x0 DUP2 DUP2 MSTORE PUSH1 0x5 PUSH1 0x20 SWAP1 DUP2 MSTORE PUSH1 0x40 SWAP2 DUP3 SWAP1 KECCAK256 DUP3 MLOAD PUSH2 0x1C0 DUP2 ADD DUP5 MSTORE DUP2 SLOAD DUP2 MSTORE PUSH1 0x1 DUP3 ADD SLOAD PUSH1 0x1 PUSH1 0x1 PUSH1 0xA0 SHL SUB SWAP1 DUP2 AND SWAP4 DUP3 ADD SWAP4 SWAP1 SWAP4 MSTORE PUSH1 0x2 DUP3 ADD SLOAD SWAP1 SWAP3 AND SWAP3 DUP3 ADD SWAP3 SWAP1 SWAP3 MSTORE PUSH1 0x3 DUP3 ADD DUP1 SLOAD SWAP2 SWAP3 SWAP2 PUSH1 0x60 DUP5 ADD SWAP2 SWAP1 PUSH2 0x2781 SWAP1 PUSH2 0x3D93 JUMP JUMPDEST DUP1 PUSH1 0x1F ADD PUSH1 0x20 DUP1 SWAP2 DIV MUL PUSH1 0x20 ADD PUSH1 0x40 MLOAD SWAP1 DUP2 ADD PUSH1 0x40 MSTORE DUP1 SWAP3 SWAP2 SWAP1 DUP2 DUP2 MSTORE PUSH1 0x20 ADD DUP3 DUP1 SLOAD PUSH2 0x27AD SWAP1 PUSH2 0x3D93 JUMP JUMPDEST DUP1 ISZERO PUSH2 0x27FA JUMPI DUP1 PUSH1 0x1F LT PUSH2 0x27CF JUMPI PUSH2 0x100 DUP1 DUP4 SLOAD DIV MUL DUP4 MSTORE SWAP2 PUSH1 0x20 ADD SWAP2 PUSH2 0x27FA JUMP JUMPDEST DUP3 ADD SWAP2 SWAP1 PUSH1 0x0 MSTORE PUSH1 0x20 PUSH1 0x0 KECCAK256 SWAP1 JUMPDEST DUP2 SLOAD DUP2 MSTORE SWAP1 PUSH1 0x1 ADD SWAP1 PUSH1 0x20 ADD DUP1 DUP4 GT PUSH2 0x27DD JUMPI DUP3 SWAP1 SUB PUSH1 0x1F AND DUP3 ADD SWAP2 JUMPDEST POP POP POP POP POP DUP2 MSTORE PUSH1 0x20 ADD PUSH1 0x4 DUP3 ADD DUP1 SLOAD PUSH2 0x2813 SWAP1 PUSH2 0x3D93 JUMP JUMPDEST DUP1 PUSH1 0x1F ADD PUSH1 0x20 DUP1 SWAP2 DIV MUL PUSH1 0x20 ADD PUSH1 0x40 MLOAD SWAP1 DUP2 ADD PUSH1 0x40 MSTORE DUP1 SWAP3 SWAP2 SWAP1 DUP2 DUP2 MSTORE PUSH1 0x20 ADD DUP3 DUP1 SLOAD PUSH2 0x283F SWAP1 PUSH2 0x3D93 JUMP JUMPDEST DUP1 ISZERO PUSH2 0x288C JUMPI DUP1 PUSH1 0x1F LT PUSH2 0x2861 JUMPI PUSH2 0x100 DUP1 DUP4 SLOAD DIV MUL DUP4 MSTORE SWAP2 PUSH1 0x20 ADD SWAP2 PUSH2 0x288C JUMP JUMPDEST DUP3 ADD SWAP2 SWAP1 PUSH1 0x0 MSTORE PUSH1 0x20 PUSH1 0x0 KECCAK256 SWAP1 JUMPDEST DUP2 SLOAD DUP2 MSTORE SWAP1 PUSH1 0x1 ADD SWAP1 PUSH1 0x20 ADD DUP1 DUP4 GT PUSH2 0x286F JUMPI DUP3 SWAP1 SUB PUSH1 0x1F AND DUP3 ADD SWAP2 JUMPDEST POP POP POP POP POP DUP2 MSTORE PUSH1 0x20 ADD PUSH1 0x5 DUP3 ADD DUP1 SLOAD PUSH2 0x28A5 SWAP1 PUSH2 0x3D93 JUMP JUMPDEST DUP1 PUSH1 0x1F ADD PUSH1 0x20 DUP1 SWAP2 DIV MUL PUSH1 0x20 ADD PUSH1 0x40 MLOAD SWAP1 DUP2 ADD PUSH1 0x40 MSTORE DUP1 SWAP3 SWAP2 SWAP1 DUP2 DUP2 MSTORE PUSH1 0x20 ADD DUP3 DUP1 SLOAD PUSH2 0x28D1 SWAP1 PUSH2 0x3D93 JUMP JUMPDEST DUP1 ISZERO PUSH2 0x291E JUMPI DUP1 PUSH1 0x1F LT PUSH2 0x28F3 JUMPI PUSH2 0x100 DUP1 DUP4 SLOAD DIV MUL DUP4 MSTORE SWAP2 PUSH1 0x20 ADD SWAP2 PUSH2 0x291E JUMP JUMPDEST DUP3 ADD SWAP2 SWAP1 PUSH1 0x0 MSTORE PUSH1 0x20 PUSH1 0x0 KECCAK256 SWAP1 JUMPDEST DUP2 SLOAD DUP2 MSTORE SWAP1 PUSH1 0x1 ADD SWAP1 PUSH1 0x20 ADD DUP1 DUP4 GT PUSH2 0x2901 JUMPI DUP3 SWAP1 SUB PUSH1 0x1F AND DUP3 ADD SWAP2 JUMPDEST POP POP POP POP POP DUP2 MSTORE PUSH1 0x20 ADD PUSH1 0x6 DUP3 ADD SLOAD DUP2 MSTORE PUSH1 0x20 ADD PUSH1 0x7 DUP3 ADD SLOAD DUP2 MSTORE PUSH1 0x20 ADD PUSH1 0x8 DUP3 ADD SLOAD DUP2 MSTORE PUSH1 0x20 ADD PUSH1 0x9 DUP3 ADD DUP1 SLOAD PUSH2 0x2955 SWAP1 PUSH2 0x3D93 JUMP JUMPDEST DUP1 PUSH1 0x1F ADD PUSH1 0x20 DUP1 SWAP2 DIV MUL PUSH1 0x20 ADD PUSH1 0x40 MLOAD SWAP1 DUP2 ADD PUSH1 0x40 MSTORE DUP1 SWAP3 SWAP2 SWAP1 DUP2 DUP2 MSTORE PUSH1 0x20 ADD DUP3 DUP1 SLOAD PUSH2 0x2981 SWAP1 PUSH2 0x3D93 JUMP JUMPDEST DUP1 ISZERO PUSH2 0x29CE JUMPI DUP1 PUSH1 0x1F LT PUSH2 0x29A3 JUMPI PUSH2 0x100 DUP1 DUP4 SLOAD DIV MUL DUP4 MSTORE SWAP2 PUSH1 0x20 ADD SWAP2 PUSH2 0x29CE JUMP JUMPDEST DUP3 ADD SWAP2 SWAP1 PUSH1 0x0 MSTORE PUSH1 0x20 PUSH1 0x0 KECCAK256 SWAP1 JUMPDEST DUP2 SLOAD DUP2 MSTORE SWAP1 PUSH1 0x1 ADD SWAP1 PUSH1 0x20 ADD DUP1 DUP4 GT PUSH2 0x29B1 JUMPI DUP3 SWAP1 SUB PUSH1 0x1F AND DUP3 ADD SWAP2 JUMPDEST POP POP POP SWAP2 DUP4 MSTORE POP POP PUSH1 0xA DUP3 ADD SLOAD PUSH1 0x20 DUP3 ADD MSTORE PUSH1 0xB DUP3 ADD SLOAD PUSH1 0x40 SWAP1 SWAP2 ADD SWAP1 PUSH1 0xFF AND PUSH1 0x4 DUP2 GT ISZERO PUSH2 0x29FF JUMPI PUSH2 0x29FF PUSH2 0x377A JUMP JUMPDEST PUSH1 0x4 DUP2 GT ISZERO PUSH2 0x2A10 JUMPI PUSH2 0x2A10 PUSH2 0x377A JUMP JUMPDEST DUP2 MSTORE PUSH1 0xB DUP3 ADD SLOAD PUSH2 0x100 SWAP1 DIV PUSH1 0xFF AND PUSH1 0x20 DUP1 DUP4 ADD SWAP2 SWAP1 SWAP2 MSTORE PUSH1 0xC DUP4 ADD DUP1 SLOAD PUSH1 0x40 DUP1 MLOAD DUP3 DUP6 MUL DUP2 ADD DUP6 ADD DUP3 MSTORE DUP3 DUP2 MSTORE SWAP5 ADD SWAP4 SWAP3 DUP4 ADD DUP3 DUP3 DUP1 ISZERO PUSH2 0x2A7B JUMPI PUSH1 0x20 MUL DUP3 ADD SWAP2 SWAP1 PUSH1 0x0 MSTORE PUSH1 0x20 PUSH1 0x0 KECCAK256 SWAP1 JUMPDEST DUP2 SLOAD PUSH1 0x1 PUSH1 0x1 PUSH1 0xA0 SHL SUB AND DUP2 MSTORE PUSH1 0x1 SWAP1 SWAP2 ADD SWAP1 PUSH1 0x20 ADD DUP1 DUP4 GT PUSH2 0x2A5D JUMPI JUMPDEST POP POP POP POP POP DUP2 MSTORE POP POP DUP4 DUP4 DUP1 PUSH2 0x2A90 SWAP1 PUSH2 0x3D7A JUMP JUMPDEST SWAP5 POP DUP2 MLOAD DUP2 LT PUSH2 0x2AA2 JUMPI PUSH2 0x2AA2 PUSH2 0x3DCD JUMP JUMPDEST PUSH1 0x20 MUL PUSH1 0x20 ADD ADD DUP2 SWAP1 MSTORE POP JUMPDEST DUP1 PUSH2 0x2AB8 DUP2 PUSH2 0x3D7A JUMP JUMPDEST SWAP2 POP POP PUSH2 0x26F9 JUMP JUMPDEST PUSH1 0x0 DUP3 DUP2 MSTORE PUSH1 0x5 PUSH1 0x20 MSTORE PUSH1 0x40 SWAP1 KECCAK256 PUSH1 0x2 ADD SLOAD DUP3 SWAP1 PUSH1 0x1 PUSH1 0x1 PUSH1 0xA0 SHL SUB AND CALLER EQ PUSH2 0x2B3B JUMPI PUSH1 0x40 MLOAD PUSH3 0x461BCD PUSH1 0xE5 SHL DUP2 MSTORE PUSH1 0x20 PUSH1 0x4 DUP3 ADD MSTORE PUSH1 0x27 PUSH1 0x24 DUP3 ADD MSTORE PUSH32 0x4F6E6C7920667265656C616E6365722063616E20706572666F726D2074686973 PUSH1 0x44 DUP3 ADD MSTORE PUSH7 0x1030B1BA34B7B7 PUSH1 0xC9 SHL PUSH1 0x64 DUP3 ADD MSTORE PUSH1 0x84 ADD PUSH2 0x86A JUMP JUMPDEST PUSH1 0x0 DUP4 DUP2 MSTORE PUSH1 0x7 PUSH1 0x20 MSTORE PUSH1 0x40 SWAP1 KECCAK256 SLOAD PUSH1 0xFF AND PUSH2 0x2B69 JUMPI PUSH1 0x40 MLOAD PUSH3 0x461BCD PUSH1 0xE5 SHL DUP2 MSTORE PUSH1 0x4 ADD PUSH2 0x86A SWAP1 PUSH2 0x3E10 JUMP JUMPDEST PUSH1 0x1 PUSH1 0x0 DUP5 DUP2 MSTORE PUSH1 0x5 PUSH1 0x20 MSTORE PUSH1 0x40 SWAP1 KECCAK256 PUSH1 0xB ADD SLOAD PUSH1 0xFF AND PUSH1 0x4 DUP2 GT ISZERO PUSH2 0x2B91 JUMPI PUSH2 0x2B91 PUSH2 0x377A JUMP JUMPDEST EQ PUSH2 0x2BD4 JUMPI PUSH1 0x40 MLOAD PUSH3 0x461BCD PUSH1 0xE5 SHL DUP2 MSTORE PUSH1 0x20 PUSH1 0x4 DUP3 ADD MSTORE PUSH1 0x13 PUSH1 0x24 DUP3 ADD MSTORE PUSH19 0x4A6F62206E6F7420696E2070726F6772657373 PUSH1 0x68 SHL PUSH1 0x44 DUP3 ADD MSTORE PUSH1 0x64 ADD PUSH2 0x86A JUMP JUMPDEST PUSH1 0x0 DUP4 DUP2 MSTORE PUSH1 0x5 PUSH1 0x20 MSTORE PUSH1 0x40 SWAP1 KECCAK256 PUSH1 0x9 ADD PUSH2 0x2BEF DUP4 DUP3 PUSH2 0x3EE9 JUMP JUMPDEST POP POP POP PUSH1 0x0 SWAP1 DUP2 MSTORE PUSH1 0x5 PUSH1 0x20 MSTORE PUSH1 0x40 SWAP1 KECCAK256 PUSH1 0xB ADD DUP1 SLOAD PUSH1 0xFF NOT AND PUSH1 0x2 OR SWAP1 SSTORE JUMP JUMPDEST PUSH2 0x2C18 PUSH2 0x3594 JUMP JUMPDEST PUSH1 0x0 DUP2 DUP2 MSTORE PUSH1 0x5 PUSH1 0x20 MSTORE PUSH1 0x40 SWAP1 KECCAK256 PUSH1 0x1 ADD SLOAD DUP2 SWAP1 PUSH1 0x1 PUSH1 0x1 PUSH1 0xA0 SHL SUB AND CALLER EQ PUSH2 0x2C53 JUMPI PUSH1 0x40 MLOAD PUSH3 0x461BCD PUSH1 0xE5 SHL DUP2 MSTORE PUSH1 0x4 ADD PUSH2 0x86A SWAP1 PUSH2 0x3DE3 JUMP JUMPDEST PUSH1 0x0 DUP3 DUP2 MSTORE PUSH1 0x7 PUSH1 0x20 MSTORE PUSH1 0x40 SWAP1 KECCAK256 SLOAD PUSH1 0xFF AND PUSH2 0x2C81 JUMPI PUSH1 0x40 MLOAD PUSH3 0x461BCD PUSH1 0xE5 SHL DUP2 MSTORE PUSH1 0x4 ADD PUSH2 0x86A SWAP1 PUSH2 0x3E10 JUMP JUMPDEST PUSH1 0x2 PUSH1 0x0 DUP4 DUP2 MSTORE PUSH1 0x5 PUSH1 0x20 MSTORE PUSH1 0x40 SWAP1 KECCAK256 PUSH1 0xB ADD SLOAD PUSH1 0xFF AND PUSH1 0x4 DUP2 GT ISZERO PUSH2 0x2CA9 JUMPI PUSH2 0x2CA9 PUSH2 0x377A JUMP JUMPDEST EQ PUSH2 0x2CF6 JUMPI PUSH1 0x40 MLOAD PUSH3 0x461BCD PUSH1 0xE5 SHL DUP2 MSTORE PUSH1 0x20 PUSH1 0x4 DUP3 ADD DUP2 SWAP1 MSTORE PUSH1 0x24 DUP3 ADD MSTORE PUSH32 0x4A6F62206E6F7420636F6D706C65746564206F72206973206469737075746564 PUSH1 0x44 DUP3 ADD MSTORE PUSH1 0x64 ADD PUSH2 0x86A JUMP JUMPDEST PUSH1 0x0 DUP3 DUP2 MSTORE PUSH1 0x5 PUSH1 0x20 MSTORE PUSH1 0x40 DUP2 KECCAK256 PUSH1 0x8 ADD SLOAD PUSH1 0x4 SLOAD SWAP1 SWAP2 SWAP1 PUSH1 0x64 SWAP1 PUSH2 0x2D1B SWAP1 DUP5 PUSH2 0x3FA8 JUMP JUMPDEST PUSH2 0x2D25 SWAP2 SWAP1 PUSH2 0x3FC5 JUMP JUMPDEST SWAP1 POP PUSH1 0x0 PUSH2 0x2D33 DUP3 DUP5 PUSH2 0x3FE7 JUMP JUMPDEST PUSH1 0x2 DUP1 SLOAD PUSH1 0x0 DUP9 DUP2 MSTORE PUSH1 0x5 PUSH1 0x20 MSTORE PUSH1 0x40 SWAP1 DUP2 SWAP1 KECCAK256 SWAP1 SWAP3 ADD SLOAD SWAP2 MLOAD PUSH4 0xA9059CBB PUSH1 0xE0 SHL DUP2 MSTORE SWAP3 SWAP4 POP PUSH1 0x1 PUSH1 0x1 PUSH1 0xA0 SHL SUB SWAP1 DUP2 AND SWAP3 PUSH4 0xA9059CBB SWAP3 PUSH2 0x2D7C SWAP3 AND SWAP1 DUP6 SWAP1 PUSH1 0x4 ADD PUSH2 0x3FFA JUMP JUMPDEST PUSH1 0x20 PUSH1 0x40 MLOAD DUP1 DUP4 SUB DUP2 PUSH1 0x0 DUP8 GAS CALL ISZERO DUP1 ISZERO PUSH2 0x2D9B JUMPI RETURNDATASIZE PUSH1 0x0 DUP1 RETURNDATACOPY RETURNDATASIZE PUSH1 0x0 REVERT JUMPDEST POP POP POP POP PUSH1 0x40 MLOAD RETURNDATASIZE PUSH1 0x1F NOT PUSH1 0x1F DUP3 ADD AND DUP3 ADD DUP1 PUSH1 0x40 MSTORE POP DUP2 ADD SWAP1 PUSH2 0x2DBF SWAP2 SWAP1 PUSH2 0x3E78 JUMP JUMPDEST POP PUSH1 0x2 SLOAD PUSH1 0x1 PUSH1 0x1 PUSH1 0xA0 SHL SUB AND PUSH4 0xA9059CBB PUSH2 0x2DE3 PUSH1 0x0 SLOAD PUSH1 0x1 PUSH1 0x1 PUSH1 0xA0 SHL SUB AND SWAP1 JUMP JUMPDEST DUP5 PUSH1 0x40 MLOAD DUP4 PUSH4 0xFFFFFFFF AND PUSH1 0xE0 SHL DUP2 MSTORE PUSH1 0x4 ADD PUSH2 0x2E01 SWAP3 SWAP2 SWAP1 PUSH2 0x3FFA JUMP JUMPDEST PUSH1 0x20 PUSH1 0x40 MLOAD DUP1 DUP4 SUB DUP2 PUSH1 0x0 DUP8 GAS CALL ISZERO DUP1 ISZERO PUSH2 0x2E20 JUMPI RETURNDATASIZE PUSH1 0x0 DUP1 RETURNDATACOPY RETURNDATASIZE PUSH1 0x0 REVERT JUMPDEST POP POP POP POP PUSH1 0x40 MLOAD RETURNDATASIZE PUSH1 0x1F NOT PUSH1 0x1F DUP3 ADD AND DUP3 ADD DUP1 PUSH1 0x40 MSTORE POP DUP2 ADD SWAP1 PUSH2 0x2E44 SWAP2 SWAP1 PUSH2 0x3E78 JUMP JUMPDEST POP POP POP PUSH1 0x0 DUP4 DUP2 MSTORE PUSH1 0x5 PUSH1 0x20 MSTORE PUSH1 0x40 SWAP1 KECCAK256 PUSH1 0xB ADD DUP1 SLOAD PUSH1 0xFF NOT AND PUSH1 0x4 OR SWAP1 SSTORE POP POP PUSH1 0x1 DUP1 SSTORE POP JUMP JUMPDEST POP JUMP JUMPDEST PUSH2 0x2E77 PUSH2 0x3594 JUMP JUMPDEST PUSH2 0x2E7F PUSH2 0x34EA JUMP JUMPDEST PUSH1 0x0 DUP3 DUP2 MSTORE PUSH1 0x7 PUSH1 0x20 MSTORE PUSH1 0x40 SWAP1 KECCAK256 SLOAD PUSH1 0xFF AND PUSH2 0x2EAD JUMPI PUSH1 0x40 MLOAD PUSH3 0x461BCD PUSH1 0xE5 SHL DUP2 MSTORE PUSH1 0x4 ADD PUSH2 0x86A SWAP1 PUSH2 0x3E10 JUMP JUMPDEST PUSH1 0x3 PUSH1 0x0 DUP4 DUP2 MSTORE PUSH1 0x5 PUSH1 0x20 MSTORE PUSH1 0x40 SWAP1 KECCAK256 PUSH1 0xB ADD SLOAD PUSH1 0xFF AND PUSH1 0x4 DUP2 GT ISZERO PUSH2 0x2ED5 JUMPI PUSH2 0x2ED5 PUSH2 0x377A JUMP JUMPDEST EQ PUSH2 0x2F1A JUMPI PUSH1 0x40 MLOAD PUSH3 0x461BCD PUSH1 0xE5 SHL DUP2 MSTORE PUSH1 0x20 PUSH1 0x4 DUP3 ADD MSTORE PUSH1 0x15 PUSH1 0x24 DUP3 ADD MSTORE PUSH21 0x4A6F62206973206E6F7420696E2064697370757465 PUSH1 0x58 SHL PUSH1 0x44 DUP3 ADD MSTORE PUSH1 0x64 ADD PUSH2 0x86A JUMP JUMPDEST PUSH1 0x64 DUP2 PUSH1 0xFF AND GT ISZERO PUSH2 0x2F7A JUMPI PUSH1 0x40 MLOAD PUSH3 0x461BCD PUSH1 0xE5 SHL DUP2 MSTORE PUSH1 0x20 PUSH1 0x4 DUP3 ADD MSTORE PUSH1 0x24 DUP1 DUP3 ADD MSTORE PUSH32 0x50657263656E74616765206D757374206265206265747765656E203020616E64 PUSH1 0x44 DUP3 ADD MSTORE PUSH4 0x2031303 PUSH1 0xE4 SHL PUSH1 0x64 DUP3 ADD MSTORE PUSH1 0x84 ADD PUSH2 0x86A JUMP JUMPDEST PUSH1 0x0 DUP3 DUP2 MSTORE PUSH1 0x5 PUSH1 0x20 MSTORE PUSH1 0x40 DUP2 KECCAK256 PUSH1 0xB DUP2 ADD DUP1 SLOAD PUSH2 0xFF00 NOT AND PUSH2 0x100 PUSH1 0xFF DUP7 AND MUL OR SWAP1 SSTORE PUSH1 0x8 ADD SLOAD PUSH1 0x4 SLOAD SWAP1 SWAP2 SWAP1 PUSH1 0x64 SWAP1 PUSH2 0x2FB5 SWAP1 DUP5 PUSH2 0x3FA8 JUMP JUMPDEST PUSH2 0x2FBF SWAP2 SWAP1 PUSH2 0x3FC5 JUMP JUMPDEST SWAP1 POP PUSH1 0x0 PUSH2 0x2FCD DUP3 DUP5 PUSH2 0x3FE7 JUMP JUMPDEST SWAP1 POP PUSH1 0x0 PUSH1 0x64 PUSH2 0x2FE0 PUSH1 0xFF DUP8 AND DUP5 PUSH2 0x3FA8 JUMP JUMPDEST PUSH2 0x2FEA SWAP2 SWAP1 PUSH2 0x3FC5 JUMP JUMPDEST SWAP1 POP PUSH1 0x0 PUSH2 0x2FF8 DUP3 DUP5 PUSH2 0x3FE7 JUMP JUMPDEST SWAP1 POP DUP2 ISZERO PUSH2 0x308C JUMPI PUSH1 0x2 DUP1 SLOAD PUSH1 0x0 DUP10 DUP2 MSTORE PUSH1 0x5 PUSH1 0x20 MSTORE PUSH1 0x40 SWAP1 DUP2 SWAP1 KECCAK256 SWAP1 SWAP3 ADD SLOAD SWAP2 MLOAD PUSH4 0xA9059CBB PUSH1 0xE0 SHL DUP2 MSTORE PUSH1 0x1 PUSH1 0x1 PUSH1 0xA0 SHL SUB SWAP2 DUP3 AND SWAP3 PUSH4 0xA9059CBB SWAP3 PUSH2 0x3047 SWAP3 SWAP2 AND SWAP1 DUP7 SWAP1 PUSH1 0x4 ADD PUSH2 0x3FFA JUMP JUMPDEST PUSH1 0x20 PUSH1 0x40 MLOAD DUP1 DUP4 SUB DUP2 PUSH1 0x0 DUP8 GAS CALL ISZERO DUP1 ISZERO PUSH2 0x3066 JUMPI RETURNDATASIZE PUSH1 0x0 DUP1 RETURNDATACOPY RETURNDATASIZE PUSH1 0x0 REVERT JUMPDEST POP POP POP POP PUSH1 0x40 MLOAD RETURNDATASIZE PUSH1 0x1F NOT PUSH1 0x1F DUP3 ADD AND DUP3 ADD DUP1 PUSH1 0x40 MSTORE POP DUP2 ADD SWAP1 PUSH2 0x308A SWAP2 SWAP1 PUSH2 0x3E78 JUMP JUMPDEST POP JUMPDEST DUP1 ISZERO PUSH2 0x311D JUMPI PUSH1 0x2 SLOAD PUSH1 0x0 DUP9 DUP2 MSTORE PUSH1 0x5 PUSH1 0x20 MSTORE PUSH1 0x40 SWAP1 DUP2 SWAP1 KECCAK256 PUSH1 0x1 ADD SLOAD SWAP1 MLOAD PUSH4 0xA9059CBB PUSH1 0xE0 SHL DUP2 MSTORE PUSH1 0x1 PUSH1 0x1 PUSH1 0xA0 SHL SUB SWAP3 DUP4 AND SWAP3 PUSH4 0xA9059CBB SWAP3 PUSH2 0x30D8 SWAP3 SWAP2 AND SWAP1 DUP6 SWAP1 PUSH1 0x4 ADD PUSH2 0x3FFA JUMP JUMPDEST PUSH1 0x20 PUSH1 0x40 MLOAD DUP1 DUP4 SUB DUP2 PUSH1 0x0 DUP8 GAS CALL ISZERO DUP1 ISZERO PUSH2 0x30F7 JUMPI RETURNDATASIZE PUSH1 0x0 DUP1 RETURNDATACOPY RETURNDATASIZE PUSH1 0x0 REVERT JUMPDEST POP POP POP POP PUSH1 0x40 MLOAD RETURNDATASIZE PUSH1 0x1F NOT PUSH1 0x1F DUP3 ADD AND DUP3 ADD DUP1 PUSH1 0x40 MSTORE POP DUP2 ADD SWAP1 PUSH2 0x311B SWAP2 SWAP1 PUSH2 0x3E78 JUMP JUMPDEST POP JUMPDEST PUSH1 0x2 SLOAD PUSH1 0x1 PUSH1 0x1 PUSH1 0xA0 SHL SUB AND PUSH4 0xA9059CBB PUSH2 0x3140 PUSH1 0x0 SLOAD PUSH1 0x1 PUSH1 0x1 PUSH1 0xA0 SHL SUB AND SWAP1 JUMP JUMPDEST DUP7 PUSH1 0x40 MLOAD DUP4 PUSH4 0xFFFFFFFF AND PUSH1 0xE0 SHL DUP2 MSTORE PUSH1 0x4 ADD PUSH2 0x315E SWAP3 SWAP2 SWAP1 PUSH2 0x3FFA JUMP JUMPDEST PUSH1 0x20 PUSH1 0x40 MLOAD DUP1 DUP4 SUB DUP2 PUSH1 0x0 DUP8 GAS CALL ISZERO DUP1 ISZERO PUSH2 0x317D JUMPI RETURNDATASIZE PUSH1 0x0 DUP1 RETURNDATACOPY RETURNDATASIZE PUSH1 0x0 REVERT JUMPDEST POP POP POP POP PUSH1 0x40 MLOAD RETURNDATASIZE PUSH1 0x1F NOT PUSH1 0x1F DUP3 ADD AND DUP3 ADD DUP1 PUSH1 0x40 MSTORE POP DUP2 ADD SWAP1 PUSH2 0x31A1 SWAP2 SWAP1 PUSH2 0x3E78 JUMP JUMPDEST POP PUSH1 0x0 DUP8 DUP2 MSTORE PUSH1 0x5 PUSH1 0x20 SWAP1 DUP2 MSTORE PUSH1 0x40 SWAP2 DUP3 SWAP1 KECCAK256 PUSH1 0xB ADD DUP1 SLOAD PUSH1 0xFF NOT AND PUSH1 0x4 OR SWAP1 SSTORE SWAP1 MLOAD PUSH1 0xFF DUP9 AND DUP2 MSTORE DUP9 SWAP2 PUSH32 0x2FFCFEE146BC0D5FF304C6B65111A0D485AF9456DC64EEE7D66EBDCC90B223EA SWAP2 ADD PUSH1 0x40 MLOAD DUP1 SWAP2 SUB SWAP1 LOG2 POP POP POP POP POP PUSH2 0x3205 PUSH1 0x1 DUP1 SSTORE JUMP JUMPDEST POP POP JUMP JUMPDEST PUSH2 0x3211 PUSH2 0x34EA JUMP JUMPDEST PUSH1 0x1 PUSH1 0x1 PUSH1 0xA0 SHL SUB DUP2 AND PUSH2 0x3276 JUMPI PUSH1 0x40 MLOAD PUSH3 0x461BCD PUSH1 0xE5 SHL DUP2 MSTORE PUSH1 0x20 PUSH1 0x4 DUP3 ADD MSTORE PUSH1 0x26 PUSH1 0x24 DUP3 ADD MSTORE PUSH32 0x4F776E61626C653A206E6577206F776E657220697320746865207A65726F2061 PUSH1 0x44 DUP3 ADD MSTORE PUSH6 0x646472657373 PUSH1 0xD0 SHL PUSH1 0x64 DUP3 ADD MSTORE PUSH1 0x84 ADD PUSH2 0x86A JUMP JUMPDEST PUSH2 0x2E6C DUP2 PUSH2 0x3544 JUMP JUMPDEST PUSH1 0x0 DUP6 MLOAD GT PUSH2 0x32D0 JUMPI PUSH1 0x40 MLOAD PUSH3 0x461BCD PUSH1 0xE5 SHL DUP2 MSTORE PUSH1 0x20 PUSH1 0x4 DUP3 ADD MSTORE PUSH1 0x1A PUSH1 0x24 DUP3 ADD MSTORE PUSH32 0x506C656173652070726F766964652061206A6F62207469746C65000000000000 PUSH1 0x44 DUP3 ADD MSTORE PUSH1 0x64 ADD PUSH2 0x86A JUMP JUMPDEST PUSH1 0x0 DUP5 MLOAD GT PUSH2 0x3321 JUMPI PUSH1 0x40 MLOAD PUSH3 0x461BCD PUSH1 0xE5 SHL DUP2 MSTORE PUSH1 0x20 PUSH1 0x4 DUP3 ADD MSTORE PUSH1 0x1C PUSH1 0x24 DUP3 ADD MSTORE PUSH32 0x506C656173652070726F766964652061206465736372697074696F6E00000000 PUSH1 0x44 DUP3 ADD MSTORE PUSH1 0x64 ADD PUSH2 0x86A JUMP JUMPDEST PUSH1 0x0 DUP4 MLOAD GT PUSH2 0x3368 JUMPI PUSH1 0x40 MLOAD PUSH3 0x461BCD PUSH1 0xE5 SHL DUP2 MSTORE PUSH1 0x20 PUSH1 0x4 DUP3 ADD MSTORE PUSH1 0x13 PUSH1 0x24 DUP3 ADD MSTORE PUSH19 0x506C656173652070726F766964652074616773 PUSH1 0x68 SHL PUSH1 0x44 DUP3 ADD MSTORE PUSH1 0x64 ADD PUSH2 0x86A JUMP JUMPDEST PUSH1 0x0 DUP3 GT PUSH2 0x33C2 JUMPI PUSH1 0x40 MLOAD PUSH3 0x461BCD PUSH1 0xE5 SHL DUP2 MSTORE PUSH1 0x20 PUSH1 0x4 DUP3 ADD MSTORE PUSH1 0x21 PUSH1 0x24 DUP3 ADD MSTORE PUSH32 0x4D696E20627564676574206D7573742062652067726561746572207468616E20 PUSH1 0x44 DUP3 ADD MSTORE PUSH1 0x3 PUSH1 0xFC SHL PUSH1 0x64 DUP3 ADD MSTORE PUSH1 0x84 ADD PUSH2 0x86A JUMP JUMPDEST DUP2 DUP2 LT ISZERO PUSH2 0x3431 JUMPI PUSH1 0x40 MLOAD PUSH3 0x461BCD PUSH1 0xE5 SHL DUP2 MSTORE PUSH1 0x20 PUSH1 0x4 DUP3 ADD MSTORE PUSH1 0x36 PUSH1 0x24 DUP3 ADD MSTORE PUSH32 0x4D617820627564676574206D7573742062652067726561746572207468616E20 PUSH1 0x44 DUP3 ADD MSTORE PUSH22 0x1BDC88195C5D585B081D1BC81B5A5B88189D5919D95D PUSH1 0x52 SHL PUSH1 0x64 DUP3 ADD MSTORE PUSH1 0x84 ADD PUSH2 0x86A JUMP JUMPDEST PUSH2 0x343F PUSH1 0x3 DUP1 SLOAD PUSH1 0x1 ADD SWAP1 SSTORE JUMP JUMPDEST PUSH1 0x0 PUSH2 0x344A PUSH1 0x3 SLOAD SWAP1 JUMP JUMPDEST PUSH1 0x0 DUP2 DUP2 MSTORE PUSH1 0x5 PUSH1 0x20 MSTORE PUSH1 0x40 SWAP1 KECCAK256 DUP2 DUP2 SSTORE PUSH1 0x1 DUP2 ADD DUP1 SLOAD PUSH1 0x1 PUSH1 0x1 PUSH1 0xA0 SHL SUB NOT AND CALLER OR SWAP1 SSTORE SWAP1 SWAP2 POP PUSH1 0x3 DUP2 ADD PUSH2 0x3480 DUP9 DUP3 PUSH2 0x3EE9 JUMP JUMPDEST POP PUSH1 0x4 DUP2 ADD PUSH2 0x348F DUP8 DUP3 PUSH2 0x3EE9 JUMP JUMPDEST POP PUSH1 0x5 DUP2 ADD PUSH2 0x349E DUP7 DUP3 PUSH2 0x3EE9 JUMP JUMPDEST POP PUSH1 0x6 DUP2 ADD DUP5 SWAP1 SSTORE PUSH1 0x7 DUP2 ADD DUP4 SWAP1 SSTORE PUSH1 0xB DUP2 ADD DUP1 SLOAD PUSH1 0x0 SWAP2 SWAP1 PUSH1 0xFF NOT AND PUSH1 0x1 DUP4 MUL OR SWAP1 SSTORE POP TIMESTAMP PUSH1 0xA SWAP1 SWAP2 ADD SSTORE PUSH1 0x0 SWAP1 DUP2 MSTORE PUSH1 0x7 PUSH1 0x20 MSTORE PUSH1 0x40 SWAP1 KECCAK256 DUP1 SLOAD PUSH1 0xFF NOT AND PUSH1 0x1 OR SWAP1 SSTORE POP POP POP POP POP JUMP JUMPDEST PUSH1 0x0 SLOAD PUSH1 0x1 PUSH1 0x1 PUSH1 0xA0 SHL SUB AND CALLER EQ PUSH2 0x1B6E JUMPI PUSH1 0x40 MLOAD PUSH3 0x461BCD PUSH1 0xE5 SHL DUP2 MSTORE PUSH1 0x20 PUSH1 0x4 DUP3 ADD DUP2 SWAP1 MSTORE PUSH1 0x24 DUP3 ADD MSTORE PUSH32 0x4F776E61626C653A2063616C6C6572206973206E6F7420746865206F776E6572 PUSH1 0x44 DUP3 ADD MSTORE PUSH1 0x64 ADD PUSH2 0x86A JUMP JUMPDEST PUSH1 0x0 DUP1 SLOAD PUSH1 0x1 PUSH1 0x1 PUSH1 0xA0 SHL SUB DUP4 DUP2 AND PUSH1 0x1 PUSH1 0x1 PUSH1 0xA0 SHL SUB NOT DUP4 AND DUP2 OR DUP5 SSTORE PUSH1 0x40 MLOAD SWAP2 SWAP1 SWAP3 AND SWAP3 DUP4 SWAP2 PUSH32 0x8BE0079C531659141344CD1FD0A4F28419497F9722A3DAAFE3B4186F6B6457E0 SWAP2 SWAP1 LOG3 POP POP JUMP JUMPDEST PUSH1 0x2 PUSH1 0x1 SLOAD SUB PUSH2 0x35E6 JUMPI PUSH1 0x40 MLOAD PUSH3 0x461BCD PUSH1 0xE5 SHL DUP2 MSTORE PUSH1 0x20 PUSH1 0x4 DUP3 ADD MSTORE PUSH1 0x1F PUSH1 0x24 DUP3 ADD MSTORE PUSH32 0x5265656E7472616E637947756172643A207265656E7472616E742063616C6C00 PUSH1 0x44 DUP3 ADD MSTORE PUSH1 0x64 ADD PUSH2 0x86A JUMP JUMPDEST PUSH1 0x2 PUSH1 0x1 SSTORE JUMP JUMPDEST PUSH1 0x40 MLOAD DUP1 PUSH2 0x1C0 ADD PUSH1 0x40 MSTORE DUP1 PUSH1 0x0 DUP2 MSTORE PUSH1 0x20 ADD PUSH1 0x0 PUSH1 0x1 PUSH1 0x1 PUSH1 0xA0 SHL SUB AND DUP2 MSTORE PUSH1 0x20 ADD PUSH1 0x0 PUSH1 0x1 PUSH1 0x1 PUSH1 0xA0 SHL SUB AND DUP2 MSTORE PUSH1 0x20 ADD PUSH1 0x60 DUP2 MSTORE PUSH1 0x20 ADD PUSH1 0x60 DUP2 MSTORE PUSH1 0x20 ADD PUSH1 0x60 DUP2 MSTORE PUSH1 0x20 ADD PUSH1 0x0 DUP2 MSTORE PUSH1 0x20 ADD PUSH1 0x0 DUP2 MSTORE PUSH1 0x20 ADD PUSH1 0x0 DUP2 MSTORE PUSH1 0x20 ADD PUSH1 0x60 DUP2 MSTORE PUSH1 0x20 ADD PUSH1 0x0 DUP2 MSTORE PUSH1 0x20 ADD PUSH1 0x0 PUSH1 0x4 DUP2 GT ISZERO PUSH2 0x366B JUMPI PUSH2 0x366B PUSH2 0x377A JUMP JUMPDEST DUP2 MSTORE PUSH1 0x0 PUSH1 0x20 DUP3 ADD MSTORE PUSH1 0x60 PUSH1 0x40 SWAP1 SWAP2 ADD MSTORE SWAP1 JUMP JUMPDEST POP DUP1 SLOAD PUSH2 0x368B SWAP1 PUSH2 0x3D93 JUMP JUMPDEST PUSH1 0x0 DUP3 SSTORE DUP1 PUSH1 0x1F LT PUSH2 0x369B JUMPI POP POP JUMP JUMPDEST PUSH1 0x1F ADD PUSH1 0x20 SWAP1 DIV SWAP1 PUSH1 0x0 MSTORE PUSH1 0x20 PUSH1 0x0 KECCAK256 SWAP1 DUP2 ADD SWAP1 PUSH2 0x2E6C SWAP2 SWAP1 PUSH2 0x36D3 JUMP JUMPDEST POP DUP1 SLOAD PUSH1 0x0 DUP3 SSTORE SWAP1 PUSH1 0x0 MSTORE PUSH1 0x20 PUSH1 0x0 KECCAK256 SWAP1 DUP2 ADD SWAP1 PUSH2 0x2E6C SWAP2 SWAP1 JUMPDEST JUMPDEST DUP1 DUP3 GT ISZERO PUSH2 0x36E8 JUMPI PUSH1 0x0 DUP2 SSTORE PUSH1 0x1 ADD PUSH2 0x36D4 JUMP JUMPDEST POP SWAP1 JUMP JUMPDEST DUP1 CALLDATALOAD PUSH1 0x1 PUSH1 0x1 PUSH1 0xA0 SHL SUB DUP2 AND DUP2 EQ PUSH2 0x3703 JUMPI PUSH1 0x0 DUP1 REVERT JUMPDEST SWAP2 SWAP1 POP JUMP JUMPDEST PUSH1 0x0 DUP1 PUSH1 0x40 DUP4 DUP6 SUB SLT ISZERO PUSH2 0x371B JUMPI PUSH1 0x0 DUP1 REVERT JUMPDEST DUP3 CALLDATALOAD SWAP2 POP PUSH2 0x372B PUSH1 0x20 DUP5 ADD PUSH2 0x36EC JUMP JUMPDEST SWAP1 POP SWAP3 POP SWAP3 SWAP1 POP JUMP JUMPDEST PUSH1 0x0 DUP2 MLOAD DUP1 DUP5 MSTORE PUSH1 0x0 JUMPDEST DUP2 DUP2 LT ISZERO PUSH2 0x375A JUMPI PUSH1 0x20 DUP2 DUP6 ADD DUP2 ADD MLOAD DUP7 DUP4 ADD DUP3 ADD MSTORE ADD PUSH2 0x373E JUMP JUMPDEST POP PUSH1 0x0 PUSH1 0x20 DUP3 DUP7 ADD ADD MSTORE PUSH1 0x20 PUSH1 0x1F NOT PUSH1 0x1F DUP4 ADD AND DUP6 ADD ADD SWAP2 POP POP SWAP3 SWAP2 POP POP JUMP JUMPDEST PUSH4 0x4E487B71 PUSH1 0xE0 SHL PUSH1 0x0 MSTORE PUSH1 0x21 PUSH1 0x4 MSTORE PUSH1 0x24 PUSH1 0x0 REVERT JUMPDEST PUSH1 0x5 DUP2 LT PUSH2 0x37AE JUMPI PUSH4 0x4E487B71 PUSH1 0xE0 SHL PUSH1 0x0 MSTORE PUSH1 0x21 PUSH1 0x4 MSTORE PUSH1 0x24 PUSH1 0x0 REVERT JUMPDEST SWAP1 MSTORE JUMP JUMPDEST PUSH1 0x0 DUP2 MLOAD DUP1 DUP5 MSTORE PUSH1 0x20 DUP1 DUP6 ADD SWAP5 POP DUP1 DUP5 ADD PUSH1 0x0 JUMPDEST DUP4 DUP2 LT ISZERO PUSH2 0x37EB JUMPI DUP2 MLOAD PUSH1 0x1 PUSH1 0x1 PUSH1 0xA0 SHL SUB AND DUP8 MSTORE SWAP6 DUP3 ADD SWAP6 SWAP1 DUP3 ADD SWAP1 PUSH1 0x1 ADD PUSH2 0x37C6 JUMP JUMPDEST POP SWAP5 SWAP6 SWAP5 POP POP POP POP POP JUMP JUMPDEST PUSH1 0x0 PUSH2 0x1C0 DUP3 MLOAD DUP5 MSTORE PUSH1 0x20 DUP4 ADD MLOAD PUSH2 0x3819 PUSH1 0x20 DUP7 ADD DUP3 PUSH1 0x1 PUSH1 0x1 PUSH1 0xA0 SHL SUB AND SWAP1 MSTORE JUMP JUMPDEST POP PUSH1 0x40 DUP4 ADD MLOAD PUSH2 0x3834 PUSH1 0x40 DUP7 ADD DUP3 PUSH1 0x1 PUSH1 0x1 PUSH1 0xA0 SHL SUB AND SWAP1 MSTORE JUMP JUMPDEST POP PUSH1 0x60 DUP4 ADD MLOAD DUP2 PUSH1 0x60 DUP7 ADD MSTORE PUSH2 0x384C DUP3 DUP7 ADD DUP3 PUSH2 0x3734 JUMP JUMPDEST SWAP2 POP POP PUSH1 0x80 DUP4 ADD MLOAD DUP5 DUP3 SUB PUSH1 0x80 DUP7 ADD MSTORE PUSH2 0x3866 DUP3 DUP3 PUSH2 0x3734 JUMP JUMPDEST SWAP2 POP POP PUSH1 0xA0 DUP4 ADD MLOAD DUP5 DUP3 SUB PUSH1 0xA0 DUP7 ADD MSTORE PUSH2 0x3880 DUP3 DUP3 PUSH2 0x3734 JUMP JUMPDEST SWAP2 POP POP PUSH1 0xC0 DUP4 ADD MLOAD PUSH1 0xC0 DUP6 ADD MSTORE PUSH1 0xE0 DUP4 ADD MLOAD PUSH1 0xE0 DUP6 ADD MSTORE PUSH2 0x100 DUP1 DUP5 ADD MLOAD DUP2 DUP7 ADD MSTORE POP PUSH2 0x120 DUP1 DUP5 ADD MLOAD DUP6 DUP4 SUB DUP3 DUP8 ADD MSTORE PUSH2 0x38BB DUP4 DUP3 PUSH2 0x3734 JUMP JUMPDEST SWAP3 POP POP POP PUSH2 0x140 DUP1 DUP5 ADD MLOAD DUP2 DUP7 ADD MSTORE POP PUSH2 0x160 DUP1 DUP5 ADD MLOAD PUSH2 0x38DE DUP3 DUP8 ADD DUP3 PUSH2 0x3790 JUMP JUMPDEST POP POP PUSH2 0x180 DUP4 DUP2 ADD MLOAD PUSH1 0xFF AND SWAP1 DUP6 ADD MSTORE PUSH2 0x1A0 DUP1 DUP5 ADD MLOAD DUP6 DUP4 SUB DUP3 DUP8 ADD MSTORE PUSH2 0x3906 DUP4 DUP3 PUSH2 0x37B2 JUMP JUMPDEST SWAP7 SWAP6 POP POP POP POP POP POP JUMP JUMPDEST PUSH1 0x0 PUSH1 0x20 DUP1 DUP4 ADD DUP2 DUP5 MSTORE DUP1 DUP6 MLOAD DUP1 DUP4 MSTORE PUSH1 0x40 DUP7 ADD SWAP2 POP PUSH1 0x40 DUP2 PUSH1 0x5 SHL DUP8 ADD ADD SWAP3 POP DUP4 DUP8 ADD PUSH1 0x0 JUMPDEST DUP3 DUP2 LT ISZERO PUSH2 0x3965 JUMPI PUSH1 0x3F NOT DUP9 DUP7 SUB ADD DUP5 MSTORE PUSH2 0x3953 DUP6 DUP4 MLOAD PUSH2 0x37F6 JUMP JUMPDEST SWAP5 POP SWAP3 DUP6 ADD SWAP3 SWAP1 DUP6 ADD SWAP1 PUSH1 0x1 ADD PUSH2 0x3937 JUMP JUMPDEST POP SWAP3 SWAP8 SWAP7 POP POP POP POP POP POP POP JUMP JUMPDEST PUSH1 0x0 DUP1 PUSH1 0x40 DUP4 DUP6 SUB SLT ISZERO PUSH2 0x3985 JUMPI PUSH1 0x0 DUP1 REVERT JUMPDEST POP POP DUP1 CALLDATALOAD SWAP3 PUSH1 0x20 SWAP1 SWAP2 ADD CALLDATALOAD SWAP2 POP JUMP JUMPDEST PUSH1 0x0 PUSH1 0x20 DUP3 DUP5 SUB SLT ISZERO PUSH2 0x39A6 JUMPI PUSH1 0x0 DUP1 REVERT JUMPDEST POP CALLDATALOAD SWAP2 SWAP1 POP JUMP JUMPDEST PUSH1 0x20 DUP1 DUP3 MSTORE DUP3 MLOAD DUP3 DUP3 ADD DUP2 SWAP1 MSTORE PUSH1 0x0 SWAP2 SWAP1 PUSH1 0x40 SWAP1 DUP2 DUP6 ADD SWAP1 DUP7 DUP5 ADD DUP6 JUMPDEST DUP3 DUP2 LT ISZERO PUSH2 0x3A0D JUMPI DUP2 MLOAD DUP1 MLOAD DUP6 MSTORE DUP7 DUP2 ADD MLOAD DUP8 DUP7 ADD MSTORE DUP6 DUP2 ADD MLOAD PUSH1 0x1 PUSH1 0x1 PUSH1 0xA0 SHL SUB AND DUP7 DUP7 ADD MSTORE PUSH1 0x60 SWAP1 DUP2 ADD MLOAD SWAP1 DUP6 ADD MSTORE PUSH1 0x80 SWAP1 SWAP4 ADD SWAP3 SWAP1 DUP6 ADD SWAP1 PUSH1 0x1 ADD PUSH2 0x39CA JUMP JUMPDEST POP SWAP2 SWAP8 SWAP7 POP POP POP POP POP POP POP JUMP JUMPDEST DUP14 DUP2 MSTORE PUSH1 0x1 PUSH1 0x1 PUSH1 0xA0 SHL SUB DUP14 AND PUSH1 0x20 DUP3 ADD MSTORE PUSH1 0x1 PUSH1 0x1 PUSH1 0xA0 SHL SUB DUP13 AND PUSH1 0x40 DUP3 ADD MSTORE PUSH2 0x1A0 PUSH1 0x60 DUP3 ADD MSTORE PUSH1 0x0 PUSH2 0x3A53 PUSH2 0x1A0 DUP4 ADD DUP14 PUSH2 0x3734 JUMP JUMPDEST DUP3 DUP2 SUB PUSH1 0x80 DUP5 ADD MSTORE PUSH2 0x3A65 DUP2 DUP14 PUSH2 0x3734 JUMP JUMPDEST SWAP1 POP DUP3 DUP2 SUB PUSH1 0xA0 DUP5 ADD MSTORE PUSH2 0x3A79 DUP2 DUP13 PUSH2 0x3734 JUMP JUMPDEST SWAP1 POP DUP10 PUSH1 0xC0 DUP5 ADD MSTORE DUP9 PUSH1 0xE0 DUP5 ADD MSTORE DUP8 PUSH2 0x100 DUP5 ADD MSTORE DUP3 DUP2 SUB PUSH2 0x120 DUP5 ADD MSTORE PUSH2 0x3AA1 DUP2 DUP9 PUSH2 0x3734 JUMP JUMPDEST SWAP2 POP POP DUP5 PUSH2 0x140 DUP4 ADD MSTORE PUSH2 0x3AB9 PUSH2 0x160 DUP4 ADD DUP6 PUSH2 0x3790 JUMP JUMPDEST PUSH1 0xFF DUP4 AND PUSH2 0x180 DUP4 ADD MSTORE SWAP15 SWAP14 POP POP POP POP POP POP POP POP POP POP POP POP POP POP JUMP JUMPDEST PUSH4 0x4E487B71 PUSH1 0xE0 SHL PUSH1 0x0 MSTORE PUSH1 0x41 PUSH1 0x4 MSTORE PUSH1 0x24 PUSH1 0x0 REVERT JUMPDEST PUSH1 0x0 DUP3 PUSH1 0x1F DUP4 ADD SLT PUSH2 0x3AFC JUMPI PUSH1 0x0 DUP1 REVERT JUMPDEST DUP2 CALLDATALOAD PUSH1 0x1 PUSH1 0x1 PUSH1 0x40 SHL SUB DUP1 DUP3 GT ISZERO PUSH2 0x3B16 JUMPI PUSH2 0x3B16 PUSH2 0x3AD5 JUMP JUMPDEST PUSH1 0x40 MLOAD PUSH1 0x1F DUP4 ADD PUSH1 0x1F NOT SWAP1 DUP2 AND PUSH1 0x3F ADD AND DUP2 ADD SWAP1 DUP3 DUP3 GT DUP2 DUP4 LT OR ISZERO PUSH2 0x3B3E JUMPI PUSH2 0x3B3E PUSH2 0x3AD5 JUMP JUMPDEST DUP2 PUSH1 0x40 MSTORE DUP4 DUP2 MSTORE DUP7 PUSH1 0x20 DUP6 DUP9 ADD ADD GT ISZERO PUSH2 0x3B57 JUMPI PUSH1 0x0 DUP1 REVERT JUMPDEST DUP4 PUSH1 0x20 DUP8 ADD PUSH1 0x20 DUP4 ADD CALLDATACOPY PUSH1 0x0 PUSH1 0x20 DUP6 DUP4 ADD ADD MSTORE DUP1 SWAP5 POP POP POP POP POP SWAP3 SWAP2 POP POP JUMP JUMPDEST PUSH1 0x0 DUP1 PUSH1 0x0 DUP1 PUSH1 0x0 DUP1 PUSH1 0xC0 DUP8 DUP10 SUB SLT ISZERO PUSH2 0x3B90 JUMPI PUSH1 0x0 DUP1 REVERT JUMPDEST DUP7 CALLDATALOAD SWAP6 POP PUSH1 0x20 DUP8 ADD CALLDATALOAD PUSH1 0x1 PUSH1 0x1 PUSH1 0x40 SHL SUB DUP1 DUP3 GT ISZERO PUSH2 0x3BAE JUMPI PUSH1 0x0 DUP1 REVERT JUMPDEST PUSH2 0x3BBA DUP11 DUP4 DUP12 ADD PUSH2 0x3AEB JUMP JUMPDEST SWAP7 POP PUSH1 0x40 DUP10 ADD CALLDATALOAD SWAP2 POP DUP1 DUP3 GT ISZERO PUSH2 0x3BD0 JUMPI PUSH1 0x0 DUP1 REVERT JUMPDEST PUSH2 0x3BDC DUP11 DUP4 DUP12 ADD PUSH2 0x3AEB JUMP JUMPDEST SWAP6 POP PUSH1 0x60 DUP10 ADD CALLDATALOAD SWAP2 POP DUP1 DUP3 GT ISZERO PUSH2 0x3BF2 JUMPI PUSH1 0x0 DUP1 REVERT JUMPDEST POP PUSH2 0x3BFF DUP10 DUP3 DUP11 ADD PUSH2 0x3AEB JUMP JUMPDEST SWAP4 POP POP PUSH1 0x80 DUP8 ADD CALLDATALOAD SWAP2 POP PUSH1 0xA0 DUP8 ADD CALLDATALOAD SWAP1 POP SWAP3 SWAP6 POP SWAP3 SWAP6 POP SWAP3 SWAP6 JUMP JUMPDEST PUSH1 0x20 DUP2 MSTORE PUSH1 0x0 PUSH2 0x3C2D PUSH1 0x20 DUP4 ADD DUP5 PUSH2 0x37F6 JUMP JUMPDEST SWAP4 SWAP3 POP POP POP JUMP JUMPDEST PUSH1 0x0 DUP1 PUSH1 0x40 DUP4 DUP6 SUB SLT ISZERO PUSH2 0x3C47 JUMPI PUSH1 0x0 DUP1 REVERT JUMPDEST DUP3 CALLDATALOAD SWAP2 POP PUSH1 0x20 DUP4 ADD CALLDATALOAD PUSH1 0x1 PUSH1 0x1 PUSH1 0x40 SHL SUB DUP2 GT ISZERO PUSH2 0x3C64 JUMPI PUSH1 0x0 DUP1 REVERT JUMPDEST PUSH2 0x3C70 DUP6 DUP3 DUP7 ADD PUSH2 0x3AEB JUMP JUMPDEST SWAP2 POP POP SWAP3 POP SWAP3 SWAP1 POP JUMP JUMPDEST PUSH1 0x0 DUP1 PUSH1 0x40 DUP4 DUP6 SUB SLT ISZERO PUSH2 0x3C8D JUMPI PUSH1 0x0 DUP1 REVERT JUMPDEST DUP3 CALLDATALOAD SWAP2 POP PUSH1 0x20 DUP4 ADD CALLDATALOAD PUSH1 0xFF DUP2 AND DUP2 EQ PUSH2 0x3CA5 JUMPI PUSH1 0x0 DUP1 REVERT JUMPDEST DUP1 SWAP2 POP POP SWAP3 POP SWAP3 SWAP1 POP JUMP JUMPDEST PUSH1 0x0 PUSH1 0x20 DUP3 DUP5 SUB SLT ISZERO PUSH2 0x3CC2 JUMPI PUSH1 0x0 DUP1 REVERT JUMPDEST PUSH2 0x3C2D DUP3 PUSH2 0x36EC JUMP JUMPDEST PUSH1 0x0 DUP1 PUSH1 0x0 DUP1 PUSH1 0x0 PUSH1 0xA0 DUP7 DUP9 SUB SLT ISZERO PUSH2 0x3CE3 JUMPI PUSH1 0x0 DUP1 REVERT JUMPDEST DUP6 CALLDATALOAD PUSH1 0x1 PUSH1 0x1 PUSH1 0x40 SHL SUB DUP1 DUP3 GT ISZERO PUSH2 0x3CFA JUMPI PUSH1 0x0 DUP1 REVERT JUMPDEST PUSH2 0x3D06 DUP10 DUP4 DUP11 ADD PUSH2 0x3AEB JUMP JUMPDEST SWAP7 POP PUSH1 0x20 DUP9 ADD CALLDATALOAD SWAP2 POP DUP1 DUP3 GT ISZERO PUSH2 0x3D1C JUMPI PUSH1 0x0 DUP1 REVERT JUMPDEST PUSH2 0x3D28 DUP10 DUP4 DUP11 ADD PUSH2 0x3AEB JUMP JUMPDEST SWAP6 POP PUSH1 0x40 DUP9 ADD CALLDATALOAD SWAP2 POP DUP1 DUP3 GT ISZERO PUSH2 0x3D3E JUMPI PUSH1 0x0 DUP1 REVERT JUMPDEST POP PUSH2 0x3D4B DUP9 DUP3 DUP10 ADD PUSH2 0x3AEB JUMP JUMPDEST SWAP6 SWAP9 SWAP5 SWAP8 POP SWAP5 SWAP6 PUSH1 0x60 DUP2 ADD CALLDATALOAD SWAP6 POP PUSH1 0x80 ADD CALLDATALOAD SWAP4 SWAP3 POP POP POP JUMP JUMPDEST PUSH4 0x4E487B71 PUSH1 0xE0 SHL PUSH1 0x0 MSTORE PUSH1 0x11 PUSH1 0x4 MSTORE PUSH1 0x24 PUSH1 0x0 REVERT JUMPDEST PUSH1 0x0 PUSH1 0x1 DUP3 ADD PUSH2 0x3D8C JUMPI PUSH2 0x3D8C PUSH2 0x3D64 JUMP JUMPDEST POP PUSH1 0x1 ADD SWAP1 JUMP JUMPDEST PUSH1 0x1 DUP2 DUP2 SHR SWAP1 DUP3 AND DUP1 PUSH2 0x3DA7 JUMPI PUSH1 0x7F DUP3 AND SWAP2 POP JUMPDEST PUSH1 0x20 DUP3 LT DUP2 SUB PUSH2 0x3DC7 JUMPI PUSH4 0x4E487B71 PUSH1 0xE0 SHL PUSH1 0x0 MSTORE PUSH1 0x22 PUSH1 0x4 MSTORE PUSH1 0x24 PUSH1 0x0 REVERT JUMPDEST POP SWAP2 SWAP1 POP JUMP JUMPDEST PUSH4 0x4E487B71 PUSH1 0xE0 SHL PUSH1 0x0 MSTORE PUSH1 0x32 PUSH1 0x4 MSTORE PUSH1 0x24 PUSH1 0x0 REVERT JUMPDEST PUSH1 0x20 DUP1 DUP3 MSTORE PUSH1 0x13 SWAP1 DUP3 ADD MSTORE PUSH19 0x556E617574686F72697A656420656E74697479 PUSH1 0x68 SHL PUSH1 0x40 DUP3 ADD MSTORE PUSH1 0x60 ADD SWAP1 JUMP JUMPDEST PUSH1 0x20 DUP1 DUP3 MSTORE PUSH1 0x1E SWAP1 DUP3 ADD MSTORE PUSH32 0x54686973206A6F62206C697374696E6720646F65736E27742065786973740000 PUSH1 0x40 DUP3 ADD MSTORE PUSH1 0x60 ADD SWAP1 JUMP JUMPDEST PUSH1 0x20 DUP1 DUP3 MSTORE PUSH1 0x17 SWAP1 DUP3 ADD MSTORE PUSH23 0x2A3434B9903537B1103430B9903132B2B7103A30B5B2B7 PUSH1 0x49 SHL PUSH1 0x40 DUP3 ADD MSTORE PUSH1 0x60 ADD SWAP1 JUMP JUMPDEST PUSH1 0x0 PUSH1 0x20 DUP3 DUP5 SUB SLT ISZERO PUSH2 0x3E8A JUMPI PUSH1 0x0 DUP1 REVERT JUMPDEST DUP2 MLOAD DUP1 ISZERO ISZERO DUP2 EQ PUSH2 0x3C2D JUMPI PUSH1 0x0 DUP1 REVERT JUMPDEST PUSH1 0x1F DUP3 GT ISZERO PUSH2 0x3EE4 JUMPI PUSH1 0x0 DUP2 DUP2 MSTORE PUSH1 0x20 DUP2 KECCAK256 PUSH1 0x1F DUP6 ADD PUSH1 0x5 SHR DUP2 ADD PUSH1 0x20 DUP7 LT ISZERO PUSH2 0x3EC1 JUMPI POP DUP1 JUMPDEST PUSH1 0x1F DUP6 ADD PUSH1 0x5 SHR DUP3 ADD SWAP2 POP JUMPDEST DUP2 DUP2 LT ISZERO PUSH2 0x3EE0 JUMPI DUP3 DUP2 SSTORE PUSH1 0x1 ADD PUSH2 0x3ECD JUMP JUMPDEST POP POP POP JUMPDEST POP POP POP JUMP JUMPDEST DUP2 MLOAD PUSH1 0x1 PUSH1 0x1 PUSH1 0x40 SHL SUB DUP2 GT ISZERO PUSH2 0x3F02 JUMPI PUSH2 0x3F02 PUSH2 0x3AD5 JUMP JUMPDEST PUSH2 0x3F16 DUP2 PUSH2 0x3F10 DUP5 SLOAD PUSH2 0x3D93 JUMP JUMPDEST DUP5 PUSH2 0x3E9A JUMP JUMPDEST PUSH1 0x20 DUP1 PUSH1 0x1F DUP4 GT PUSH1 0x1 DUP2 EQ PUSH2 0x3F4B JUMPI PUSH1 0x0 DUP5 ISZERO PUSH2 0x3F33 JUMPI POP DUP6 DUP4 ADD MLOAD JUMPDEST PUSH1 0x0 NOT PUSH1 0x3 DUP7 SWAP1 SHL SHR NOT AND PUSH1 0x1 DUP6 SWAP1 SHL OR DUP6 SSTORE PUSH2 0x3EE0 JUMP JUMPDEST PUSH1 0x0 DUP6 DUP2 MSTORE PUSH1 0x20 DUP2 KECCAK256 PUSH1 0x1F NOT DUP7 AND SWAP2 JUMPDEST DUP3 DUP2 LT ISZERO PUSH2 0x3F7A JUMPI DUP9 DUP7 ADD MLOAD DUP3 SSTORE SWAP5 DUP5 ADD SWAP5 PUSH1 0x1 SWAP1 SWAP2 ADD SWAP1 DUP5 ADD PUSH2 0x3F5B JUMP JUMPDEST POP DUP6 DUP3 LT ISZERO PUSH2 0x3F98 JUMPI DUP8 DUP6 ADD MLOAD PUSH1 0x0 NOT PUSH1 0x3 DUP9 SWAP1 SHL PUSH1 0xF8 AND SHR NOT AND DUP2 SSTORE JUMPDEST POP POP POP POP POP PUSH1 0x1 SWAP1 DUP2 SHL ADD SWAP1 SSTORE POP JUMP JUMPDEST DUP1 DUP3 MUL DUP2 ISZERO DUP3 DUP3 DIV DUP5 EQ OR PUSH2 0x3FBF JUMPI PUSH2 0x3FBF PUSH2 0x3D64 JUMP JUMPDEST SWAP3 SWAP2 POP POP JUMP JUMPDEST PUSH1 0x0 DUP3 PUSH2 0x3FE2 JUMPI PUSH4 0x4E487B71 PUSH1 0xE0 SHL PUSH1 0x0 MSTORE PUSH1 0x12 PUSH1 0x4 MSTORE PUSH1 0x24 PUSH1 0x0 REVERT JUMPDEST POP DIV SWAP1 JUMP JUMPDEST DUP2 DUP2 SUB DUP2 DUP2 GT ISZERO PUSH2 0x3FBF JUMPI PUSH2 0x3FBF PUSH2 0x3D64 JUMP JUMPDEST PUSH1 0x1 PUSH1 0x1 PUSH1 0xA0 SHL SUB SWAP3 SWAP1 SWAP3 AND DUP3 MSTORE PUSH1 0x20 DUP3 ADD MSTORE PUSH1 0x40 ADD SWAP1 JUMP INVALID LOG2 PUSH5 0x6970667358 0x22 SLT KECCAK256 0xD2 PUSH28 0x6904D9E0166488EE939790A9AF37A89F1B31153D424BC4C8F86E4CAD SWAP10 0x1F PUSH5 0x736F6C6343 STOP ADDMOD SLT STOP CALLER "},"methodIdentifiers":{"acceptBid(uint256,address)":"02068664","addJobListing(string,string,string,uint256,uint256)":"f9f3b63f","bidForJob(uint256,uint256)":"4117fa7e","completeJob(uint256,string)":"d190508f","deleteJob(uint256)":"6358bb8c","getAssignedJobs()":"00ebd5fa","getBidders(uint256)":"4fa7b507","getDisputedJobs()":"2f3cddad","getJob(uint256)":"bf22c457","getJobs()":"68581ebd","getJobsForBidder()":"c4ff0b45","getMyJobs()":"9b00214c","hasPlacedBid(uint256,address)":"000a106b","jobListingExists(uint256)":"685c6f3e","jobListings(uint256)":"6ee79cf2","owner()":"8da5cb5b","payout(uint256)":"e1152343","platformCharge()":"8b142225","raiseDispute(uint256)":"a5c1674e","renounceOwnership()":"715018a6","resolveDispute(uint256,uint8)":"e55e4211","transferOwnership(address)":"f2fde38b","updateJob(uint256,string,string,string,uint256,uint256)":"a305dfe5","usdt()":"2f48ab7d"}}}}}