{
  "_format": "hh-sol-artifact-1",
  "contractName": "DappWorks",
  "sourceName": "contracts/DappWorks.sol",
  "abi": [
    {
      "inputs": [
        {
          "internalType": "address",
          "name": "_usdtAddress",
          "type": "address"
        }
      ],
      "stateMutability": "nonpayable",
      "type": "constructor"
    },
    {
      "anonymous": false,
      "inputs": [
        {
          "indexed": true,
          "internalType": "uint256",
          "name": "jobId",
          "type": "uint256"
        },
        {
          "indexed": true,
          "internalType": "address",
          "name": "initiator",
          "type": "address"
        }
      ],
      "name": "DisputeRaised",
      "type": "event"
    },
    {
      "anonymous": false,
      "inputs": [
        {
          "indexed": true,
          "internalType": "uint256",
          "name": "jobId",
          "type": "uint256"
        },
        {
          "indexed": false,
          "internalType": "uint8",
          "name": "completionPct",
          "type": "uint8"
        }
      ],
      "name": "DisputeResolved",
      "type": "event"
    },
    {
      "anonymous": false,
      "inputs": [
        {
          "indexed": true,
          "internalType": "address",
          "name": "previousOwner",
          "type": "address"
        },
        {
          "indexed": true,
          "internalType": "address",
          "name": "newOwner",
          "type": "address"
        }
      ],
      "name": "OwnershipTransferred",
      "type": "event"
    },
    {
      "inputs": [
        {
          "internalType": "uint256",
          "name": "id",
          "type": "uint256"
        },
        {
          "internalType": "address",
          "name": "bidder",
          "type": "address"
        }
      ],
      "name": "acceptBid",
      "outputs": [],
      "stateMutability": "nonpayable",
      "type": "function"
    },
    {
      "inputs": [
        {
          "internalType": "string",
          "name": "jobTitle",
          "type": "string"
        },
        {
          "internalType": "string",
          "name": "description",
          "type": "string"
        },
        {
          "internalType": "string",
          "name": "tags",
          "type": "string"
        },
        {
          "internalType": "uint256",
          "name": "minBudget",
          "type": "uint256"
        },
        {
          "internalType": "uint256",
          "name": "maxBudget",
          "type": "uint256"
        }
      ],
      "name": "addJobListing",
      "outputs": [],
      "stateMutability": "nonpayable",
      "type": "function"
    },
    {
      "inputs": [
        {
          "internalType": "uint256",
          "name": "id",
          "type": "uint256"
        },
        {
          "internalType": "uint256",
          "name": "bidAmount",
          "type": "uint256"
        }
      ],
      "name": "bidForJob",
      "outputs": [],
      "stateMutability": "nonpayable",
      "type": "function"
    },
    {
      "inputs": [
        {
          "internalType": "uint256",
          "name": "id",
          "type": "uint256"
        },
        {
          "internalType": "string",
          "name": "githubUrl",
          "type": "string"
        }
      ],
      "name": "completeJob",
      "outputs": [],
      "stateMutability": "nonpayable",
      "type": "function"
    },
    {
      "inputs": [
        {
          "internalType": "uint256",
          "name": "id",
          "type": "uint256"
        }
      ],
      "name": "deleteJob",
      "outputs": [],
      "stateMutability": "nonpayable",
      "type": "function"
    },
    {
      "inputs": [],
      "name": "getAssignedJobs",
      "outputs": [
        {
          "components": [
            {
              "internalType": "uint256",
              "name": "id",
              "type": "uint256"
            },
            {
              "internalType": "address",
              "name": "owner",
              "type": "address"
            },
            {
              "internalType": "address",
              "name": "freelancer",
              "type": "address"
            },
            {
              "internalType": "string",
              "name": "jobTitle",
              "type": "string"
            },
            {
              "internalType": "string",
              "name": "description",
              "type": "string"
            },
            {
              "internalType": "string",
              "name": "tags",
              "type": "string"
            },
            {
              "internalType": "uint256",
              "name": "minBudget",
              "type": "uint256"
            },
            {
              "internalType": "uint256",
              "name": "maxBudget",
              "type": "uint256"
            },
            {
              "internalType": "uint256",
              "name": "finalBudget",
              "type": "uint256"
            },
            {
              "internalType": "string",
              "name": "githubUrl",
              "type": "string"
            },
            {
              "internalType": "uint256",
              "name": "timestamp",
              "type": "uint256"
            },
            {
              "internalType": "enum DappWorks.JobState",
              "name": "state",
              "type": "uint8"
            },
            {
              "internalType": "uint8",
              "name": "completionPct",
              "type": "uint8"
            },
            {
              "internalType": "address[]",
              "name": "bidders",
              "type": "address[]"
            }
          ],
          "internalType": "struct DappWorks.JobStruct[]",
          "name": "",
          "type": "tuple[]"
        }
      ],
      "stateMutability": "view",
      "type": "function"
    },
    {
      "inputs": [
        {
          "internalType": "uint256",
          "name": "id",
          "type": "uint256"
        }
      ],
      "name": "getBidders",
      "outputs": [
        {
          "components": [
            {
              "internalType": "uint256",
              "name": "id",
              "type": "uint256"
            },
            {
              "internalType": "uint256",
              "name": "jId",
              "type": "uint256"
            },
            {
              "internalType": "address",
              "name": "account",
              "type": "address"
            },
            {
              "internalType": "uint256",
              "name": "bidAmount",
              "type": "uint256"
            }
          ],
          "internalType": "struct DappWorks.BidStruct[]",
          "name": "",
          "type": "tuple[]"
        }
      ],
      "stateMutability": "view",
      "type": "function"
    },
    {
      "inputs": [],
      "name": "getDisputedJobs",
      "outputs": [
        {
          "components": [
            {
              "internalType": "uint256",
              "name": "id",
              "type": "uint256"
            },
            {
              "internalType": "address",
              "name": "owner",
              "type": "address"
            },
            {
              "internalType": "address",
              "name": "freelancer",
              "type": "address"
            },
            {
              "internalType": "string",
              "name": "jobTitle",
              "type": "string"
            },
            {
              "internalType": "string",
              "name": "description",
              "type": "string"
            },
            {
              "internalType": "string",
              "name": "tags",
              "type": "string"
            },
            {
              "internalType": "uint256",
              "name": "minBudget",
              "type": "uint256"
            },
            {
              "internalType": "uint256",
              "name": "maxBudget",
              "type": "uint256"
            },
            {
              "internalType": "uint256",
              "name": "finalBudget",
              "type": "uint256"
            },
            {
              "internalType": "string",
              "name": "githubUrl",
              "type": "string"
            },
            {
              "internalType": "uint256",
              "name": "timestamp",
              "type": "uint256"
            },
            {
              "internalType": "enum DappWorks.JobState",
              "name": "state",
              "type": "uint8"
            },
            {
              "internalType": "uint8",
              "name": "completionPct",
              "type": "uint8"
            },
            {
              "internalType": "address[]",
              "name": "bidders",
              "type": "address[]"
            }
          ],
          "internalType": "struct DappWorks.JobStruct[]",
          "name": "",
          "type": "tuple[]"
        }
      ],
      "stateMutability": "view",
      "type": "function"
    },
    {
      "inputs": [
        {
          "internalType": "uint256",
          "name": "id",
          "type": "uint256"
        }
      ],
      "name": "getJob",
      "outputs": [
        {
          "components": [
            {
              "internalType": "uint256",
              "name": "id",
              "type": "uint256"
            },
            {
              "internalType": "address",
              "name": "owner",
              "type": "address"
            },
            {
              "internalType": "address",
              "name": "freelancer",
              "type": "address"
            },
            {
              "internalType": "string",
              "name": "jobTitle",
              "type": "string"
            },
            {
              "internalType": "string",
              "name": "description",
              "type": "string"
            },
            {
              "internalType": "string",
              "name": "tags",
              "type": "string"
            },
            {
              "internalType": "uint256",
              "name": "minBudget",
              "type": "uint256"
            },
            {
              "internalType": "uint256",
              "name": "maxBudget",
              "type": "uint256"
            },
            {
              "internalType": "uint256",
              "name": "finalBudget",
              "type": "uint256"
            },
            {
              "internalType": "string",
              "name": "githubUrl",
              "type": "string"
            },
            {
              "internalType": "uint256",
              "name": "timestamp",
              "type": "uint256"
            },
            {
              "internalType": "enum DappWorks.JobState",
              "name": "state",
              "type": "uint8"
            },
            {
              "internalType": "uint8",
              "name": "completionPct",
              "type": "uint8"
            },
            {
              "internalType": "address[]",
              "name": "bidders",
              "type": "address[]"
            }
          ],
          "internalType": "struct DappWorks.JobStruct",
          "name": "",
          "type": "tuple"
        }
      ],
      "stateMutability": "view",
      "type": "function"
    },
    {
      "inputs": [],
      "name": "getJobs",
      "outputs": [
        {
          "components": [
            {
              "internalType": "uint256",
              "name": "id",
              "type": "uint256"
            },
            {
              "internalType": "address",
              "name": "owner",
              "type": "address"
            },
            {
              "internalType": "address",
              "name": "freelancer",
              "type": "address"
            },
            {
              "internalType": "string",
              "name": "jobTitle",
              "type": "string"
            },
            {
              "internalType": "string",
              "name": "description",
              "type": "string"
            },
            {
              "internalType": "string",
              "name": "tags",
              "type": "string"
            },
            {
              "internalType": "uint256",
              "name": "minBudget",
              "type": "uint256"
            },
            {
              "internalType": "uint256",
              "name": "maxBudget",
              "type": "uint256"
            },
            {
              "internalType": "uint256",
              "name": "finalBudget",
              "type": "uint256"
            },
            {
              "internalType": "string",
              "name": "githubUrl",
              "type": "string"
            },
            {
              "internalType": "uint256",
              "name": "timestamp",
              "type": "uint256"
            },
            {
              "internalType": "enum DappWorks.JobState",
              "name": "state",
              "type": "uint8"
            },
            {
              "internalType": "uint8",
              "name": "completionPct",
              "type": "uint8"
            },
            {
              "internalType": "address[]",
              "name": "bidders",
              "type": "address[]"
            }
          ],
          "internalType": "struct DappWorks.JobStruct[]",
          "name": "",
          "type": "tuple[]"
        }
      ],
      "stateMutability": "view",
      "type": "function"
    },
    {
      "inputs": [],
      "name": "getJobsForBidder",
      "outputs": [
        {
          "components": [
            {
              "internalType": "uint256",
              "name": "id",
              "type": "uint256"
            },
            {
              "internalType": "address",
              "name": "owner",
              "type": "address"
            },
            {
              "internalType": "address",
              "name": "freelancer",
              "type": "address"
            },
            {
              "internalType": "string",
              "name": "jobTitle",
              "type": "string"
            },
            {
              "internalType": "string",
              "name": "description",
              "type": "string"
            },
            {
              "internalType": "string",
              "name": "tags",
              "type": "string"
            },
            {
              "internalType": "uint256",
              "name": "minBudget",
              "type": "uint256"
            },
            {
              "internalType": "uint256",
              "name": "maxBudget",
              "type": "uint256"
            },
            {
              "internalType": "uint256",
              "name": "finalBudget",
              "type": "uint256"
            },
            {
              "internalType": "string",
              "name": "githubUrl",
              "type": "string"
            },
            {
              "internalType": "uint256",
              "name": "timestamp",
              "type": "uint256"
            },
            {
              "internalType": "enum DappWorks.JobState",
              "name": "state",
              "type": "uint8"
            },
            {
              "internalType": "uint8",
              "name": "completionPct",
              "type": "uint8"
            },
            {
              "internalType": "address[]",
              "name": "bidders",
              "type": "address[]"
            }
          ],
          "internalType": "struct DappWorks.JobStruct[]",
          "name": "",
          "type": "tuple[]"
        }
      ],
      "stateMutability": "view",
      "type": "function"
    },
    {
      "inputs": [],
      "name": "getMyJobs",
      "outputs": [
        {
          "components": [
            {
              "internalType": "uint256",
              "name": "id",
              "type": "uint256"
            },
            {
              "internalType": "address",
              "name": "owner",
              "type": "address"
            },
            {
              "internalType": "address",
              "name": "freelancer",
              "type": "address"
            },
            {
              "internalType": "string",
              "name": "jobTitle",
              "type": "string"
            },
            {
              "internalType": "string",
              "name": "description",
              "type": "string"
            },
            {
              "internalType": "string",
              "name": "tags",
              "type": "string"
            },
            {
              "internalType": "uint256",
              "name": "minBudget",
              "type": "uint256"
            },
            {
              "internalType": "uint256",
              "name": "maxBudget",
              "type": "uint256"
            },
            {
              "internalType": "uint256",
              "name": "finalBudget",
              "type": "uint256"
            },
            {
              "internalType": "string",
              "name": "githubUrl",
              "type": "string"
            },
            {
              "internalType": "uint256",
              "name": "timestamp",
              "type": "uint256"
            },
            {
              "internalType": "enum DappWorks.JobState",
              "name": "state",
              "type": "uint8"
            },
            {
              "internalType": "uint8",
              "name": "completionPct",
              "type": "uint8"
            },
            {
              "internalType": "address[]",
              "name": "bidders",
              "type": "address[]"
            }
          ],
          "internalType": "struct DappWorks.JobStruct[]",
          "name": "",
          "type": "tuple[]"
        }
      ],
      "stateMutability": "view",
      "type": "function"
    },
    {
      "inputs": [
        {
          "internalType": "uint256",
          "name": "",
          "type": "uint256"
        },
        {
          "internalType": "address",
          "name": "",
          "type": "address"
        }
      ],
      "name": "hasPlacedBid",
      "outputs": [
        {
          "internalType": "bool",
          "name": "",
          "type": "bool"
        }
      ],
      "stateMutability": "view",
      "type": "function"
    },
    {
      "inputs": [
        {
          "internalType": "uint256",
          "name": "",
          "type": "uint256"
        }
      ],
      "name": "jobListingExists",
      "outputs": [
        {
          "internalType": "bool",
          "name": "",
          "type": "bool"
        }
      ],
      "stateMutability": "view",
      "type": "function"
    },
    {
      "inputs": [
        {
          "internalType": "uint256",
          "name": "",
          "type": "uint256"
        }
      ],
      "name": "jobListings",
      "outputs": [
        {
          "internalType": "uint256",
          "name": "id",
          "type": "uint256"
        },
        {
          "internalType": "address",
          "name": "owner",
          "type": "address"
        },
        {
          "internalType": "address",
          "name": "freelancer",
          "type": "address"
        },
        {
          "internalType": "string",
          "name": "jobTitle",
          "type": "string"
        },
        {
          "internalType": "string",
          "name": "description",
          "type": "string"
        },
        {
          "internalType": "string",
          "name": "tags",
          "type": "string"
        },
        {
          "internalType": "uint256",
          "name": "minBudget",
          "type": "uint256"
        },
        {
          "internalType": "uint256",
          "name": "maxBudget",
          "type": "uint256"
        },
        {
          "internalType": "uint256",
          "name": "finalBudget",
          "type": "uint256"
        },
        {
          "internalType": "string",
          "name": "githubUrl",
          "type": "string"
        },
        {
          "internalType": "uint256",
          "name": "timestamp",
          "type": "uint256"
        },
        {
          "internalType": "enum DappWorks.JobState",
          "name": "state",
          "type": "uint8"
        },
        {
          "internalType": "uint8",
          "name": "completionPct",
          "type": "uint8"
        }
      ],
      "stateMutability": "view",
      "type": "function"
    },
    {
      "inputs": [],
      "name": "owner",
      "outputs": [
        {
          "internalType": "address",
          "name": "",
          "type": "address"
        }
      ],
      "stateMutability": "view",
      "type": "function"
    },
    {
      "inputs": [
        {
          "internalType": "uint256",
          "name": "id",
          "type": "uint256"
        }
      ],
      "name": "payout",
      "outputs": [],
      "stateMutability": "nonpayable",
      "type": "function"
    },
    {
      "inputs": [],
      "name": "platformCharge",
      "outputs": [
        {
          "internalType": "uint256",
          "name": "",
          "type": "uint256"
        }
      ],
      "stateMutability": "view",
      "type": "function"
    },
    {
      "inputs": [
        {
          "internalType": "uint256",
          "name": "id",
          "type": "uint256"
        }
      ],
      "name": "raiseDispute",
      "outputs": [],
      "stateMutability": "nonpayable",
      "type": "function"
    },
    {
      "inputs": [],
      "name": "renounceOwnership",
      "outputs": [],
      "stateMutability": "nonpayable",
      "type": "function"
    },
    {
      "inputs": [
        {
          "internalType": "uint256",
          "name": "id",
          "type": "uint256"
        },
        {
          "internalType": "uint8",
          "name": "pct",
          "type": "uint8"
        }
      ],
      "name": "resolveDispute",
      "outputs": [],
      "stateMutability": "nonpayable",
      "type": "function"
    },
    {
      "inputs": [
        {
          "internalType": "address",
          "name": "newOwner",
          "type": "address"
        }
      ],
      "name": "transferOwnership",
      "outputs": [],
      "stateMutability": "nonpayable",
      "type": "function"
    },
    {
      "inputs": [
        {
          "internalType": "uint256",
          "name": "id",
          "type": "uint256"
        },
        {
          "internalType": "string",
          "name": "jobTitle",
          "type": "string"
        },
        {
          "internalType": "string",
          "name": "description",
          "type": "string"
        },
        {
          "internalType": "string",
          "name": "tags",
          "type": "string"
        },
        {
          "internalType": "uint256",
          "name": "minBudget",
          "type": "uint256"
        },
        {
          "internalType": "uint256",
          "name": "maxBudget",
          "type": "uint256"
        }
      ],
      "name": "updateJob",
      "outputs": [],
      "stateMutability": "nonpayable",
      "type": "function"
    },
    {
      "inputs": [],
      "name": "usdt",
      "outputs": [
        {
          "internalType": "contract IERC20",
          "name": "",
          "type": "address"
        }
      ],
      "stateMutability": "view",
      "type": "function"
    }
  ],
  "bytecode": "0x608060405260056004553480156200001657600080fd5b5060405162004149380380620041498339810160408190526200003991620000be565b62000044336200006e565b60018055600280546001600160a01b0319166001600160a01b0392909216919091179055620000f0565b600080546001600160a01b038381166001600160a01b0319831681178455604051919092169283917f8be0079c531659141344cd1fd0a4f28419497f9722a3daafe3b4186f6b6457e09190a35050565b600060208284031215620000d157600080fd5b81516001600160a01b0381168114620000e957600080fd5b9392505050565b61404980620001006000396000f3fe608060405234801561001057600080fd5b50600436106101565760003560e01c80638b142225116100c3578063c4ff0b451161007c578063c4ff0b4514610316578063d190508f1461031e578063e115234314610331578063e55e421114610344578063f2fde38b14610357578063f9f3b63f1461036a57600080fd5b80638b142225146102a05780638da5cb5b146102b75780639b00214c146102c8578063a305dfe5146102d0578063a5c1674e146102e3578063bf22c457146102f657600080fd5b80634fa7b507116101155780634fa7b5071461020e5780636358bb8c1461022e57806368581ebd14610241578063685c6f3e146102495780636ee79cf21461026c578063715018a61461029857600080fd5b80620a106b1461015b578062ebd5fa1461019e57806302068664146101b35780632f3cddad146101c85780632f48ab7d146101d05780634117fa7e146101fb575b600080fd5b610189610169366004613708565b600860209081526000928352604080842090915290825290205460ff1681565b60405190151581526020015b60405180910390f35b6101a661037d565b6040516101959190613910565b6101c66101c1366004613708565b61082f565b005b6101a6610b08565b6002546101e3906001600160a01b031681565b6040516001600160a01b039091168152602001610195565b6101c6610209366004613972565b610fd1565b61022161021c366004613994565b611200565b60405161019591906139ad565b6101c661023c366004613994565b61129d565b6101a661140b565b610189610257366004613994565b60076020526000908152604090205460ff1681565b61027f61027a366004613994565b6118c8565b6040516101959d9c9b9a99989796959493929190613a1a565b6101c6611b5c565b6102a960045481565b604051908152602001610195565b6000546001600160a01b03166101e3565b6101a6611b70565b6101c66102de366004613b77565b612019565b6101c66102f1366004613994565b61213e565b610309610304366004613994565b6122dc565b6040516101959190613c1a565b6101a661264b565b6101c661032c366004613c34565b612ac0565b6101c661033f366004613994565b612c10565b6101c6610352366004613c7a565b612e6f565b6101c6610365366004613cb0565b613209565b6101c6610378366004613ccb565b61327f565b6060600060015b60035481116103e95760008181526007602052604090205460ff1680156103c457506000818152600560205260409020600201546001600160a01b031633145b156103d757816103d381613d7a565b9250505b806103e181613d7a565b915050610384565b506000816001600160401b0381111561040457610404613ad5565b60405190808252806020026020018201604052801561043d57816020015b61042a6135ed565b8152602001906001900390816104225790505b509050600060015b60035481116108265760008181526007602052604090205460ff16801561048557506000818152600560205260409020600201546001600160a01b031633145b156108145760008181526005602090815260409182902082516101c0810184528154815260018201546001600160a01b03908116938201939093526002820154909216928201929092526003820180549192916060840191906104e790613d93565b80601f016020809104026020016040519081016040528092919081815260200182805461051390613d93565b80156105605780601f1061053557610100808354040283529160200191610560565b820191906000526020600020905b81548152906001019060200180831161054357829003601f168201915b5050505050815260200160048201805461057990613d93565b80601f01602080910402602001604051908101604052809291908181526020018280546105a590613d93565b80156105f25780601f106105c7576101008083540402835291602001916105f2565b820191906000526020600020905b8154815290600101906020018083116105d557829003601f168201915b5050505050815260200160058201805461060b90613d93565b80601f016020809104026020016040519081016040528092919081815260200182805461063790613d93565b80156106845780601f1061065957610100808354040283529160200191610684565b820191906000526020600020905b81548152906001019060200180831161066757829003601f168201915b505050505081526020016006820154815260200160078201548152602001600882015481526020016009820180546106bb90613d93565b80601f01602080910402602001604051908101604052809291908181526020018280546106e790613d93565b80156107345780601f1061070957610100808354040283529160200191610734565b820191906000526020600020905b81548152906001019060200180831161071757829003601f168201915b5050509183525050600a8201546020820152600b82015460409091019060ff1660048111156107655761076561377a565b60048111156107765761077661377a565b8152600b820154610100900460ff16602080830191909152600c8301805460408051828502810185018252828152940193928301828280156107e157602002820191906000526020600020905b81546001600160a01b031681526001909101906020018083116107c3575b5050505050815250508383806107f690613d7a565b94508151811061080857610808613dcd565b60200260200101819052505b8061081e81613d7a565b915050610445565b50909392505050565b60008281526005602052604090206001015482906001600160a01b031633146108735760405162461bcd60e51b815260040161086a90613de3565b60405180910390fd5b60008381526007602052604090205460ff166108a15760405162461bcd60e51b815260040161086a90613e10565b6000838152600560205260408120600b015460ff1660048111156108c7576108c761377a565b146108e45760405162461bcd60e51b815260040161086a90613e47565b60008381526008602090815260408083206001600160a01b038616845290915290205460ff1661094c5760405162461bcd60e51b81526020600482015260136024820152722ab734b232b73a34b334b2b2103134b23232b960691b604482015260640161086a565b6000805b6000858152600660205260409020548110156109ff57600085815260066020526040902080546001600160a01b03861691908390811061099257610992613dcd565b60009182526020909120600260049092020101546001600160a01b0316036109ed5760008581526006602052604090208054829081106109d4576109d4613dcd565b90600052602060002090600402016003015491506109ff565b806109f781613d7a565b915050610950565b5060008111610a405760405162461bcd60e51b815260206004820152600d60248201526c109a59081b9bdd08199bdd5b99609a1b604482015260640161086a565b60008481526005602052604090206002810180546001600160a01b0319166001600160a01b03861617905560088101829055600b0180546001919060ff1916828002179055506002546040516323b872dd60e01b8152336004820152306024820152604481018390526001600160a01b03909116906323b872dd906064016020604051808303816000875af1158015610add573d6000803e3d6000fd5b505050506040513d601f19601f82011682018060405250810190610b019190613e78565b5050505050565b6060610b126134ea565b600060015b6003548111610b885760008181526007602052604090205460ff168015610b63575060036000828152600560205260409020600b015460ff166004811115610b6157610b6161377a565b145b15610b765781610b7281613d7a565b9250505b80610b8081613d7a565b915050610b17565b506000816001600160401b03811115610ba357610ba3613ad5565b604051908082528060200260200182016040528015610bdc57816020015b610bc96135ed565b815260200190600190039081610bc15790505b509050600060015b60035481116108265760008181526007602052604090205460ff168015610c30575060036000828152600560205260409020600b015460ff166004811115610c2e57610c2e61377a565b145b15610fbf5760008181526005602090815260409182902082516101c0810184528154815260018201546001600160a01b0390811693820193909352600282015490921692820192909252600382018054919291606084019190610c9290613d93565b80601f0160208091040260200160405190810160405280929190818152602001828054610cbe90613d93565b8015610d0b5780601f10610ce057610100808354040283529160200191610d0b565b820191906000526020600020905b815481529060010190602001808311610cee57829003601f168201915b50505050508152602001600482018054610d2490613d93565b80601f0160208091040260200160405190810160405280929190818152602001828054610d5090613d93565b8015610d9d5780601f10610d7257610100808354040283529160200191610d9d565b820191906000526020600020905b815481529060010190602001808311610d8057829003601f168201915b50505050508152602001600582018054610db690613d93565b80601f0160208091040260200160405190810160405280929190818152602001828054610de290613d93565b8015610e2f5780601f10610e0457610100808354040283529160200191610e2f565b820191906000526020600020905b815481529060010190602001808311610e1257829003601f168201915b50505050508152602001600682015481526020016007820154815260200160088201548152602001600982018054610e6690613d93565b80601f0160208091040260200160405190810160405280929190818152602001828054610e9290613d93565b8015610edf5780601f10610eb457610100808354040283529160200191610edf565b820191906000526020600020905b815481529060010190602001808311610ec257829003601f168201915b5050509183525050600a8201546020820152600b82015460409091019060ff166004811115610f1057610f1061377a565b6004811115610f2157610f2161377a565b8152600b820154610100900460ff16602080830191909152600c830180546040805182850281018501825282815294019392830182828015610f8c57602002820191906000526020600020905b81546001600160a01b03168152600190910190602001808311610f6e575b505050505081525050838380610fa190613d7a565b945081518110610fb357610fb3613dcd565b60200260200101819052505b80610fc981613d7a565b915050610be4565b60008281526007602052604090205460ff16610fff5760405162461bcd60e51b815260040161086a90613e10565b600082815260056020526040902060010154336001600160a01b039091160361105e5760405162461bcd60e51b8152602060048201526011602482015270466f7262696464656e20616374696f6e2160781b604482015260640161086a565b6000828152600560205260408120600b015460ff1660048111156110845761108461377a565b146110a15760405162461bcd60e51b815260040161086a90613e47565b600082815260086020908152604080832033845290915290205460ff161561110b5760405162461bcd60e51b815260206004820152601d60248201527f596f75206861766520706c6163656420612062696420616c7265616479000000604482015260640161086a565b61113f6040518060800160405280600081526020016000815260200160006001600160a01b03168152602001600081525090565b6000838152600660208181526040808420805486528583018881523387840181815260608901998a528a88526008865284882082895286528488208054600160ff1990911681179091559a885260058652938720600c018054808c0182559088528588200180546001600160a01b031990811690921790559484528154808a0183559186529290942094516004909402909401928355519482019490945590516002820180549094166001600160a01b039091161790925551600390910155565b606060066000838152602001908152602001600020805480602002602001604051908101604052809291908181526020016000905b828210156112925760008481526020908190206040805160808101825260048602909201805483526001808201548486015260028201546001600160a01b0316928401929092526003015460608301529083529092019101611235565b505050509050919050565b60008181526005602052604090206001015481906001600160a01b031633146112d85760405162461bcd60e51b815260040161086a90613de3565b60008281526007602052604090205460ff166113065760405162461bcd60e51b815260040161086a90613e10565b6000828152600560205260408120600b015460ff16600481111561132c5761132c61377a565b146113495760405162461bcd60e51b815260040161086a90613e47565b60008281526005602052604081208181556001810180546001600160a01b0319908116909155600282018054909116905590611388600383018261367f565b61139660048301600061367f565b6113a460058301600061367f565b6006820160009055600782016000905560088201600090556009820160006113cc919061367f565b6000600a8301819055600b8301805461ffff191690556113f090600c8401906136b9565b5050506000908152600760205260409020805460ff19169055565b6060600060015b60035481116114815760008181526007602052604090205460ff16801561145c57506000818152600560205260408120600b015460ff16600481111561145a5761145a61377a565b145b1561146f578161146b81613d7a565b9250505b8061147981613d7a565b915050611412565b506000816001600160401b0381111561149c5761149c613ad5565b6040519080825280602002602001820160405280156114d557816020015b6114c26135ed565b8152602001906001900390816114ba5790505b509050600060015b60035481116108265760008181526007602052604090205460ff16801561152757506000818152600560205260408120600b015460ff1660048111156115255761152561377a565b145b156118b65760008181526005602090815260409182902082516101c0810184528154815260018201546001600160a01b039081169382019390935260028201549092169282019290925260038201805491929160608401919061158990613d93565b80601f01602080910402602001604051908101604052809291908181526020018280546115b590613d93565b80156116025780601f106115d757610100808354040283529160200191611602565b820191906000526020600020905b8154815290600101906020018083116115e557829003601f168201915b5050505050815260200160048201805461161b90613d93565b80601f016020809104026020016040519081016040528092919081815260200182805461164790613d93565b80156116945780601f1061166957610100808354040283529160200191611694565b820191906000526020600020905b81548152906001019060200180831161167757829003601f168201915b505050505081526020016005820180546116ad90613d93565b80601f01602080910402602001604051908101604052809291908181526020018280546116d990613d93565b80156117265780601f106116fb57610100808354040283529160200191611726565b820191906000526020600020905b81548152906001019060200180831161170957829003601f168201915b5050505050815260200160068201548152602001600782015481526020016008820154815260200160098201805461175d90613d93565b80601f016020809104026020016040519081016040528092919081815260200182805461178990613d93565b80156117d65780601f106117ab576101008083540402835291602001916117d6565b820191906000526020600020905b8154815290600101906020018083116117b957829003601f168201915b5050509183525050600a8201546020820152600b82015460409091019060ff1660048111156118075761180761377a565b60048111156118185761181861377a565b8152600b820154610100900460ff16602080830191909152600c83018054604080518285028101850182528281529401939283018282801561188357602002820191906000526020600020905b81546001600160a01b03168152600190910190602001808311611865575b50505050508152505083838061189890613d7a565b9450815181106118aa576118aa613dcd565b60200260200101819052505b806118c081613d7a565b9150506114dd565b600560205260009081526040902080546001820154600283015460038401805493946001600160a01b0393841694939092169261190490613d93565b80601f016020809104026020016040519081016040528092919081815260200182805461193090613d93565b801561197d5780601f106119525761010080835404028352916020019161197d565b820191906000526020600020905b81548152906001019060200180831161196057829003601f168201915b50505050509080600401805461199290613d93565b80601f01602080910402602001604051908101604052809291908181526020018280546119be90613d93565b8015611a0b5780601f106119e057610100808354040283529160200191611a0b565b820191906000526020600020905b8154815290600101906020018083116119ee57829003601f168201915b505050505090806005018054611a2090613d93565b80601f0160208091040260200160405190810160405280929190818152602001828054611a4c90613d93565b8015611a995780601f10611a6e57610100808354040283529160200191611a99565b820191906000526020600020905b815481529060010190602001808311611a7c57829003601f168201915b505050505090806006015490806007015490806008015490806009018054611ac090613d93565b80601f0160208091040260200160405190810160405280929190818152602001828054611aec90613d93565b8015611b395780601f10611b0e57610100808354040283529160200191611b39565b820191906000526020600020905b815481529060010190602001808311611b1c57829003601f168201915b50505050600a830154600b9093015491929160ff8082169250610100909104168d565b611b646134ea565b611b6e6000613544565b565b6060600060015b6003548111611bdc5760008181526007602052604090205460ff168015611bb757506000818152600560205260409020600101546001600160a01b031633145b15611bca5781611bc681613d7a565b9250505b80611bd481613d7a565b915050611b77565b506000816001600160401b03811115611bf757611bf7613ad5565b604051908082528060200260200182016040528015611c3057816020015b611c1d6135ed565b815260200190600190039081611c155790505b509050600060015b60035481116108265760008181526007602052604090205460ff168015611c7857506000818152600560205260409020600101546001600160a01b031633145b156120075760008181526005602090815260409182902082516101c0810184528154815260018201546001600160a01b0390811693820193909352600282015490921692820192909252600382018054919291606084019190611cda90613d93565b80601f0160208091040260200160405190810160405280929190818152602001828054611d0690613d93565b8015611d535780601f10611d2857610100808354040283529160200191611d53565b820191906000526020600020905b815481529060010190602001808311611d3657829003601f168201915b50505050508152602001600482018054611d6c90613d93565b80601f0160208091040260200160405190810160405280929190818152602001828054611d9890613d93565b8015611de55780601f10611dba57610100808354040283529160200191611de5565b820191906000526020600020905b815481529060010190602001808311611dc857829003601f168201915b50505050508152602001600582018054611dfe90613d93565b80601f0160208091040260200160405190810160405280929190818152602001828054611e2a90613d93565b8015611e775780601f10611e4c57610100808354040283529160200191611e77565b820191906000526020600020905b815481529060010190602001808311611e5a57829003601f168201915b50505050508152602001600682015481526020016007820154815260200160088201548152602001600982018054611eae90613d93565b80601f0160208091040260200160405190810160405280929190818152602001828054611eda90613d93565b8015611f275780601f10611efc57610100808354040283529160200191611f27565b820191906000526020600020905b815481529060010190602001808311611f0a57829003601f168201915b5050509183525050600a8201546020820152600b82015460409091019060ff166004811115611f5857611f5861377a565b6004811115611f6957611f6961377a565b8152600b820154610100900460ff16602080830191909152600c830180546040805182850281018501825282815294019392830182828015611fd457602002820191906000526020600020905b81546001600160a01b03168152600190910190602001808311611fb6575b505050505081525050838380611fe990613d7a565b945081518110611ffb57611ffb613dcd565b60200260200101819052505b8061201181613d7a565b915050611c38565b60008681526005602052604090206001015486906001600160a01b031633146120545760405162461bcd60e51b815260040161086a90613de3565b60008781526007602052604090205460ff166120825760405162461bcd60e51b815260040161086a90613e10565b6000878152600560205260408120600b015460ff1660048111156120a8576120a861377a565b146120c55760405162461bcd60e51b815260040161086a90613e47565b60008781526005602052604090206003016120e08782613ee9565b5060008781526005602052604090206004016120fc8682613ee9565b506000878152600560208190526040909120016121198582613ee9565b5050600095865260056020526040909520600681019190915560070193909355505050565b60008181526005602052604090206001015481906001600160a01b031633148061218157506000818152600560205260409020600201546001600160a01b031633145b6121de5760405162461bcd60e51b815260206004820152602860248201527f4f6e6c79206a6f6220706172746965732063616e20706572666f726d20746869604482015267399030b1ba34b7b760c11b606482015260840161086a565b60008281526007602052604090205460ff1661220c5760405162461bcd60e51b815260040161086a90613e10565b60026000838152600560205260409020600b015460ff1660048111156122345761223461377a565b146122925760405162461bcd60e51b815260206004820152602860248201527f4a6f62206d75737420626520636f6d706c6574656420746f2072616973652061604482015267206469737075746560c01b606482015260840161086a565b600082815260056020526040808220600b01805460ff1916600317905551339184917f84a477df8a28a4276ca6dee4458a06c3015f30c477d9c949ede4e13ff8a552b49190a35050565b6122e46135ed565b60008281526005602090815260409182902082516101c0810184528154815260018201546001600160a01b039081169382019390935260028201549092169282019290925260038201805491929160608401919061234190613d93565b80601f016020809104026020016040519081016040528092919081815260200182805461236d90613d93565b80156123ba5780601f1061238f576101008083540402835291602001916123ba565b820191906000526020600020905b81548152906001019060200180831161239d57829003601f168201915b505050505081526020016004820180546123d390613d93565b80601f01602080910402602001604051908101604052809291908181526020018280546123ff90613d93565b801561244c5780601f106124215761010080835404028352916020019161244c565b820191906000526020600020905b81548152906001019060200180831161242f57829003601f168201915b5050505050815260200160058201805461246590613d93565b80601f016020809104026020016040519081016040528092919081815260200182805461249190613d93565b80156124de5780601f106124b3576101008083540402835291602001916124de565b820191906000526020600020905b8154815290600101906020018083116124c157829003601f168201915b5050505050815260200160068201548152602001600782015481526020016008820154815260200160098201805461251590613d93565b80601f016020809104026020016040519081016040528092919081815260200182805461254190613d93565b801561258e5780601f106125635761010080835404028352916020019161258e565b820191906000526020600020905b81548152906001019060200180831161257157829003601f168201915b5050509183525050600a8201546020820152600b82015460409091019060ff1660048111156125bf576125bf61377a565b60048111156125d0576125d061377a565b8152600b820154610100900460ff16602080830191909152600c83018054604080518285028101850182528281529401939283018282801561263b57602002820191906000526020600020905b81546001600160a01b0316815260019091019060200180831161261d575b5050505050815250509050919050565b6060600060015b600354811161269d57600081815260086020908152604080832033845290915290205460ff161561268b578161268781613d7a565b9250505b8061269581613d7a565b915050612652565b506000816001600160401b038111156126b8576126b8613ad5565b6040519080825280602002602001820160405280156126f157816020015b6126de6135ed565b8152602001906001900390816126d65790505b509050600060015b600354811161082657600081815260086020908152604080832033845290915290205460ff1615612aae5760008181526005602090815260409182902082516101c0810184528154815260018201546001600160a01b039081169382019390935260028201549092169282019290925260038201805491929160608401919061278190613d93565b80601f01602080910402602001604051908101604052809291908181526020018280546127ad90613d93565b80156127fa5780601f106127cf576101008083540402835291602001916127fa565b820191906000526020600020905b8154815290600101906020018083116127dd57829003601f168201915b5050505050815260200160048201805461281390613d93565b80601f016020809104026020016040519081016040528092919081815260200182805461283f90613d93565b801561288c5780601f106128615761010080835404028352916020019161288c565b820191906000526020600020905b81548152906001019060200180831161286f57829003601f168201915b505050505081526020016005820180546128a590613d93565b80601f01602080910402602001604051908101604052809291908181526020018280546128d190613d93565b801561291e5780601f106128f35761010080835404028352916020019161291e565b820191906000526020600020905b81548152906001019060200180831161290157829003601f168201915b5050505050815260200160068201548152602001600782015481526020016008820154815260200160098201805461295590613d93565b80601f016020809104026020016040519081016040528092919081815260200182805461298190613d93565b80156129ce5780601f106129a3576101008083540402835291602001916129ce565b820191906000526020600020905b8154815290600101906020018083116129b157829003601f168201915b5050509183525050600a8201546020820152600b82015460409091019060ff1660048111156129ff576129ff61377a565b6004811115612a1057612a1061377a565b8152600b820154610100900460ff16602080830191909152600c830180546040805182850281018501825282815294019392830182828015612a7b57602002820191906000526020600020905b81546001600160a01b03168152600190910190602001808311612a5d575b505050505081525050838380612a9090613d7a565b945081518110612aa257612aa2613dcd565b60200260200101819052505b80612ab881613d7a565b9150506126f9565b60008281526005602052604090206002015482906001600160a01b03163314612b3b5760405162461bcd60e51b815260206004820152602760248201527f4f6e6c7920667265656c616e6365722063616e20706572666f726d20746869736044820152661030b1ba34b7b760c91b606482015260840161086a565b60008381526007602052604090205460ff16612b695760405162461bcd60e51b815260040161086a90613e10565b60016000848152600560205260409020600b015460ff166004811115612b9157612b9161377a565b14612bd45760405162461bcd60e51b81526020600482015260136024820152724a6f62206e6f7420696e2070726f677265737360681b604482015260640161086a565b6000838152600560205260409020600901612bef8382613ee9565b5050506000908152600560205260409020600b01805460ff19166002179055565b612c18613594565b60008181526005602052604090206001015481906001600160a01b03163314612c535760405162461bcd60e51b815260040161086a90613de3565b60008281526007602052604090205460ff16612c815760405162461bcd60e51b815260040161086a90613e10565b60026000838152600560205260409020600b015460ff166004811115612ca957612ca961377a565b14612cf65760405162461bcd60e51b815260206004820181905260248201527f4a6f62206e6f7420636f6d706c65746564206f72206973206469737075746564604482015260640161086a565b600082815260056020526040812060080154600454909190606490612d1b9084613fa8565b612d259190613fc5565b90506000612d338284613fe7565b600280546000888152600560205260409081902090920154915163a9059cbb60e01b81529293506001600160a01b039081169263a9059cbb92612d7c9216908590600401613ffa565b6020604051808303816000875af1158015612d9b573d6000803e3d6000fd5b505050506040513d601f19601f82011682018060405250810190612dbf9190613e78565b506002546001600160a01b031663a9059cbb612de36000546001600160a01b031690565b846040518363ffffffff1660e01b8152600401612e01929190613ffa565b6020604051808303816000875af1158015612e20573d6000803e3d6000fd5b505050506040513d601f19601f82011682018060405250810190612e449190613e78565b5050506000838152600560205260409020600b01805460ff1916600417905550506001805550565b50565b612e77613594565b612e7f6134ea565b60008281526007602052604090205460ff16612ead5760405162461bcd60e51b815260040161086a90613e10565b60036000838152600560205260409020600b015460ff166004811115612ed557612ed561377a565b14612f1a5760405162461bcd60e51b81526020600482015260156024820152744a6f62206973206e6f7420696e206469737075746560581b604482015260640161086a565b60648160ff161115612f7a5760405162461bcd60e51b8152602060048201526024808201527f50657263656e74616765206d757374206265206265747765656e203020616e646044820152630203130360e41b606482015260840161086a565b6000828152600560205260408120600b8101805461ff00191661010060ff86160217905560080154600454909190606490612fb59084613fa8565b612fbf9190613fc5565b90506000612fcd8284613fe7565b905060006064612fe060ff871684613fa8565b612fea9190613fc5565b90506000612ff88284613fe7565b9050811561308c57600280546000898152600560205260409081902090920154915163a9059cbb60e01b81526001600160a01b039182169263a9059cbb92613047929116908690600401613ffa565b6020604051808303816000875af1158015613066573d6000803e3d6000fd5b505050506040513d601f19601f8201168201806040525081019061308a9190613e78565b505b801561311d576002546000888152600560205260409081902060010154905163a9059cbb60e01b81526001600160a01b039283169263a9059cbb926130d8929116908590600401613ffa565b6020604051808303816000875af11580156130f7573d6000803e3d6000fd5b505050506040513d601f19601f8201168201806040525081019061311b9190613e78565b505b6002546001600160a01b031663a9059cbb6131406000546001600160a01b031690565b866040518363ffffffff1660e01b815260040161315e929190613ffa565b6020604051808303816000875af115801561317d573d6000803e3d6000fd5b505050506040513d601f19601f820116820180604052508101906131a19190613e78565b50600087815260056020908152604091829020600b01805460ff19166004179055905160ff8816815288917f2ffcfee146bc0d5ff304c6b65111a0d485af9456dc64eee7d66ebdcc90b223ea910160405180910390a2505050505061320560018055565b5050565b6132116134ea565b6001600160a01b0381166132765760405162461bcd60e51b815260206004820152602660248201527f4f776e61626c653a206e6577206f776e657220697320746865207a65726f206160448201526564647265737360d01b606482015260840161086a565b612e6c81613544565b60008551116132d05760405162461bcd60e51b815260206004820152601a60248201527f506c656173652070726f766964652061206a6f62207469746c65000000000000604482015260640161086a565b60008451116133215760405162461bcd60e51b815260206004820152601c60248201527f506c656173652070726f766964652061206465736372697074696f6e00000000604482015260640161086a565b60008351116133685760405162461bcd60e51b8152602060048201526013602482015272506c656173652070726f76696465207461677360681b604482015260640161086a565b600082116133c25760405162461bcd60e51b815260206004820152602160248201527f4d696e20627564676574206d7573742062652067726561746572207468616e206044820152600360fc1b606482015260840161086a565b818110156134315760405162461bcd60e51b815260206004820152603660248201527f4d617820627564676574206d7573742062652067726561746572207468616e206044820152751bdc88195c5d585b081d1bc81b5a5b88189d5919d95d60521b606482015260840161086a565b61343f600380546001019055565b600061344a60035490565b60008181526005602052604090208181556001810180546001600160a01b03191633179055909150600381016134808882613ee9565b506004810161348f8782613ee9565b506005810161349e8682613ee9565b506006810184905560078101839055600b810180546000919060ff1916600183021790555042600a909101556000908152600760205260409020805460ff191660011790555050505050565b6000546001600160a01b03163314611b6e5760405162461bcd60e51b815260206004820181905260248201527f4f776e61626c653a2063616c6c6572206973206e6f7420746865206f776e6572604482015260640161086a565b600080546001600160a01b038381166001600160a01b0319831681178455604051919092169283917f8be0079c531659141344cd1fd0a4f28419497f9722a3daafe3b4186f6b6457e09190a35050565b6002600154036135e65760405162461bcd60e51b815260206004820152601f60248201527f5265656e7472616e637947756172643a207265656e7472616e742063616c6c00604482015260640161086a565b6002600155565b604051806101c001604052806000815260200160006001600160a01b0316815260200160006001600160a01b0316815260200160608152602001606081526020016060815260200160008152602001600081526020016000815260200160608152602001600081526020016000600481111561366b5761366b61377a565b815260006020820152606060409091015290565b50805461368b90613d93565b6000825580601f1061369b575050565b601f016020900490600052602060002090810190612e6c91906136d3565b5080546000825590600052602060002090810190612e6c91905b5b808211156136e857600081556001016136d4565b5090565b80356001600160a01b038116811461370357600080fd5b919050565b6000806040838503121561371b57600080fd5b8235915061372b602084016136ec565b90509250929050565b6000815180845260005b8181101561375a5760208185018101518683018201520161373e565b506000602082860101526020601f19601f83011685010191505092915050565b634e487b7160e01b600052602160045260246000fd5b600581106137ae57634e487b7160e01b600052602160045260246000fd5b9052565b600081518084526020808501945080840160005b838110156137eb5781516001600160a01b0316875295820195908201906001016137c6565b509495945050505050565b60006101c082518452602083015161381960208601826001600160a01b03169052565b50604083015161383460408601826001600160a01b03169052565b50606083015181606086015261384c82860182613734565b915050608083015184820360808601526138668282613734565b91505060a083015184820360a08601526138808282613734565b91505060c083015160c085015260e083015160e085015261010080840151818601525061012080840151858303828701526138bb8382613734565b92505050610140808401518186015250610160808401516138de82870182613790565b50506101808381015160ff16908501526101a0808401518583038287015261390683826137b2565b9695505050505050565b6000602080830181845280855180835260408601915060408160051b870101925083870160005b8281101561396557603f198886030184526139538583516137f6565b94509285019290850190600101613937565b5092979650505050505050565b6000806040838503121561398557600080fd5b50508035926020909101359150565b6000602082840312156139a657600080fd5b5035919050565b602080825282518282018190526000919060409081850190868401855b82811015613a0d578151805185528681015187860152858101516001600160a01b03168686015260609081015190850152608090930192908501906001016139ca565b5091979650505050505050565b8d81526001600160a01b038d1660208201526001600160a01b038c1660408201526101a060608201526000613a536101a083018d613734565b8281036080840152613a65818d613734565b905082810360a0840152613a79818c613734565b90508960c08401528860e084015287610100840152828103610120840152613aa18188613734565b91505084610140830152613ab9610160830185613790565b60ff83166101808301529e9d5050505050505050505050505050565b634e487b7160e01b600052604160045260246000fd5b600082601f830112613afc57600080fd5b81356001600160401b0380821115613b1657613b16613ad5565b604051601f8301601f19908116603f01168101908282118183101715613b3e57613b3e613ad5565b81604052838152866020858801011115613b5757600080fd5b836020870160208301376000602085830101528094505050505092915050565b60008060008060008060c08789031215613b9057600080fd5b8635955060208701356001600160401b0380821115613bae57600080fd5b613bba8a838b01613aeb565b96506040890135915080821115613bd057600080fd5b613bdc8a838b01613aeb565b95506060890135915080821115613bf257600080fd5b50613bff89828a01613aeb565b9350506080870135915060a087013590509295509295509295565b602081526000613c2d60208301846137f6565b9392505050565b60008060408385031215613c4757600080fd5b8235915060208301356001600160401b03811115613c6457600080fd5b613c7085828601613aeb565b9150509250929050565b60008060408385031215613c8d57600080fd5b82359150602083013560ff81168114613ca557600080fd5b809150509250929050565b600060208284031215613cc257600080fd5b613c2d826136ec565b600080600080600060a08688031215613ce357600080fd5b85356001600160401b0380821115613cfa57600080fd5b613d0689838a01613aeb565b96506020880135915080821115613d1c57600080fd5b613d2889838a01613aeb565b95506040880135915080821115613d3e57600080fd5b50613d4b88828901613aeb565b9598949750949560608101359550608001359392505050565b634e487b7160e01b600052601160045260246000fd5b600060018201613d8c57613d8c613d64565b5060010190565b600181811c90821680613da757607f821691505b602082108103613dc757634e487b7160e01b600052602260045260246000fd5b50919050565b634e487b7160e01b600052603260045260246000fd5b602080825260139082015272556e617574686f72697a656420656e7469747960681b604082015260600190565b6020808252601e908201527f54686973206a6f62206c697374696e6720646f65736e27742065786973740000604082015260600190565b6020808252601790820152762a3434b9903537b1103430b9903132b2b7103a30b5b2b760491b604082015260600190565b600060208284031215613e8a57600080fd5b81518015158114613c2d57600080fd5b601f821115613ee457600081815260208120601f850160051c81016020861015613ec15750805b601f850160051c820191505b81811015613ee057828155600101613ecd565b5050505b505050565b81516001600160401b03811115613f0257613f02613ad5565b613f1681613f108454613d93565b84613e9a565b602080601f831160018114613f4b5760008415613f335750858301515b600019600386901b1c1916600185901b178555613ee0565b600085815260208120601f198616915b82811015613f7a57888601518255948401946001909101908401613f5b565b5085821015613f985787850151600019600388901b60f8161c191681555b5050505050600190811b01905550565b8082028115828204841417613fbf57613fbf613d64565b92915050565b600082613fe257634e487b7160e01b600052601260045260246000fd5b500490565b81810381811115613fbf57613fbf613d64565b6001600160a01b0392909216825260208201526040019056fea2646970667358221220d27b6904d9e0166488ee939790a9af37a89f1b31153d424bc4c8f86e4cad991f64736f6c63430008120033",
  "linkReferences": {},
  "deployedLinkReferences": {}
}